{
  "_format": "hh-sol-artifact-1",
  "contractName": "Minesweeper",
  "sourceName": "contracts/Minesweeper.sol",
  "abi": [
    {
      "anonymous": false,
      "inputs": [
        {
          "indexed": false,
          "internalType": "uint8",
          "name": "version",
          "type": "uint8"
        }
      ],
      "name": "Initialized",
      "type": "event"
    },
    {
      "anonymous": false,
      "inputs": [
        {
          "indexed": true,
          "internalType": "address",
          "name": "previousOwner",
          "type": "address"
        },
        {
          "indexed": true,
          "internalType": "address",
          "name": "newOwner",
          "type": "address"
        }
      ],
      "name": "OwnershipTransferred",
      "type": "event"
    },
    {
      "inputs": [
        {
          "internalType": "uint256",
          "name": "gameId",
          "type": "uint256"
        },
        {
          "components": [
            {
              "internalType": "bool",
              "name": "_isMine",
              "type": "bool"
            },
            {
              "internalType": "uint8",
              "name": "_adjacentMines",
              "type": "uint8"
            },
            {
              "internalType": "bool",
              "name": "_isRevealed",
              "type": "bool"
            },
            {
              "internalType": "bool",
              "name": "_isFlagged",
              "type": "bool"
            }
          ],
          "internalType": "struct GameData.BoardStateCell[][]",
          "name": "finalBoardState",
          "type": "tuple[][]"
        }
      ],
      "name": "CheckFinish",
      "outputs": [],
      "stateMutability": "nonpayable",
      "type": "function"
    },
    {
      "inputs": [
        {
          "components": [
            {
              "internalType": "address",
              "name": "player",
              "type": "address"
            },
            {
              "internalType": "uint256",
              "name": "playerNonce",
              "type": "uint256"
            },
            {
              "internalType": "bytes",
              "name": "playerSig",
              "type": "bytes"
            }
          ],
          "internalType": "struct GameData.PlayerSig",
          "name": "playerSigData",
          "type": "tuple"
        },
        {
          "internalType": "uint256",
          "name": "gameId",
          "type": "uint256"
        },
        {
          "components": [
            {
              "internalType": "uint256",
              "name": "gameId",
              "type": "uint256"
            },
            {
              "internalType": "uint8",
              "name": "row",
              "type": "uint8"
            },
            {
              "internalType": "uint8",
              "name": "col",
              "type": "uint8"
            },
            {
              "internalType": "bool",
              "name": "isMined",
              "type": "bool"
            }
          ],
          "internalType": "struct GameData.Move",
          "name": "move",
          "type": "tuple"
        }
      ],
      "name": "Flag",
      "outputs": [],
      "stateMutability": "nonpayable",
      "type": "function"
    },
    {
      "inputs": [
        {
          "components": [
            {
              "internalType": "address",
              "name": "player",
              "type": "address"
            },
            {
              "internalType": "uint256",
              "name": "playerNonce",
              "type": "uint256"
            },
            {
              "internalType": "bytes",
              "name": "playerSig",
              "type": "bytes"
            }
          ],
          "internalType": "struct GameData.PlayerSig",
          "name": "playerSigData",
          "type": "tuple"
        },
        {
          "internalType": "uint256",
          "name": "level",
          "type": "uint256"
        }
      ],
      "name": "InitGame",
      "outputs": [],
      "stateMutability": "nonpayable",
      "type": "function"
    },
    {
      "inputs": [
        {
          "components": [
            {
              "internalType": "address",
              "name": "player",
              "type": "address"
            },
            {
              "internalType": "uint256",
              "name": "playerNonce",
              "type": "uint256"
            },
            {
              "internalType": "bytes",
              "name": "playerSig",
              "type": "bytes"
            }
          ],
          "internalType": "struct GameData.PlayerSig",
          "name": "playerSigData",
          "type": "tuple"
        },
        {
          "components": [
            {
              "internalType": "uint256",
              "name": "gameId",
              "type": "uint256"
            },
            {
              "internalType": "uint8",
              "name": "row",
              "type": "uint8"
            },
            {
              "internalType": "uint8",
              "name": "col",
              "type": "uint8"
            },
            {
              "internalType": "bool",
              "name": "isMined",
              "type": "bool"
            }
          ],
          "internalType": "struct GameData.Move",
          "name": "move",
          "type": "tuple"
        },
        {
          "components": [
            {
              "internalType": "uint8",
              "name": "_adjacentMines",
              "type": "uint8"
            },
            {
              "internalType": "bool",
              "name": "_isRevealed",
              "type": "bool"
            }
          ],
          "internalType": "struct GameData.BoardStateCellMove[][]",
          "name": "nextBoardState",
          "type": "tuple[][]"
        }
      ],
      "name": "Move",
      "outputs": [],
      "stateMutability": "nonpayable",
      "type": "function"
    },
    {
      "inputs": [],
      "name": "_admin",
      "outputs": [
        {
          "internalType": "address",
          "name": "",
          "type": "address"
        }
      ],
      "stateMutability": "view",
      "type": "function"
    },
    {
      "inputs": [],
      "name": "_currentGameId",
      "outputs": [
        {
          "internalType": "uint256",
          "name": "",
          "type": "uint256"
        }
      ],
      "stateMutability": "view",
      "type": "function"
    },
    {
      "inputs": [],
      "name": "_erc20Token",
      "outputs": [
        {
          "internalType": "address",
          "name": "",
          "type": "address"
        }
      ],
      "stateMutability": "view",
      "type": "function"
    },
    {
      "inputs": [
        {
          "internalType": "uint256",
          "name": "",
          "type": "uint256"
        }
      ],
      "name": "_games",
      "outputs": [
        {
          "internalType": "address",
          "name": "_player",
          "type": "address"
        },
        {
          "internalType": "uint256",
          "name": "_numberMines",
          "type": "uint256"
        },
        {
          "internalType": "uint256",
          "name": "_start",
          "type": "uint256"
        },
        {
          "internalType": "uint256",
          "name": "_lastMove",
          "type": "uint256"
        },
        {
          "internalType": "uint256",
          "name": "_countMove",
          "type": "uint256"
        },
        {
          "internalType": "enum GameData.GameResult",
          "name": "_result",
          "type": "uint8"
        },
        {
          "components": [
            {
              "internalType": "uint256",
              "name": "rows",
              "type": "uint256"
            },
            {
              "internalType": "uint256",
              "name": "cols",
              "type": "uint256"
            },
            {
              "internalType": "uint256",
              "name": "numMine",
              "type": "uint256"
            },
            {
              "internalType": "uint256",
              "name": "baseScore",
              "type": "uint256"
            },
            {
              "internalType": "uint256",
              "name": "totalMove",
              "type": "uint256"
            },
            {
              "internalType": "uint256",
              "name": "maxTime",
              "type": "uint256"
            },
            {
              "internalType": "uint256",
              "name": "minMoves",
              "type": "uint256"
            }
          ],
          "internalType": "struct GameData.GameLevel",
          "name": "_level",
          "type": "tuple"
        }
      ],
      "stateMutability": "view",
      "type": "function"
    },
    {
      "inputs": [
        {
          "internalType": "uint256",
          "name": "",
          "type": "uint256"
        }
      ],
      "name": "_leaderboard",
      "outputs": [
        {
          "internalType": "address",
          "name": "player",
          "type": "address"
        },
        {
          "internalType": "uint256",
          "name": "score",
          "type": "uint256"
        }
      ],
      "stateMutability": "view",
      "type": "function"
    },
    {
      "inputs": [],
      "name": "_paramsAddress",
      "outputs": [
        {
          "internalType": "address",
          "name": "",
          "type": "address"
        }
      ],
      "stateMutability": "view",
      "type": "function"
    },
    {
      "inputs": [
        {
          "components": [
            {
              "internalType": "uint256",
              "name": "rows",
              "type": "uint256"
            },
            {
              "internalType": "uint256",
              "name": "cols",
              "type": "uint256"
            },
            {
              "internalType": "uint256",
              "name": "numMine",
              "type": "uint256"
            },
            {
              "internalType": "uint256",
              "name": "baseScore",
              "type": "uint256"
            },
            {
              "internalType": "uint256",
              "name": "totalMove",
              "type": "uint256"
            },
            {
              "internalType": "uint256",
              "name": "maxTime",
              "type": "uint256"
            },
            {
              "internalType": "uint256",
              "name": "minMoves",
              "type": "uint256"
            }
          ],
          "internalType": "struct GameData.GameLevel",
          "name": "gameLevel",
          "type": "tuple"
        },
        {
          "internalType": "uint256",
          "name": "num_moves",
          "type": "uint256"
        },
        {
          "internalType": "uint256",
          "name": "elapsed_time",
          "type": "uint256"
        }
      ],
      "name": "calculateScore",
      "outputs": [
        {
          "internalType": "uint256",
          "name": "score",
          "type": "uint256"
        }
      ],
      "stateMutability": "nonpayable",
      "type": "function"
    },
    {
      "inputs": [
        {
          "internalType": "address",
          "name": "newAdm",
          "type": "address"
        }
      ],
      "name": "changeAdmin",
      "outputs": [],
      "stateMutability": "nonpayable",
      "type": "function"
    },
    {
      "inputs": [
        {
          "internalType": "address",
          "name": "newAddr",
          "type": "address"
        }
      ],
      "name": "changeERC20Token",
      "outputs": [],
      "stateMutability": "nonpayable",
      "type": "function"
    },
    {
      "inputs": [
        {
          "internalType": "address",
          "name": "newAddr",
          "type": "address"
        }
      ],
      "name": "changeParam",
      "outputs": [],
      "stateMutability": "nonpayable",
      "type": "function"
    },
    {
      "inputs": [
        {
          "internalType": "uint256",
          "name": "gameId",
          "type": "uint256"
        },
        {
          "internalType": "uint256",
          "name": "i",
          "type": "uint256"
        },
        {
          "internalType": "uint256",
          "name": "j",
          "type": "uint256"
        }
      ],
      "name": "getGameState",
      "outputs": [
        {
          "components": [
            {
              "internalType": "bool",
              "name": "_isMine",
              "type": "bool"
            },
            {
              "internalType": "uint8",
              "name": "_adjacentMines",
              "type": "uint8"
            },
            {
              "internalType": "bool",
              "name": "_isRevealed",
              "type": "bool"
            },
            {
              "internalType": "bool",
              "name": "_isFlagged",
              "type": "bool"
            }
          ],
          "internalType": "struct GameData.BoardStateCell",
          "name": "",
          "type": "tuple"
        }
      ],
      "stateMutability": "view",
      "type": "function"
    },
    {
      "inputs": [
        {
          "internalType": "address",
          "name": "admin",
          "type": "address"
        },
        {
          "internalType": "address",
          "name": "paramAddress",
          "type": "address"
        },
        {
          "internalType": "address",
          "name": "erc20Token",
          "type": "address"
        }
      ],
      "name": "initialize",
      "outputs": [],
      "stateMutability": "nonpayable",
      "type": "function"
    },
    {
      "inputs": [],
      "name": "owner",
      "outputs": [
        {
          "internalType": "address",
          "name": "",
          "type": "address"
        }
      ],
      "stateMutability": "view",
      "type": "function"
    },
    {
      "inputs": [],
      "name": "renounceOwnership",
      "outputs": [],
      "stateMutability": "nonpayable",
      "type": "function"
    },
    {
      "inputs": [
        {
          "internalType": "address",
          "name": "newOwner",
          "type": "address"
        }
      ],
      "name": "transferOwnership",
      "outputs": [],
      "stateMutability": "nonpayable",
      "type": "function"
    }
  ],
  "bytecode": "0x608060405234801561001057600080fd5b50612f76806100206000396000f3fe608060405234801561001057600080fd5b50600436106101215760003560e01c80638da5cb5b116100ad578063c0c53b8b11610071578063c0c53b8b1461032d578063ced5447b14610340578063efb5402914610392578063f2fde38b146103a5578063fbc3e3a1146103b857600080fd5b80638da5cb5b146102d05780638f283970146102e1578063a953e1f3146102f4578063adb61f4314610307578063adfc7dae1461031a57600080fd5b8063695b3e6c116100f4578063695b3e6c14610278578063715018a61461028b578063741149b1146102935780637702e006146102a65780637b3edecb146102bd57600080fd5b806301bc45c9146101265780631426150c146101565780631a5e7213146101a557806341eb8b8b146101ba575b600080fd5b609754610139906001600160a01b031681565b6040516001600160a01b0390911681526020015b60405180910390f35b6101696101643660046125f2565b6103cb565b60405161014d919081511515815260208083015160ff169082015260408083015115159082015260609182015115159181019190915260800190565b6101b86101b336600461283c565b610474565b005b6102656101c8366004612893565b609a6020908152600091825260409182902080546001820154600283015460038401546004850154610105860154885160e081018a5261010688015481526101078801549881019890985261010887015498880198909852610109860154606088015261010a860154608088015261010b86015460a088015261010c9095015460c08701526001600160a01b0390931695919490939160ff169087565b60405161014d97969594939291906128e4565b6101b8610286366004612972565b610973565b6101b8610a04565b6101b86102a1366004612972565b610a18565b6102af609b5481565b60405190815260200161014d565b6101b86102cb36600461298d565b610aaa565b6065546001600160a01b0316610139565b6101b86102ef366004612972565b610d42565b6101b86103023660046129f4565b610dd4565b6102af610315366004612b67565b611230565b609854610139906001600160a01b031681565b6101b861033b366004612bef565b6112b2565b61037361034e366004612893565b609d60205260009081526040902080546001909101546001600160a01b039091169082565b604080516001600160a01b03909316835260208301919091520161014d565b609954610139906001600160a01b031681565b6101b86103b3366004612972565b61140c565b6101b86103c6366004612c29565b611482565b6040805160808101825260008082526020820181905291810182905260608101919091526000848152609a60205260409020600501836010811061041157610411612dab565b60100201826010811061042657610426612dab565b60408051608081018252929091015460ff80821615158452610100820481166020850152620100008204811615159284019290925263010000009004161515606082015290505b9392505050565b82806040015151600014156104d757805160408051808201909152600381526203130360ec1b6020820152906001600160a01b031633146104d15760405162461bcd60e51b81526004016104c89190612dc1565b60405180910390fd5b5061060d565b80516001600160a01b03166000908152609e60209081526040808320828501518452825291829020548251808401909352600383526203130360ec1b9183019190915260ff161561053b5760405162461bcd60e51b81526004016104c89190612dc1565b5080516001600160a01b03166000908152609e6020908152604080832082850180518552908352818420805460ff191660011790558451905191514694936105899330938793909201612e16565b6040516020818303038152906040528051906020012090506105b76105ad82611bb3565b8460400151611be6565b6001600160a01b031683600001516001600160a01b0316146040518060400160405280600381526020016203130360ec1b815250906106095760405162461bcd60e51b81526004016104c89190612dc1565b5050505b81516000908152609a6020908152604080832081516101008101835281546001600160a01b031681526001820154938101939093526002810154838301526003810154606084015260048101546080840152815161020081019092529060a083019060058301601086835b828210156107095760408051610200810190915260108084028601906000835b828210156106f657604080516080810182528386015460ff8082161515835261010082048116602080850191909152620100008304821615159484019490945263010000009091041615156060820152825260019092019101610698565b5050505081526020019060010190610678565b5050509082525061010582015460209091019060ff166003811115610730576107306128ac565b6003811115610741576107416128ac565b81526040805160e081018252610106840154815261010784015460208281019190915261010885015492820192909252610109840154606082015261010a840154608082015261010b84015460a082015261010c9093015460c08401520152855181519192506001600160a01b039182169116146107e65760405162461bcd60e51b81526020600482015260026024820152614d3160f01b60448201526064016104c8565b60008160c0015160038111156107fe576107fe6128ac565b146108345760405162461bcd60e51b81526004016104c8906020808252600490820152634d315f3160e01b604082015260600190565b60008160400151116108715760405162461bcd60e51b81526004016104c8906020808252600490820152632698af9960e11b604082015260600190565b8260600151609a6000868152602001908152602001600020600501846020015160ff16601081106108a4576108a4612dab565b60100201846040015160ff16601081106108c0576108c0612dab565b01805491151563010000000263ff000000199092169190911790556000848152609a602052604081204360038201556004018054916108fe83612e56565b91905055507f010589e52f5c2bfec6e0c37f6b05dd7ad667fb6c341f765abd1072b07b7909ca8360000151846020015185604001518660600151604051610964949392919093845260ff9283166020850152911660408301521515606082015260800190565b60405180910390a15050505050565b6097546001600160a01b03163314801561099557506001600160a01b03811615155b6040518060400160405280600381526020016231303160e81b815250906109cf5760405162461bcd60e51b81526004016104c89190612dc1565b506099546001600160a01b03828116911614610a0157609980546001600160a01b0319166001600160a01b0383161790555b50565b610a0c611c0c565b610a166000611c66565b565b6097546001600160a01b031633148015610a3a57506001600160a01b03811615155b6040518060400160405280600381526020016231303160e81b81525090610a745760405162461bcd60e51b81526004016104c89190612dc1565b506098546001600160a01b03828116911614610a0157609880546001600160a01b0383166001600160a01b031990911617905550565b8180604001515160001415610b0457805160408051808201909152600381526203130360ec1b6020820152906001600160a01b03163314610afe5760405162461bcd60e51b81526004016104c89190612dc1565b50610c30565b80516001600160a01b03166000908152609e60209081526040808320828501518452825291829020548251808401909352600383526203130360ec1b9183019190915260ff1615610b685760405162461bcd60e51b81526004016104c89190612dc1565b5080516001600160a01b03166000908152609e6020908152604080832082850180518552908352818420805460ff19166001179055845190519151469493610bb69330938793909201612e16565b604051602081830303815290604052805190602001209050610bda6105ad82611bb3565b6001600160a01b031683600001516001600160a01b0316146040518060400160405280600381526020016203130360ec1b81525090610c2c5760405162461bcd60e51b81526004016104c89190612dc1565b5050505b609b8054906000610c4083612e56565b91905055506000610c5083611cb8565b609b80546000908152609a602090815260408083208551610106820155858301516101078201558582015161010882018190556060870151610109830155608087015161010a83015560a087015161010b83015560c087015161010c90920191909155845484528184206001015588518454845281842080546001600160a01b0319166001600160a01b039092169190911790558354835280832043600290910155835483529182902061010501805460ff19169055915490519081529192507f573ea33a91eac4576b61be89d3fd90d43dbb1291f4a63fdebe07b9f29289132091015b60405180910390a150505050565b6097546001600160a01b031633148015610d6457506001600160a01b03811615155b6040518060400160405280600381526020016231303160e81b81525090610d9e5760405162461bcd60e51b81526004016104c89190612dc1565b506097546001600160a01b03828116911614610a0157609780546001600160a01b0383166001600160a01b031990911617905550565b60016000838152609a60205260409020610105015460ff166003811115610dfd57610dfd6128ac565b14610e335760405162461bcd60e51b81526004016104c8906020808252600490820152634d342e3160e01b604082015260600190565b6000828152609a6020908152604080832081516101008101835281546001600160a01b031681526001820154938101939093526002810154838301526003810154606084015260048101546080840152815161020081019092529060a083019060058301601086835b82821015610f2d5760408051610200810190915260108084028601906000835b82821015610f1a57604080516080810182528386015460ff8082161515835261010082048116602080850191909152620100008304821615159484019490945263010000009091041615156060820152825260019092019101610ebc565b5050505081526020019060010190610e9c565b5050509082525061010582015460209091019060ff166003811115610f5457610f546128ac565b6003811115610f6557610f656128ac565b81526040805160e08082018352610106850154825261010785015460208381019190915261010886015483850152610109860154606084015261010a860154608084015261010b86015460a084015261010c9095015460c08084019190915293850191909152840151918201516000888152609a90945292206004015492935091101561101d5760405162461bcd60e51b81526004016104c890602080825260049082015263269a171960e11b604082015260600190565b6000805b82518110156110e65760005b83602001518110156110d3578460a00151826010811061104f5761104f612dab565b6020020151816010811061106557611065612dab565b6020020151604001511580156110ae575085828151811061108857611088612dab565b602002602001015181815181106110a1576110a1612dab565b6020026020010151600001515b156110c157826110bd81612e56565b9350505b806110cb81612e56565b91505061102d565b50806110de81612e56565b915050611021565b508160400151811461111f5760405162461bcd60e51b8152602060048201526002602482015261134d60f21b60448201526064016104c8565b6000858152609a6020526040812060028101546003909101546111429190612e71565b6000878152609a60208181526040808420815160e08101835261010682015481526101078201548185015261010882015492810192909252610109810154606083015261010a810154608083015261010b81015460a083015261010c81015460c08301528b85529290915260049091015492935090916111c3919084611230565b90506111d3856000015182611e08565b506000878152609a60209081526040918290205482516001600160a01b0390911681529081018390527f5c25de3ddee13c72380d0179015a2d5c196a399938fdbdb319d84c93285cb1de910160405180910390a150505050505050565b60808301516000908190841015611261578385608001516101f46112549190612e88565b61125e9190612ea7565b90505b60008560a0015184101561128f57838660a001516101f46112829190612e88565b61128c9190612ea7565b90505b6112998183612ec9565b86606001516112a89190612e88565b9695505050505050565b600054610100900460ff16158080156112d25750600054600160ff909116105b806112ec5750303b1580156112ec575060005460ff166001145b61134f5760405162461bcd60e51b815260206004820152602e60248201527f496e697469616c697a61626c653a20636f6e747261637420697320616c72656160448201526d191e481a5b9a5d1a585b1a5e995960921b60648201526084016104c8565b6000805460ff191660011790558015611372576000805461ff0019166101001790555b600a609c55609780546001600160a01b038087166001600160a01b0319928316179092556098805486841690831617905560998054928516929091169190911790556113bc611fa6565b6113c4611fd5565b8015611406576000805461ff0019169055604051600181527f7f26b83ff96e1f2b6a682f133852f6798a09c465da95921460cefb384740249890602001610d34565b50505050565b611414611c0c565b6001600160a01b0381166114795760405162461bcd60e51b815260206004820152602660248201527f4f776e61626c653a206e6577206f776e657220697320746865207a65726f206160448201526564647265737360d01b60648201526084016104c8565b610a0181611c66565b82806040015151600014156114dc57805160408051808201909152600381526203130360ec1b6020820152906001600160a01b031633146114d65760405162461bcd60e51b81526004016104c89190612dc1565b50611608565b80516001600160a01b03166000908152609e60209081526040808320828501518452825291829020548251808401909352600383526203130360ec1b9183019190915260ff16156115405760405162461bcd60e51b81526004016104c89190612dc1565b5080516001600160a01b03166000908152609e6020908152604080832082850180518552908352818420805460ff1916600117905584519051915146949361158e9330938793909201612e16565b6040516020818303038152906040528051906020012090506115b26105ad82611bb3565b6001600160a01b031683600001516001600160a01b0316146040518060400160405280600381526020016203130360ec1b815250906116045760405162461bcd60e51b81526004016104c89190612dc1565b5050505b82516000908152609a6020908152604080832081516101008101835281546001600160a01b031681526001820154938101939093526002810154838301526003810154606084015260048101546080840152815161020081019092529060a083019060058301601086835b828210156117045760408051610200810190915260108084028601906000835b828210156116f157604080516080810182528386015460ff8082161515835261010082048116602080850191909152620100008304821615159484019490945263010000009091041615156060820152825260019092019101611693565b5050505081526020019060010190611673565b5050509082525061010582015460209091019060ff16600381111561172b5761172b6128ac565b600381111561173c5761173c6128ac565b81526040805160e081018252610106840154815261010784015460208281019190915261010885015492820192909252610109840154606082015261010a840154608082015261010b84015460a082015261010c9093015460c08401520152855181519192506001600160a01b039182169116146117e15760405162461bcd60e51b81526020600482015260026024820152614d3160f01b60448201526064016104c8565b60008160c0015160038111156117f9576117f96128ac565b1461182f5760405162461bcd60e51b81526004016104c8906020808252600490820152634d315f3160e01b604082015260600190565b600081604001511161186c5760405162461bcd60e51b81526004016104c8906020808252600490820152632698af9960e11b604082015260600190565b60e081015160005b81518110156119d45760005b82602001518110156119c15785828151811061189e5761189e612dab565b602002602001015181815181106118b7576118b7612dab565b602002602001015160000151609a60008960000151815260200190815260200160002060050183601081106118ee576118ee612dab565b60100201826010811061190357611903612dab565b0160000160016101000a81548160ff021916908360ff16021790555085828151811061193157611931612dab565b6020026020010151818151811061194a5761194a612dab565b602002602001015160200151609a600089600001518152602001908152602001600020600501836010811061198157611981612dab565b60100201826010811061199657611996612dab565b018054911515620100000262ff000019909216919091179055806119b981612e56565b915050611880565b50806119cc81612e56565b915050611874565b5084516000908152609a602052604080822043600390910155865182528120600401805491611a0283612e56565b9190505550600080611a2c8760000151886020015160ff16896040015160ff168a60600151612004565b88516000908152609a60205260409020610105018054929450909250839160ff19166001836003811115611a6257611a626128ac565b0217905550600187516000908152609a60205260409020610105015460ff166003811115611a9257611a926128ac565b1415611af157604083015183516020850151611aae9190612e88565b611ab89190612e71565b811015611aec5760405162461bcd60e51b81526020600482015260026024820152614d3360f01b60448201526064016104c8565b611b55565b8660600151609a600089600001518152602001908152602001600020600501886020015160ff1660108110611b2857611b28612dab565b60100201886040015160ff1660108110611b4457611b44612dab565b01805460ff19169115159190911790555b86516000818152609a602052604090819020610105015490517f46df92debef97f04ee6c5a1f6f8c7771e4b5ebb9e31fee6343acab444254b89792611ba192909160ff90911690612ee1565b60405180910390a15050505050505050565b7f19457468657265756d205369676e6564204d6573736167653a0a3332000000006000908152601c91909152603c902090565b6000806000611bf58585612340565b91509150611c0281612386565b5090505b92915050565b6065546001600160a01b03163314610a165760405162461bcd60e51b815260206004820181905260248201527f4f776e61626c653a2063616c6c6572206973206e6f7420746865206f776e657260448201526064016104c8565b606580546001600160a01b038381166001600160a01b0319831681179093556040519116919082907f8be0079c531659141344cd1fd0a4f28419497f9722a3daafe3b4186f6b6457e090600090a35050565b611cf86040518060e00160405280600081526020016000815260200160008152602001600081526020016000815260200160008152602001600081525090565b811580611d055750816001145b80611d105750816002145b80611d1b5750816003145b611d2457600080fd5b81611d5c5760088082526020820152600a6040820152603660808201526101f460a082015260016060820152600760c0820152919050565b8160011415611d9857600a8082526020820152600f60408201526055608082015261030c60a082015260026060820152600760c0820152919050565b8160021415611dd457600c8082526020820152601e60408201526072608082015261046560a082015260036060820152600760c0820152919050565b601080825260208201526050604082015260b060808201526106a460a082015260046060820152600760c08201525b919050565b600081609d60006001609c54611e1e9190612e71565b81526020019081526020016000206001015410611e3d57506000611c06565b60005b609c54811015611f9c576000818152609d6020526040902060010154831115611f8a576000818152609d60209081526040808320815180830190925280546001600160a01b03168252600190810154928201929092529190611ea3908490612ec9565b90505b609c54611eb4906001612ec9565b811015611f24576000818152609d60208181526040808420815180830190925280546001600160a01b038082168452600183018054858701529688905294845287516001600160a01b03199091169416939093179092559390930151905580611f1c81612e56565b915050611ea6565b50506040805180820182526001600160a01b03808716825260208083018781526000958652609d9091528385209251835492166001600160a01b031992831617835551600192830155609c54845291832080549092168255908101919091559050611c06565b80611f9481612e56565b915050611e40565b5060009392505050565b600054610100900460ff16611fcd5760405162461bcd60e51b81526004016104c890612ef5565b610a166124d4565b600054610100900460ff16611ffc5760405162461bcd60e51b81526004016104c890612ef5565b610a16612501565b6000848152609a6020908152604080832081516101008101835281546001600160a01b031681526001820154938101939093526002810154838301526003810154606084015260048101546080840152815161020081019092528392839290919060a083019060058301601086835b828210156121045760408051610200810190915260108084028601906000835b828210156120f157604080516080810182528386015460ff8082161515835261010082048116602080850191909152620100008304821615159484019490945263010000009091041615156060820152825260019092019101612093565b5050505081526020019060010190612073565b5050509082525061010582015460209091019060ff16600381111561212b5761212b6128ac565b600381111561213c5761213c6128ac565b815260200161010682016040518060e001604052908160008201548152602001600182015481526020016002820154815260200160038201548152602001600482015481526020016005820154815260200160068201548152505081525050905060008160a00151905060008260e001519050600080945060005b82518110156123175760005b83602001518110156123045760008c8152609a6020526040902060050182601081106121f1576121f1612dab565b60100201816010811061220657612206612dab565b015462010000900460ff1615612224578661222081612e56565b9750505b60008c8152609a60205260409020600501826010811061224657612246612dab565b60100201816010811061225b5761225b612dab565b015462010000900460ff16801561227157508a82145b801561227c57508981145b80156122855750885b1561229e57506002965060009550612337945050505050565b60008c8152609a6020526040902060050182601081106122c0576122c0612dab565b6010020181601081106122d5576122d5612dab565b015462010000900460ff166122f257826122ee81612e56565b9350505b806122fc81612e56565b9150506121c3565b508061230f81612e56565b9150506121b7565b50816040015181141561232d5760019550612332565b600095505b505050505b94509492505050565b6000808251604114156123775760208301516040840151606085015160001a61236b87828585612531565b9450945050505061237f565b506000905060025b9250929050565b600081600481111561239a5761239a6128ac565b14156123a35750565b60018160048111156123b7576123b76128ac565b14156124055760405162461bcd60e51b815260206004820152601860248201527f45434453413a20696e76616c6964207369676e6174757265000000000000000060448201526064016104c8565b6002816004811115612419576124196128ac565b14156124675760405162461bcd60e51b815260206004820152601f60248201527f45434453413a20696e76616c6964207369676e6174757265206c656e6774680060448201526064016104c8565b600381600481111561247b5761247b6128ac565b1415610a015760405162461bcd60e51b815260206004820152602260248201527f45434453413a20696e76616c6964207369676e6174757265202773272076616c604482015261756560f01b60648201526084016104c8565b600054610100900460ff166124fb5760405162461bcd60e51b81526004016104c890612ef5565b60018055565b600054610100900460ff166125285760405162461bcd60e51b81526004016104c890612ef5565b610a1633611c66565b6000807f7fffffffffffffffffffffffffffffff5d576e7357a4501ddfe92f46681b20a08311156125685750600090506003612337565b6040805160008082526020820180845289905260ff881692820192909252606081018690526080810185905260019060a0016020604051602081039080840390855afa1580156125bc573d6000803e3d6000fd5b5050604051601f1901519150506001600160a01b0381166125e557600060019250925050612337565b9660009650945050505050565b60008060006060848603121561260757600080fd5b505081359360208301359350604090920135919050565b634e487b7160e01b600052604160045260246000fd5b604051606081016001600160401b03811182821017156126565761265661261e565b60405290565b604051608081016001600160401b03811182821017156126565761265661261e565b60405160e081016001600160401b03811182821017156126565761265661261e565b604080519081016001600160401b03811182821017156126565761265661261e565b604051601f8201601f191681016001600160401b03811182821017156126ea576126ea61261e565b604052919050565b80356001600160a01b0381168114611e0357600080fd5b60006060828403121561271b57600080fd5b612723612634565b905061272e826126f2565b81526020808301358183015260408301356001600160401b038082111561275457600080fd5b818501915085601f83011261276857600080fd5b81358181111561277a5761277a61261e565b61278c601f8201601f191685016126c2565b915080825286848285010111156127a257600080fd5b808484018584013760008482840101525080604085015250505092915050565b803560ff81168114611e0357600080fd5b80358015158114611e0357600080fd5b6000608082840312156127f557600080fd5b6127fd61265c565b90508135815261280f602083016127c2565b6020820152612820604083016127c2565b6040820152612831606083016127d3565b606082015292915050565b600080600060c0848603121561285157600080fd5b83356001600160401b0381111561286757600080fd5b61287386828701612709565b9350506020840135915061288a85604086016127e3565b90509250925092565b6000602082840312156128a557600080fd5b5035919050565b634e487b7160e01b600052602160045260246000fd5b600481106128e057634e487b7160e01b600052602160045260246000fd5b9052565b6001600160a01b0388168152602081018790526040810186905260608101859052608081018490526101a0810161291e60a08301856128c2565b825160c0830152602083015160e083015260408301516101008301526060830151610120830152608083015161014083015260a083015161016083015260c083015161018083015298975050505050505050565b60006020828403121561298457600080fd5b61046d826126f2565b600080604083850312156129a057600080fd5b82356001600160401b038111156129b657600080fd5b6129c285828601612709565b95602094909401359450505050565b60006001600160401b038211156129ea576129ea61261e565b5060051b60200190565b60008060408385031215612a0757600080fd5b8235915060208301356001600160401b0380821115612a2557600080fd5b818501915085601f830112612a3957600080fd5b612a4b612a4683356129d1565b6126c2565b82358082526020808301929160051b85010188811115612a6a57600080fd5b602085015b81811015612b58578481351115612a8557600080fd5b803586018a603f820112612a9857600080fd5b6020810135612aa9612a46826129d1565b81815260079190911b82016040019060208101908d831115612aca57600080fd5b6040840193505b82841015612b43576080848f031215612ae957600080fd5b612af161265c565b612afa856127d3565b8152612b08602086016127c2565b6020820152612b19604086016127d3565b6040820152612b2a606086016127d3565b6060820152825260809390930192602090910190612ad1565b87525050602094850194919091019050612a6f565b50959890975095505050505050565b6000806000838503610120811215612b7e57600080fd5b60e0811215612b8c57600080fd5b50612b9561267e565b843581526020850135602082015260408501356040820152606085013560608201526080850135608082015260a085013560a082015260c085013560c08201528093505060e0840135915061010084013590509250925092565b600080600060608486031215612c0457600080fd5b612c0d846126f2565b9250612c1b602085016126f2565b915061288a604085016126f2565b600080600060c08486031215612c3e57600080fd5b6001600160401b0384351115612c5357600080fd5b612c608585358601612709565b9250612c6f85602086016127e3565b91506001600160401b0360a08501351115612c8957600080fd5b60a0840135840185601f820112612c9f57600080fd5b612cac612a4682356129d1565b81358082526020808301929160051b84010188811115612ccb57600080fd5b602084015b81811015612d9c576001600160401b0381351115612ced57600080fd5b803585018a603f820112612d0057600080fd5b612d10612a4660208301356129d1565b602082810135808352908201919060061b83016040018d811115612d3357600080fd5b6040840193505b80841015612d8b576040848f031215612d5257600080fd5b612d5a6126a0565b612d63856127c2565b8152612d71602086016127d3565b602082015280845250602083019250604084019350612d3a565b508652505060209384019301612cd0565b50508093505050509250925092565b634e487b7160e01b600052603260045260246000fd5b600060208083528351808285015260005b81811015612dee57858101830151858201604001528201612dd2565b81811115612e00576000604083870101525b50601f01601f1916929092016040019392505050565b6001600160a01b039485168152602081019390935292166040820152606081019190915260800190565b634e487b7160e01b600052601160045260246000fd5b6000600019821415612e6a57612e6a612e40565b5060010190565b600082821015612e8357612e83612e40565b500390565b6000816000190483118215151615612ea257612ea2612e40565b500290565b600082612ec457634e487b7160e01b600052601260045260246000fd5b500490565b60008219821115612edc57612edc612e40565b500190565b8281526040810161046d60208301846128c2565b6020808252602b908201527f496e697469616c697a61626c653a20636f6e7472616374206973206e6f74206960408201526a6e697469616c697a696e6760a81b60608201526080019056fea2646970667358221220e188c0b002b8eb9a12595c123aceb8534f247f785625608306415826cd06225c64736f6c634300080c0033",
  "linkReferences": {},
  "deployedLinkReferences": {}
}