{
  "_format": "hh-sol-artifact-1",
  "contractName": "Minesweeper",
  "sourceName": "contracts/Minesweeper.sol",
  "abi": [
    {
      "anonymous": false,
      "inputs": [
        {
          "indexed": false,
          "internalType": "uint8",
          "name": "version",
          "type": "uint8"
        }
      ],
      "name": "Initialized",
      "type": "event"
    },
    {
      "anonymous": false,
      "inputs": [
        {
          "indexed": true,
          "internalType": "address",
          "name": "previousOwner",
          "type": "address"
        },
        {
          "indexed": true,
          "internalType": "address",
          "name": "newOwner",
          "type": "address"
        }
      ],
      "name": "OwnershipTransferred",
      "type": "event"
    },
    {
      "inputs": [
        {
          "internalType": "uint256",
          "name": "gameId",
          "type": "uint256"
        },
        {
          "components": [
            {
              "internalType": "bool",
              "name": "_isMine",
              "type": "bool"
            },
            {
              "internalType": "uint8",
              "name": "_adjacentMines",
              "type": "uint8"
            },
            {
              "internalType": "bool",
              "name": "_isRevealed",
              "type": "bool"
            },
            {
              "internalType": "bool",
              "name": "_isFlagged",
              "type": "bool"
            }
          ],
          "internalType": "struct GameData.BoardStateCell[][]",
          "name": "finalBoardState",
          "type": "tuple[][]"
        }
      ],
      "name": "CheckFinish",
      "outputs": [],
      "stateMutability": "nonpayable",
      "type": "function"
    },
    {
      "inputs": [
        {
          "internalType": "uint256",
          "name": "gameId",
          "type": "uint256"
        },
        {
          "internalType": "uint8",
          "name": "row",
          "type": "uint8"
        },
        {
          "internalType": "uint8",
          "name": "col",
          "type": "uint8"
        },
        {
          "internalType": "bool",
          "name": "flag",
          "type": "bool"
        }
      ],
      "name": "Flag",
      "outputs": [],
      "stateMutability": "nonpayable",
      "type": "function"
    },
    {
      "inputs": [
        {
          "internalType": "uint256",
          "name": "level",
          "type": "uint256"
        }
      ],
      "name": "InitGame",
      "outputs": [],
      "stateMutability": "nonpayable",
      "type": "function"
    },
    {
      "inputs": [
        {
          "internalType": "uint256",
          "name": "gameId",
          "type": "uint256"
        },
        {
          "internalType": "uint8",
          "name": "row",
          "type": "uint8"
        },
        {
          "internalType": "uint8",
          "name": "col",
          "type": "uint8"
        },
        {
          "internalType": "bool",
          "name": "isMined",
          "type": "bool"
        },
        {
          "components": [
            {
              "internalType": "uint8",
              "name": "_adjacentMines",
              "type": "uint8"
            },
            {
              "internalType": "bool",
              "name": "_isRevealed",
              "type": "bool"
            }
          ],
          "internalType": "struct GameData.BoardStateCellMove[][]",
          "name": "nextBoardState",
          "type": "tuple[][]"
        }
      ],
      "name": "Move",
      "outputs": [],
      "stateMutability": "nonpayable",
      "type": "function"
    },
    {
      "inputs": [],
      "name": "_admin",
      "outputs": [
        {
          "internalType": "address",
          "name": "",
          "type": "address"
        }
      ],
      "stateMutability": "view",
      "type": "function"
    },
    {
      "inputs": [],
      "name": "_currentGameId",
      "outputs": [
        {
          "internalType": "uint256",
          "name": "",
          "type": "uint256"
        }
      ],
      "stateMutability": "view",
      "type": "function"
    },
    {
      "inputs": [],
      "name": "_erc20Token",
      "outputs": [
        {
          "internalType": "address",
          "name": "",
          "type": "address"
        }
      ],
      "stateMutability": "view",
      "type": "function"
    },
    {
      "inputs": [
        {
          "internalType": "uint256",
          "name": "",
          "type": "uint256"
        }
      ],
      "name": "_games",
      "outputs": [
        {
          "internalType": "address",
          "name": "_player",
          "type": "address"
        },
        {
          "internalType": "uint256",
          "name": "_numberMines",
          "type": "uint256"
        },
        {
          "internalType": "uint256",
          "name": "_start",
          "type": "uint256"
        },
        {
          "internalType": "uint256",
          "name": "_lastMove",
          "type": "uint256"
        },
        {
          "internalType": "uint256",
          "name": "_countMove",
          "type": "uint256"
        },
        {
          "internalType": "enum GameData.GameResult",
          "name": "_result",
          "type": "uint8"
        },
        {
          "components": [
            {
              "internalType": "uint256",
              "name": "rows",
              "type": "uint256"
            },
            {
              "internalType": "uint256",
              "name": "cols",
              "type": "uint256"
            },
            {
              "internalType": "uint256",
              "name": "numMine",
              "type": "uint256"
            },
            {
              "internalType": "uint256",
              "name": "baseScore",
              "type": "uint256"
            },
            {
              "internalType": "uint256",
              "name": "totalMove",
              "type": "uint256"
            },
            {
              "internalType": "uint256",
              "name": "maxTime",
              "type": "uint256"
            },
            {
              "internalType": "uint256",
              "name": "minMoves",
              "type": "uint256"
            }
          ],
          "internalType": "struct GameData.GameLevel",
          "name": "_level",
          "type": "tuple"
        }
      ],
      "stateMutability": "view",
      "type": "function"
    },
    {
      "inputs": [
        {
          "internalType": "uint256",
          "name": "",
          "type": "uint256"
        }
      ],
      "name": "_leaderboard",
      "outputs": [
        {
          "internalType": "address",
          "name": "player",
          "type": "address"
        },
        {
          "internalType": "uint256",
          "name": "score",
          "type": "uint256"
        }
      ],
      "stateMutability": "view",
      "type": "function"
    },
    {
      "inputs": [],
      "name": "_paramsAddress",
      "outputs": [
        {
          "internalType": "address",
          "name": "",
          "type": "address"
        }
      ],
      "stateMutability": "view",
      "type": "function"
    },
    {
      "inputs": [
        {
          "components": [
            {
              "internalType": "uint256",
              "name": "rows",
              "type": "uint256"
            },
            {
              "internalType": "uint256",
              "name": "cols",
              "type": "uint256"
            },
            {
              "internalType": "uint256",
              "name": "numMine",
              "type": "uint256"
            },
            {
              "internalType": "uint256",
              "name": "baseScore",
              "type": "uint256"
            },
            {
              "internalType": "uint256",
              "name": "totalMove",
              "type": "uint256"
            },
            {
              "internalType": "uint256",
              "name": "maxTime",
              "type": "uint256"
            },
            {
              "internalType": "uint256",
              "name": "minMoves",
              "type": "uint256"
            }
          ],
          "internalType": "struct GameData.GameLevel",
          "name": "gameLevel",
          "type": "tuple"
        },
        {
          "internalType": "uint256",
          "name": "num_moves",
          "type": "uint256"
        },
        {
          "internalType": "uint256",
          "name": "elapsed_time",
          "type": "uint256"
        }
      ],
      "name": "calculateScore",
      "outputs": [
        {
          "internalType": "uint256",
          "name": "score",
          "type": "uint256"
        }
      ],
      "stateMutability": "nonpayable",
      "type": "function"
    },
    {
      "inputs": [
        {
          "internalType": "address",
          "name": "newAdm",
          "type": "address"
        }
      ],
      "name": "changeAdmin",
      "outputs": [],
      "stateMutability": "nonpayable",
      "type": "function"
    },
    {
      "inputs": [
        {
          "internalType": "address",
          "name": "newAddr",
          "type": "address"
        }
      ],
      "name": "changeERC20Token",
      "outputs": [],
      "stateMutability": "nonpayable",
      "type": "function"
    },
    {
      "inputs": [
        {
          "internalType": "address",
          "name": "newAddr",
          "type": "address"
        }
      ],
      "name": "changeParam",
      "outputs": [],
      "stateMutability": "nonpayable",
      "type": "function"
    },
    {
      "inputs": [
        {
          "internalType": "uint256",
          "name": "gameId",
          "type": "uint256"
        },
        {
          "internalType": "uint256",
          "name": "i",
          "type": "uint256"
        },
        {
          "internalType": "uint256",
          "name": "j",
          "type": "uint256"
        }
      ],
      "name": "getGameState",
      "outputs": [
        {
          "components": [
            {
              "internalType": "bool",
              "name": "_isMine",
              "type": "bool"
            },
            {
              "internalType": "uint8",
              "name": "_adjacentMines",
              "type": "uint8"
            },
            {
              "internalType": "bool",
              "name": "_isRevealed",
              "type": "bool"
            },
            {
              "internalType": "bool",
              "name": "_isFlagged",
              "type": "bool"
            }
          ],
          "internalType": "struct GameData.BoardStateCell",
          "name": "",
          "type": "tuple"
        }
      ],
      "stateMutability": "view",
      "type": "function"
    },
    {
      "inputs": [
        {
          "internalType": "address",
          "name": "admin",
          "type": "address"
        },
        {
          "internalType": "address",
          "name": "paramAddress",
          "type": "address"
        },
        {
          "internalType": "address",
          "name": "erc20Token",
          "type": "address"
        }
      ],
      "name": "initialize",
      "outputs": [],
      "stateMutability": "nonpayable",
      "type": "function"
    },
    {
      "inputs": [],
      "name": "owner",
      "outputs": [
        {
          "internalType": "address",
          "name": "",
          "type": "address"
        }
      ],
      "stateMutability": "view",
      "type": "function"
    },
    {
      "inputs": [],
      "name": "renounceOwnership",
      "outputs": [],
      "stateMutability": "nonpayable",
      "type": "function"
    },
    {
      "inputs": [
        {
          "internalType": "address",
          "name": "newOwner",
          "type": "address"
        }
      ],
      "name": "transferOwnership",
      "outputs": [],
      "stateMutability": "nonpayable",
      "type": "function"
    }
  ],
  "bytecode": "0x608060405234801561001057600080fd5b5061262a806100206000396000f3fe608060405234801561001057600080fd5b50600436106101215760003560e01c80638da5cb5b116100ad578063adfc7dae11610071578063adfc7dae1461032d578063c0c53b8b14610340578063ced5447b14610353578063efb54029146103a5578063f2fde38b146103b857600080fd5b80638da5cb5b146102d05780638f283970146102e1578063a1c18b43146102f4578063a953e1f314610307578063adb61f431461031a57600080fd5b8063715018a6116100f4578063715018a614610278578063741149b1146102805780637702e006146102935780637b321348146102aa5780638a1ef489146102bd57600080fd5b806301bc45c9146101265780631426150c1461015657806341eb8b8b146101a5578063695b3e6c14610263575b600080fd5b609754610139906001600160a01b031681565b6040516001600160a01b0390911681526020015b60405180910390f35b610169610164366004611e23565b6103cb565b60405161014d919081511515815260208083015160ff169082015260408083015115159082015260609182015115159181019190915260800190565b6102506101b3366004611e4f565b609a6020908152600091825260409182902080546001820154600283015460038401546004850154610105860154885160e081018a5261010688015481526101078801549881019890985261010887015498880198909852610109860154606088015261010a860154608088015261010b86015460a088015261010c9095015460c08701526001600160a01b0390931695919490939160ff169087565b60405161014d9796959493929190611ea0565b610276610271366004611f45565b610474565b005b61027661050e565b61027661028e366004611f45565b610522565b61029c609b5481565b60405190815260200161014d565b6102766102b8366004611e4f565b6105b4565b6102766102cb36600461205b565b6106b4565b6065546001600160a01b0316610139565b6102766102ef366004611f45565b610c1b565b610276610302366004612202565b610cad565b61027661031536600461224f565b610fde565b61029c6103283660046123be565b61143a565b609854610139906001600160a01b031681565b61027661034e366004612446565b6114bc565b610386610361366004611e4f565b609d60205260009081526040902080546001909101546001600160a01b039091169082565b604080516001600160a01b03909316835260208301919091520161014d565b609954610139906001600160a01b031681565b6102766103c6366004611f45565b61161a565b6040805160808101825260008082526020820181905291810182905260608101919091526000848152609a60205260409020600501836010811061041157610411612489565b60100201826010811061042657610426612489565b60408051608081018252929091015460ff80821615158452610100820481166020850152620100008204811615159284019290925263010000009004161515606082015290505b9392505050565b6097546001600160a01b03163314801561049657506001600160a01b03811615155b6040518060400160405280600381526020016231303160e81b815250906104d95760405162461bcd60e51b81526004016104d0919061249f565b60405180910390fd5b506099546001600160a01b0382811691161461050b57609980546001600160a01b0319166001600160a01b0383161790555b50565b610516611690565b61052060006116ea565b565b6097546001600160a01b03163314801561054457506001600160a01b03811615155b6040518060400160405280600381526020016231303160e81b8152509061057e5760405162461bcd60e51b81526004016104d0919061249f565b506098546001600160a01b0382811691161461050b57609880546001600160a01b0383166001600160a01b031990911617905550565b609b80549060006105c48361250a565b919050555060006105d48261173c565b609b80546000908152609a602090815260408083208551610106820155858301516101078201558582015161010882018190556060870151610109830155608087015161010a83015560a087015161010b83015560c087015161010c9092019190915584548452818420600101558354835280832080546001600160a01b031916331790558354835280832043600290910155835483529182902061010501805460ff19169055915490519081529192507f573ea33a91eac4576b61be89d3fd90d43dbb1291f4a63fdebe07b9f292891320910160405180910390a15050565b6000858152609a6020908152604080832081516101008101835281546001600160a01b031681526001820154938101939093526002810154838301526003810154606084015260048101546080840152815161020081019092529060a083019060058301601086835b828210156107ae5760408051610200810190915260108084028601906000835b8282101561079b57604080516080810182528386015460ff808216151583526101008204811660208085019190915262010000830482161515948401949094526301000000909104161515606082015282526001909201910161073d565b505050508152602001906001019061071d565b5050509082525061010582015460209091019060ff1660038111156107d5576107d5611e68565b60038111156107e6576107e6611e68565b81526040805160e081018252610106840154815261010784015460208281019190915261010885015492820192909252610109840154606082015261010a840154608082015261010b84015460a082015261010c9093015460c0840152015280519091506001600160a01b031633146108865760405162461bcd60e51b81526020600482015260026024820152614d3160f01b60448201526064016104d0565b60008160c00151600381111561089e5761089e611e68565b146108d45760405162461bcd60e51b81526004016104d0906020808252600490820152634d315f3160e01b604082015260600190565b60008160400151116109115760405162461bcd60e51b81526004016104d0906020808252600490820152632698af9960e11b604082015260600190565b60e081015160005b8151811015610a715760005b8260200151811015610a5e5784828151811061094357610943612489565b6020026020010151818151811061095c5761095c612489565b602002602001015160000151609a60008b8152602001908152602001600020600501836010811061098f5761098f612489565b6010020182601081106109a4576109a4612489565b0160000160016101000a81548160ff021916908360ff1602179055508482815181106109d2576109d2612489565b602002602001015181815181106109eb576109eb612489565b602002602001015160200151609a60008b81526020019081526020016000206005018360108110610a1e57610a1e612489565b601002018260108110610a3357610a33612489565b018054911515620100000262ff00001990921691909117905580610a568161250a565b915050610925565b5080610a698161250a565b915050610919565b506000878152609a60205260408120436003820155600401805491610a958361250a565b9190505550600080610aaf898960ff168960ff168961188c565b60008b8152609a60205260409020610105018054929450909250839160ff19166001836003811115610ae357610ae3611e68565b0217905550600160008a8152609a60205260409020610105015460ff166003811115610b1157610b11611e68565b1415610b7057604083015183516020850151610b2d9190612525565b610b379190612544565b811015610b6b5760405162461bcd60e51b81526020600482015260026024820152614d3360f01b60448201526064016104d0565b610bc0565b6000898152609a60205260409020869060050160ff8a1660108110610b9757610b97612489565b601002018860ff1660108110610baf57610baf612489565b01805460ff19169115159190911790555b6000898152609a602052604090819020610105015490517f46df92debef97f04ee6c5a1f6f8c7771e4b5ebb9e31fee6343acab444254b89791610c08918c9160ff169061255b565b60405180910390a1505050505050505050565b6097546001600160a01b031633148015610c3d57506001600160a01b03811615155b6040518060400160405280600381526020016231303160e81b81525090610c775760405162461bcd60e51b81526004016104d0919061249f565b506097546001600160a01b0382811691161461050b57609780546001600160a01b0383166001600160a01b031990911617905550565b6000848152609a6020908152604080832081516101008101835281546001600160a01b031681526001820154938101939093526002810154838301526003810154606084015260048101546080840152815161020081019092529060a083019060058301601086835b82821015610da75760408051610200810190915260108084028601906000835b82821015610d9457604080516080810182528386015460ff8082161515835261010082048116602080850191909152620100008304821615159484019490945263010000009091041615156060820152825260019092019101610d36565b5050505081526020019060010190610d16565b5050509082525061010582015460209091019060ff166003811115610dce57610dce611e68565b6003811115610ddf57610ddf611e68565b81526040805160e081018252610106840154815261010784015460208281019190915261010885015492820192909252610109840154606082015261010a840154608082015261010b84015460a082015261010c9093015460c0840152015280519091506001600160a01b03163314610e7f5760405162461bcd60e51b81526020600482015260026024820152614d3160f01b60448201526064016104d0565b60008160c001516003811115610e9757610e97611e68565b14610ecd5760405162461bcd60e51b81526004016104d0906020808252600490820152634d315f3160e01b604082015260600190565b6000816040015111610f0a5760405162461bcd60e51b81526004016104d0906020808252600490820152632698af9960e11b604082015260600190565b6000858152609a60205260409020829060050160ff861660108110610f3157610f31612489565b601002018460ff1660108110610f4957610f49612489565b01805491151563010000000263ff000000199092169190911790556000858152609a60205260408120436003820155600401805491610f878361250a565b90915550506040805186815260ff8681166020830152851681830152831515606082015290517f010589e52f5c2bfec6e0c37f6b05dd7ad667fb6c341f765abd1072b07b7909ca9181900360800190a15050505050565b60016000838152609a60205260409020610105015460ff16600381111561100757611007611e68565b1461103d5760405162461bcd60e51b81526004016104d0906020808252600490820152634d342e3160e01b604082015260600190565b6000828152609a6020908152604080832081516101008101835281546001600160a01b031681526001820154938101939093526002810154838301526003810154606084015260048101546080840152815161020081019092529060a083019060058301601086835b828210156111375760408051610200810190915260108084028601906000835b8282101561112457604080516080810182528386015460ff80821615158352610100820481166020808501919091526201000083048216151594840194909452630100000090910416151560608201528252600190920191016110c6565b50505050815260200190600101906110a6565b5050509082525061010582015460209091019060ff16600381111561115e5761115e611e68565b600381111561116f5761116f611e68565b81526040805160e08082018352610106850154825261010785015460208381019190915261010886015483850152610109860154606084015261010a860154608084015261010b86015460a084015261010c9095015460c08084019190915293850191909152840151918201516000888152609a9094529220600401549293509110156112275760405162461bcd60e51b81526004016104d090602080825260049082015263269a171960e11b604082015260600190565b6000805b82518110156112f05760005b83602001518110156112dd578460a00151826010811061125957611259612489565b6020020151816010811061126f5761126f612489565b6020020151604001511580156112b8575085828151811061129257611292612489565b602002602001015181815181106112ab576112ab612489565b6020026020010151600001515b156112cb57826112c78161250a565b9350505b806112d58161250a565b915050611237565b50806112e88161250a565b91505061122b565b50816040015181146113295760405162461bcd60e51b8152602060048201526002602482015261134d60f21b60448201526064016104d0565b6000858152609a60205260408120600281015460039091015461134c9190612544565b6000878152609a60208181526040808420815160e08101835261010682015481526101078201548185015261010882015492810192909252610109810154606083015261010a810154608083015261010b81015460a083015261010c81015460c08301528b85529290915260049091015492935090916113cd91908461143a565b90506113dd856000015182611bc8565b506000878152609a60209081526040918290205482516001600160a01b0390911681529081018390527f5c25de3ddee13c72380d0179015a2d5c196a399938fdbdb319d84c93285cb1de910160405180910390a150505050505050565b6080830151600090819084101561146b578385608001516101f461145e9190612525565b611468919061256f565b90505b60008560a0015184101561149957838660a001516101f461148c9190612525565b611496919061256f565b90505b6114a38183612591565b86606001516114b29190612525565b9695505050505050565b600054610100900460ff16158080156114dc5750600054600160ff909116105b806114f65750303b1580156114f6575060005460ff166001145b6115595760405162461bcd60e51b815260206004820152602e60248201527f496e697469616c697a61626c653a20636f6e747261637420697320616c72656160448201526d191e481a5b9a5d1a585b1a5e995960921b60648201526084016104d0565b6000805460ff19166001179055801561157c576000805461ff0019166101001790555b600a609c55609780546001600160a01b038087166001600160a01b0319928316179092556098805486841690831617905560998054928516929091169190911790556115c6611d68565b6115ce611d97565b8015611614576000805461ff0019169055604051600181527f7f26b83ff96e1f2b6a682f133852f6798a09c465da95921460cefb38474024989060200160405180910390a15b50505050565b611622611690565b6001600160a01b0381166116875760405162461bcd60e51b815260206004820152602660248201527f4f776e61626c653a206e6577206f776e657220697320746865207a65726f206160448201526564647265737360d01b60648201526084016104d0565b61050b816116ea565b6065546001600160a01b031633146105205760405162461bcd60e51b815260206004820181905260248201527f4f776e61626c653a2063616c6c6572206973206e6f7420746865206f776e657260448201526064016104d0565b606580546001600160a01b038381166001600160a01b0319831681179093556040519116919082907f8be0079c531659141344cd1fd0a4f28419497f9722a3daafe3b4186f6b6457e090600090a35050565b61177c6040518060e00160405280600081526020016000815260200160008152602001600081526020016000815260200160008152602001600081525090565b8115806117895750816001145b806117945750816002145b8061179f5750816003145b6117a857600080fd5b816117e05760088082526020820152600a6040820152603660808201526101f460a082015260016060820152600760c0820152919050565b816001141561181c57600a8082526020820152600f60408201526055608082015261030c60a082015260026060820152600760c0820152919050565b816002141561185857600c8082526020820152601e60408201526072608082015261046560a082015260036060820152600760c0820152919050565b601080825260208201526050604082015260b060808201526106a460a082015260046060820152600760c08201525b919050565b6000848152609a6020908152604080832081516101008101835281546001600160a01b031681526001820154938101939093526002810154838301526003810154606084015260048101546080840152815161020081019092528392839290919060a083019060058301601086835b8282101561198c5760408051610200810190915260108084028601906000835b8282101561197957604080516080810182528386015460ff808216151583526101008204811660208085019190915262010000830482161515948401949094526301000000909104161515606082015282526001909201910161191b565b50505050815260200190600101906118fb565b5050509082525061010582015460209091019060ff1660038111156119b3576119b3611e68565b60038111156119c4576119c4611e68565b815260200161010682016040518060e001604052908160008201548152602001600182015481526020016002820154815260200160038201548152602001600482015481526020016005820154815260200160068201548152505081525050905060008160a00151905060008260e001519050600080945060005b8251811015611b9f5760005b8360200151811015611b8c5760008c8152609a602052604090206005018260108110611a7957611a79612489565b601002018160108110611a8e57611a8e612489565b015462010000900460ff1615611aac5786611aa88161250a565b9750505b60008c8152609a602052604090206005018260108110611ace57611ace612489565b601002018160108110611ae357611ae3612489565b015462010000900460ff168015611af957508a82145b8015611b0457508981145b8015611b0d5750885b15611b2657506002965060009550611bbf945050505050565b60008c8152609a602052604090206005018260108110611b4857611b48612489565b601002018160108110611b5d57611b5d612489565b015462010000900460ff16611b7a5782611b768161250a565b9350505b80611b848161250a565b915050611a4b565b5080611b978161250a565b915050611a3f565b508160400151811415611bb55760019550611bba565b600095505b505050505b94509492505050565b600081609d60006001609c54611bde9190612544565b81526020019081526020016000206001015410611bfd57506000611d62565b60005b609c54811015611d5c576000818152609d6020526040902060010154831115611d4a576000818152609d60209081526040808320815180830190925280546001600160a01b03168252600190810154928201929092529190611c63908490612591565b90505b609c54611c74906001612591565b811015611ce4576000818152609d60208181526040808420815180830190925280546001600160a01b038082168452600183018054858701529688905294845287516001600160a01b03199091169416939093179092559390930151905580611cdc8161250a565b915050611c66565b50506040805180820182526001600160a01b03808716825260208083018781526000958652609d9091528385209251835492166001600160a01b031992831617835551600192830155609c54845291832080549092168255908101919091559050611d62565b80611d548161250a565b915050611c00565b50600090505b92915050565b600054610100900460ff16611d8f5760405162461bcd60e51b81526004016104d0906125a9565b610520611dc6565b600054610100900460ff16611dbe5760405162461bcd60e51b81526004016104d0906125a9565b610520611df3565b600054610100900460ff16611ded5760405162461bcd60e51b81526004016104d0906125a9565b60018055565b600054610100900460ff16611e1a5760405162461bcd60e51b81526004016104d0906125a9565b610520336116ea565b600080600060608486031215611e3857600080fd5b505081359360208301359350604090920135919050565b600060208284031215611e6157600080fd5b5035919050565b634e487b7160e01b600052602160045260246000fd5b60048110611e9c57634e487b7160e01b600052602160045260246000fd5b9052565b6001600160a01b0388168152602081018790526040810186905260608101859052608081018490526101a08101611eda60a0830185611e7e565b825160c0830152602083015160e083015260408301516101008301526060830151610120830152608083015161014083015260a083015161016083015260c083015161018083015298975050505050505050565b80356001600160a01b038116811461188757600080fd5b600060208284031215611f5757600080fd5b61046d82611f2e565b803560ff8116811461188757600080fd5b8035801515811461188757600080fd5b634e487b7160e01b600052604160045260246000fd5b6040805190810167ffffffffffffffff81118282101715611fba57611fba611f81565b60405290565b6040516080810167ffffffffffffffff81118282101715611fba57611fba611f81565b60405160e0810167ffffffffffffffff81118282101715611fba57611fba611f81565b604051601f8201601f1916810167ffffffffffffffff8111828210171561202f5761202f611f81565b604052919050565b600067ffffffffffffffff82111561205157612051611f81565b5060051b60200190565b600080600080600060a0868803121561207357600080fd5b8535945061208360208701611f60565b935061209160408701611f60565b925061209f60608701611f71565b915067ffffffffffffffff608087013511156120ba57600080fd5b6080860135860187601f8201126120d057600080fd5b6120e26120dd8235612037565b612006565b81358082526020808301929160051b8401018a101561210057600080fd5b602083015b6020843560051b8501018110156121f15767ffffffffffffffff8135111561212c57600080fd5b8a603f82358601011261213e57600080fd5b6121516120dd6020833587010135612037565b81358501602081810135808452908301929160069190911b016040018d101561217957600080fd5b604083358701015b83358701602081013560061b016040018110156121e1576040818f0312156121a857600080fd5b6121b0611f97565b6121b982611f60565b81526121c760208301611f71565b602082015280845250602083019250604081019050612181565b5084525060209283019201612105565b508093505050509295509295909350565b6000806000806080858703121561221857600080fd5b8435935061222860208601611f60565b925061223660408601611f60565b915061224460608601611f71565b905092959194509250565b6000806040838503121561226257600080fd5b82359150602083013567ffffffffffffffff8082111561228157600080fd5b818501915085601f83011261229557600080fd5b6122a26120dd8335612037565b82358082526020808301929160051b850101888111156122c157600080fd5b602085015b818110156123af5784813511156122dc57600080fd5b803586018a603f8201126122ef57600080fd5b60208101356123006120dd82612037565b81815260079190911b82016040019060208101908d83111561232157600080fd5b6040840193505b8284101561239a576080848f03121561234057600080fd5b612348611fc0565b61235185611f71565b815261235f60208601611f60565b602082015261237060408601611f71565b604082015261238160608601611f71565b6060820152825260809390930192602090910190612328565b875250506020948501949190910190506122c6565b50959890975095505050505050565b60008060008385036101208112156123d557600080fd5b60e08112156123e357600080fd5b506123ec611fe3565b843581526020850135602082015260408501356040820152606085013560608201526080850135608082015260a085013560a082015260c085013560c08201528093505060e0840135915061010084013590509250925092565b60008060006060848603121561245b57600080fd5b61246484611f2e565b925061247260208501611f2e565b915061248060408501611f2e565b90509250925092565b634e487b7160e01b600052603260045260246000fd5b600060208083528351808285015260005b818110156124cc578581018301518582016040015282016124b0565b818111156124de576000604083870101525b50601f01601f1916929092016040019392505050565b634e487b7160e01b600052601160045260246000fd5b600060001982141561251e5761251e6124f4565b5060010190565b600081600019048311821515161561253f5761253f6124f4565b500290565b600082821015612556576125566124f4565b500390565b8281526040810161046d6020830184611e7e565b60008261258c57634e487b7160e01b600052601260045260246000fd5b500490565b600082198211156125a4576125a46124f4565b500190565b6020808252602b908201527f496e697469616c697a61626c653a20636f6e7472616374206973206e6f74206960408201526a6e697469616c697a696e6760a81b60608201526080019056fea2646970667358221220199ba6c063271c2353bb65e84299dd4e0daba7f22a8c2986c950cf66ec174dae64736f6c634300080c0033",
  "linkReferences": {},
  "deployedLinkReferences": {}
}