{
  "_format": "hh-sol-artifact-1",
  "contractName": "Minesweeper",
  "sourceName": "contracts/Minesweeper.sol",
  "abi": [
    {
      "anonymous": false,
      "inputs": [
        {
          "indexed": false,
          "internalType": "uint8",
          "name": "version",
          "type": "uint8"
        }
      ],
      "name": "Initialized",
      "type": "event"
    },
    {
      "anonymous": false,
      "inputs": [
        {
          "indexed": true,
          "internalType": "address",
          "name": "previousOwner",
          "type": "address"
        },
        {
          "indexed": true,
          "internalType": "address",
          "name": "newOwner",
          "type": "address"
        }
      ],
      "name": "OwnershipTransferred",
      "type": "event"
    },
    {
      "inputs": [
        {
          "internalType": "uint256",
          "name": "gameId",
          "type": "uint256"
        },
        {
          "components": [
            {
              "internalType": "bool",
              "name": "_isMine",
              "type": "bool"
            },
            {
              "internalType": "uint8",
              "name": "_adjacentMines",
              "type": "uint8"
            },
            {
              "internalType": "bool",
              "name": "_isRevealed",
              "type": "bool"
            },
            {
              "internalType": "bool",
              "name": "_isFlagged",
              "type": "bool"
            }
          ],
          "internalType": "struct GameData.BoardStateCell[][]",
          "name": "finalBoardState",
          "type": "tuple[][]"
        }
      ],
      "name": "CheckFinish",
      "outputs": [],
      "stateMutability": "nonpayable",
      "type": "function"
    },
    {
      "inputs": [
        {
          "internalType": "uint256",
          "name": "gameId",
          "type": "uint256"
        },
        {
          "internalType": "uint8",
          "name": "row",
          "type": "uint8"
        },
        {
          "internalType": "uint8",
          "name": "col",
          "type": "uint8"
        },
        {
          "internalType": "bool",
          "name": "flag",
          "type": "bool"
        }
      ],
      "name": "Flag",
      "outputs": [],
      "stateMutability": "nonpayable",
      "type": "function"
    },
    {
      "inputs": [
        {
          "internalType": "uint256",
          "name": "level",
          "type": "uint256"
        }
      ],
      "name": "InitGame",
      "outputs": [],
      "stateMutability": "nonpayable",
      "type": "function"
    },
    {
      "inputs": [
        {
          "internalType": "uint256",
          "name": "gameId",
          "type": "uint256"
        },
        {
          "internalType": "uint8",
          "name": "row",
          "type": "uint8"
        },
        {
          "internalType": "uint8",
          "name": "col",
          "type": "uint8"
        },
        {
          "internalType": "bool",
          "name": "isMined",
          "type": "bool"
        },
        {
          "components": [
            {
              "internalType": "bool",
              "name": "_isMine",
              "type": "bool"
            },
            {
              "internalType": "uint8",
              "name": "_adjacentMines",
              "type": "uint8"
            },
            {
              "internalType": "bool",
              "name": "_isRevealed",
              "type": "bool"
            },
            {
              "internalType": "bool",
              "name": "_isFlagged",
              "type": "bool"
            }
          ],
          "internalType": "struct GameData.BoardStateCell[][]",
          "name": "nextBoardState",
          "type": "tuple[][]"
        }
      ],
      "name": "Move",
      "outputs": [],
      "stateMutability": "nonpayable",
      "type": "function"
    },
    {
      "inputs": [],
      "name": "_admin",
      "outputs": [
        {
          "internalType": "address",
          "name": "",
          "type": "address"
        }
      ],
      "stateMutability": "view",
      "type": "function"
    },
    {
      "inputs": [],
      "name": "_currentGameId",
      "outputs": [
        {
          "internalType": "uint256",
          "name": "",
          "type": "uint256"
        }
      ],
      "stateMutability": "view",
      "type": "function"
    },
    {
      "inputs": [],
      "name": "_erc20Token",
      "outputs": [
        {
          "internalType": "address",
          "name": "",
          "type": "address"
        }
      ],
      "stateMutability": "view",
      "type": "function"
    },
    {
      "inputs": [
        {
          "internalType": "uint256",
          "name": "",
          "type": "uint256"
        }
      ],
      "name": "_games",
      "outputs": [
        {
          "internalType": "address",
          "name": "_player",
          "type": "address"
        },
        {
          "internalType": "uint256",
          "name": "_numberMines",
          "type": "uint256"
        },
        {
          "internalType": "uint256",
          "name": "_start",
          "type": "uint256"
        },
        {
          "internalType": "uint256",
          "name": "_lastMove",
          "type": "uint256"
        },
        {
          "internalType": "uint256",
          "name": "_countMove",
          "type": "uint256"
        },
        {
          "internalType": "enum GameData.GameResult",
          "name": "_result",
          "type": "uint8"
        },
        {
          "components": [
            {
              "internalType": "uint256",
              "name": "rows",
              "type": "uint256"
            },
            {
              "internalType": "uint256",
              "name": "cols",
              "type": "uint256"
            },
            {
              "internalType": "uint256",
              "name": "numMine",
              "type": "uint256"
            },
            {
              "internalType": "uint256",
              "name": "baseScore",
              "type": "uint256"
            },
            {
              "internalType": "uint256",
              "name": "totalMove",
              "type": "uint256"
            },
            {
              "internalType": "uint256",
              "name": "maxTime",
              "type": "uint256"
            },
            {
              "internalType": "uint256",
              "name": "minMoves",
              "type": "uint256"
            }
          ],
          "internalType": "struct GameData.GameLevel",
          "name": "_level",
          "type": "tuple"
        }
      ],
      "stateMutability": "view",
      "type": "function"
    },
    {
      "inputs": [
        {
          "internalType": "uint256",
          "name": "",
          "type": "uint256"
        }
      ],
      "name": "_leaderboard",
      "outputs": [
        {
          "internalType": "address",
          "name": "player",
          "type": "address"
        },
        {
          "internalType": "uint256",
          "name": "score",
          "type": "uint256"
        }
      ],
      "stateMutability": "view",
      "type": "function"
    },
    {
      "inputs": [],
      "name": "_paramsAddress",
      "outputs": [
        {
          "internalType": "address",
          "name": "",
          "type": "address"
        }
      ],
      "stateMutability": "view",
      "type": "function"
    },
    {
      "inputs": [
        {
          "components": [
            {
              "internalType": "uint256",
              "name": "rows",
              "type": "uint256"
            },
            {
              "internalType": "uint256",
              "name": "cols",
              "type": "uint256"
            },
            {
              "internalType": "uint256",
              "name": "numMine",
              "type": "uint256"
            },
            {
              "internalType": "uint256",
              "name": "baseScore",
              "type": "uint256"
            },
            {
              "internalType": "uint256",
              "name": "totalMove",
              "type": "uint256"
            },
            {
              "internalType": "uint256",
              "name": "maxTime",
              "type": "uint256"
            },
            {
              "internalType": "uint256",
              "name": "minMoves",
              "type": "uint256"
            }
          ],
          "internalType": "struct GameData.GameLevel",
          "name": "gameLevel",
          "type": "tuple"
        },
        {
          "internalType": "uint256",
          "name": "num_moves",
          "type": "uint256"
        },
        {
          "internalType": "uint256",
          "name": "elapsed_time",
          "type": "uint256"
        }
      ],
      "name": "calculateScore",
      "outputs": [
        {
          "internalType": "uint256",
          "name": "score",
          "type": "uint256"
        }
      ],
      "stateMutability": "nonpayable",
      "type": "function"
    },
    {
      "inputs": [
        {
          "internalType": "address",
          "name": "newAdm",
          "type": "address"
        }
      ],
      "name": "changeAdmin",
      "outputs": [],
      "stateMutability": "nonpayable",
      "type": "function"
    },
    {
      "inputs": [
        {
          "internalType": "address",
          "name": "newAddr",
          "type": "address"
        }
      ],
      "name": "changeERC20Token",
      "outputs": [],
      "stateMutability": "nonpayable",
      "type": "function"
    },
    {
      "inputs": [
        {
          "internalType": "address",
          "name": "newAddr",
          "type": "address"
        }
      ],
      "name": "changeParam",
      "outputs": [],
      "stateMutability": "nonpayable",
      "type": "function"
    },
    {
      "inputs": [
        {
          "internalType": "uint256",
          "name": "gameId",
          "type": "uint256"
        },
        {
          "internalType": "uint256",
          "name": "i",
          "type": "uint256"
        },
        {
          "internalType": "uint256",
          "name": "j",
          "type": "uint256"
        }
      ],
      "name": "getGameState",
      "outputs": [
        {
          "components": [
            {
              "internalType": "bool",
              "name": "_isMine",
              "type": "bool"
            },
            {
              "internalType": "uint8",
              "name": "_adjacentMines",
              "type": "uint8"
            },
            {
              "internalType": "bool",
              "name": "_isRevealed",
              "type": "bool"
            },
            {
              "internalType": "bool",
              "name": "_isFlagged",
              "type": "bool"
            }
          ],
          "internalType": "struct GameData.BoardStateCell",
          "name": "",
          "type": "tuple"
        }
      ],
      "stateMutability": "view",
      "type": "function"
    },
    {
      "inputs": [
        {
          "internalType": "address",
          "name": "admin",
          "type": "address"
        },
        {
          "internalType": "address",
          "name": "paramAddress",
          "type": "address"
        },
        {
          "internalType": "address",
          "name": "erc20Token",
          "type": "address"
        }
      ],
      "name": "initialize",
      "outputs": [],
      "stateMutability": "nonpayable",
      "type": "function"
    },
    {
      "inputs": [],
      "name": "owner",
      "outputs": [
        {
          "internalType": "address",
          "name": "",
          "type": "address"
        }
      ],
      "stateMutability": "view",
      "type": "function"
    },
    {
      "inputs": [],
      "name": "renounceOwnership",
      "outputs": [],
      "stateMutability": "nonpayable",
      "type": "function"
    },
    {
      "inputs": [
        {
          "internalType": "address",
          "name": "newOwner",
          "type": "address"
        }
      ],
      "name": "transferOwnership",
      "outputs": [],
      "stateMutability": "nonpayable",
      "type": "function"
    }
  ],
  "bytecode": "0x608060405234801561001057600080fd5b50612525806100206000396000f3fe608060405234801561001057600080fd5b50600436106101215760003560e01c80638da5cb5b116100ad578063adfc7dae11610071578063adfc7dae1461032d578063c0c53b8b14610340578063ced5447b14610353578063efb54029146103a5578063f2fde38b146103b857600080fd5b80638da5cb5b146102d05780638f283970146102e1578063a1c18b43146102f4578063a953e1f314610307578063adb61f431461031a57600080fd5b8063695b3e6c116100f4578063695b3e6c14610278578063715018a61461028b578063741149b1146102935780637702e006146102a65780637b321348146102bd57600080fd5b806301bc45c9146101265780631426150c146101565780633b45c8c1146101a557806341eb8b8b146101ba575b600080fd5b609754610139906001600160a01b031681565b6040516001600160a01b0390911681526020015b60405180910390f35b610169610164366004611e5c565b6103cb565b60405161014d919081511515815260208083015160ff169082015260408083015115159082015260609182015115159181019190915260800190565b6101b86101b336600461209b565b610474565b005b6102656101c8366004612114565b609a6020908152600091825260409182902080546001820154600283015460038401546004850154610105860154885160e081018a5261010688015481526101078801549881019890985261010887015498880198909852610109860154606088015261010a860154608088015261010b86015460a088015261010c9095015460c08701526001600160a01b0390931695919490939160ff169087565b60405161014d9796959493929190612165565b6101b861028636600461220a565b610a70565b6101b8610b01565b6101b86102a136600461220a565b610b15565b6102af609b5481565b60405190815260200161014d565b6101b86102cb366004612114565b610ba7565b6065546001600160a01b0316610139565b6101b86102ef36600461220a565b610ca7565b6101b8610302366004612225565b610d39565b6101b8610315366004612272565b61106a565b6102af6103283660046122b9565b611473565b609854610139906001600160a01b031681565b6101b861034e366004612341565b6114f5565b610386610361366004612114565b609d60205260009081526040902080546001909101546001600160a01b039091169082565b604080516001600160a01b03909316835260208301919091520161014d565b609954610139906001600160a01b031681565b6101b86103c636600461220a565b611653565b6040805160808101825260008082526020820181905291810182905260608101919091526000848152609a60205260409020600501836010811061041157610411612384565b60100201826010811061042657610426612384565b60408051608081018252929091015460ff80821615158452610100820481166020850152620100008204811615159284019290925263010000009004161515606082015290505b9392505050565b6000858152609a6020908152604080832081516101008101835281546001600160a01b031681526001820154938101939093526002810154838301526003810154606084015260048101546080840152815161020081019092529060a083019060058301601086835b8282101561056e5760408051610200810190915260108084028601906000835b8282101561055b57604080516080810182528386015460ff80821615158352610100820481166020808501919091526201000083048216151594840194909452630100000090910416151560608201528252600190920191016104fd565b50505050815260200190600101906104dd565b5050509082525061010582015460209091019060ff1660038111156105955761059561212d565b60038111156105a6576105a661212d565b81526040805160e081018252610106840154815261010784015460208281019190915261010885015492820192909252610109840154606082015261010a840154608082015261010b84015460a082015261010c9093015460c0840152015280519091506001600160a01b0316331461064b5760405162461bcd60e51b81526020600482015260026024820152614d3160f01b60448201526064015b60405180910390fd5b60008160c0015160038111156106635761066361212d565b146106995760405162461bcd60e51b8152600401610642906020808252600490820152634d315f3160e01b604082015260600190565b60008160400151116106d65760405162461bcd60e51b8152600401610642906020808252600490820152632698af9960e11b604082015260600190565b60e081015160005b81518110156108c65760005b82602001518110156108b35784828151811061070857610708612384565b6020026020010151818151811061072157610721612384565b602002602001015160200151609a60008b8152602001908152602001600020600501836010811061075457610754612384565b60100201826010811061076957610769612384565b0160000160016101000a81548160ff021916908360ff16021790555084828151811061079757610797612384565b602002602001015181815181106107b0576107b0612384565b602002602001015160600151609a60008b815260200190815260200160002060050183601081106107e3576107e3612384565b6010020182601081106107f8576107f8612384565b01805491151563010000000263ff00000019909216919091179055845185908390811061082757610827612384565b6020026020010151818151811061084057610840612384565b602002602001015160400151609a60008b8152602001908152602001600020600501836010811061087357610873612384565b60100201826010811061088857610888612384565b018054911515620100000262ff000019909216919091179055806108ab816123b0565b9150506106ea565b50806108be816123b0565b9150506106de565b506000878152609a602052604081204360038201556004018054916108ea836123b0565b9190505550600080610904898960ff168960ff16896116c9565b60008b8152609a60205260409020610105018054929450909250839160ff191660018360038111156109385761093861212d565b0217905550600160008a8152609a60205260409020610105015460ff1660038111156109665761096661212d565b14156109c55760408301518351602085015161098291906123cb565b61098c91906123ea565b8110156109c05760405162461bcd60e51b81526020600482015260026024820152614d3360f01b6044820152606401610642565b610a15565b6000898152609a60205260409020869060050160ff8a16601081106109ec576109ec612384565b601002018860ff1660108110610a0457610a04612384565b01805460ff19169115159190911790555b6000898152609a602052604090819020610105015490517f46df92debef97f04ee6c5a1f6f8c7771e4b5ebb9e31fee6343acab444254b89791610a5d918c9160ff1690612401565b60405180910390a1505050505050505050565b6097546001600160a01b031633148015610a9257506001600160a01b03811615155b6040518060400160405280600381526020016231303160e81b81525090610acc5760405162461bcd60e51b81526004016106429190612415565b506099546001600160a01b03828116911614610afe57609980546001600160a01b0319166001600160a01b0383161790555b50565b610b09611a05565b610b136000611a5f565b565b6097546001600160a01b031633148015610b3757506001600160a01b03811615155b6040518060400160405280600381526020016231303160e81b81525090610b715760405162461bcd60e51b81526004016106429190612415565b506098546001600160a01b03828116911614610afe57609880546001600160a01b0383166001600160a01b031990911617905550565b609b8054906000610bb7836123b0565b91905055506000610bc782611ab1565b609b80546000908152609a602090815260408083208551610106820155858301516101078201558582015161010882018190556060870151610109830155608087015161010a83015560a087015161010b83015560c087015161010c9092019190915584548452818420600101558354835280832080546001600160a01b031916331790558354835280832043600290910155835483529182902061010501805460ff19169055915490519081529192507f573ea33a91eac4576b61be89d3fd90d43dbb1291f4a63fdebe07b9f292891320910160405180910390a15050565b6097546001600160a01b031633148015610cc957506001600160a01b03811615155b6040518060400160405280600381526020016231303160e81b81525090610d035760405162461bcd60e51b81526004016106429190612415565b506097546001600160a01b03828116911614610afe57609780546001600160a01b0383166001600160a01b031990911617905550565b6000848152609a6020908152604080832081516101008101835281546001600160a01b031681526001820154938101939093526002810154838301526003810154606084015260048101546080840152815161020081019092529060a083019060058301601086835b82821015610e335760408051610200810190915260108084028601906000835b82821015610e2057604080516080810182528386015460ff8082161515835261010082048116602080850191909152620100008304821615159484019490945263010000009091041615156060820152825260019092019101610dc2565b5050505081526020019060010190610da2565b5050509082525061010582015460209091019060ff166003811115610e5a57610e5a61212d565b6003811115610e6b57610e6b61212d565b81526040805160e081018252610106840154815261010784015460208281019190915261010885015492820192909252610109840154606082015261010a840154608082015261010b84015460a082015261010c9093015460c0840152015280519091506001600160a01b03163314610f0b5760405162461bcd60e51b81526020600482015260026024820152614d3160f01b6044820152606401610642565b60008160c001516003811115610f2357610f2361212d565b14610f595760405162461bcd60e51b8152600401610642906020808252600490820152634d315f3160e01b604082015260600190565b6000816040015111610f965760405162461bcd60e51b8152600401610642906020808252600490820152632698af9960e11b604082015260600190565b6000858152609a60205260409020829060050160ff861660108110610fbd57610fbd612384565b601002018460ff1660108110610fd557610fd5612384565b01805491151563010000000263ff000000199092169190911790556000858152609a60205260408120436003820155600401805491611013836123b0565b90915550506040805186815260ff8681166020830152851681830152831515606082015290517f010589e52f5c2bfec6e0c37f6b05dd7ad667fb6c341f765abd1072b07b7909ca9181900360800190a15050505050565b60016000838152609a60205260409020610105015460ff1660038111156110935761109361212d565b146110c95760405162461bcd60e51b8152600401610642906020808252600490820152634d342e3160e01b604082015260600190565b6000828152609a6020908152604080832081516101008101835281546001600160a01b031681526001820154938101939093526002810154838301526003810154606084015260048101546080840152815161020081019092529060a083019060058301601086835b828210156111c35760408051610200810190915260108084028601906000835b828210156111b057604080516080810182528386015460ff8082161515835261010082048116602080850191909152620100008304821615159484019490945263010000009091041615156060820152825260019092019101611152565b5050505081526020019060010190611132565b5050509082525061010582015460209091019060ff1660038111156111ea576111ea61212d565b60038111156111fb576111fb61212d565b81526040805160e08082018352610106850154825261010785015460208381019190915261010886015483850152610109860154606084015261010a860154608084015261010b86015460a084015261010c9095015460c08084019190915293850191909152840151918201516000888152609a9094529220600401549293509110156112b35760405162461bcd60e51b815260040161064290602080825260049082015263269a171960e11b604082015260600190565b6000805b825181101561137c5760005b8360200151811015611369578460a0015182601081106112e5576112e5612384565b602002015181601081106112fb576112fb612384565b602002015160400151158015611344575085828151811061131e5761131e612384565b6020026020010151818151811061133757611337612384565b6020026020010151600001515b156113575782611353816123b0565b9350505b80611361816123b0565b9150506112c3565b5080611374816123b0565b9150506112b7565b50816040015181146113b55760405162461bcd60e51b8152602060048201526002602482015261134d60f21b6044820152606401610642565b6000858152609a6020526040812060028101546003909101546113d891906123ea565b6000878152609a60208181526040808420815160e08101835261010682015481526101078201548185015261010882015492810192909252610109810154606083015261010a810154608083015261010b81015460a083015261010c81015460c08301528b8552929091526004909101549293509091611459919084611473565b9050611469856000015182611c01565b5050505050505050565b608083015160009081908410156114a4578385608001516101f461149791906123cb565b6114a1919061246a565b90505b60008560a001518410156114d257838660a001516101f46114c591906123cb565b6114cf919061246a565b90505b6114dc818361248c565b86606001516114eb91906123cb565b9695505050505050565b600054610100900460ff16158080156115155750600054600160ff909116105b8061152f5750303b15801561152f575060005460ff166001145b6115925760405162461bcd60e51b815260206004820152602e60248201527f496e697469616c697a61626c653a20636f6e747261637420697320616c72656160448201526d191e481a5b9a5d1a585b1a5e995960921b6064820152608401610642565b6000805460ff1916600117905580156115b5576000805461ff0019166101001790555b600a609c55609780546001600160a01b038087166001600160a01b0319928316179092556098805486841690831617905560998054928516929091169190911790556115ff611da1565b611607611dd0565b801561164d576000805461ff0019169055604051600181527f7f26b83ff96e1f2b6a682f133852f6798a09c465da95921460cefb38474024989060200160405180910390a15b50505050565b61165b611a05565b6001600160a01b0381166116c05760405162461bcd60e51b815260206004820152602660248201527f4f776e61626c653a206e6577206f776e657220697320746865207a65726f206160448201526564647265737360d01b6064820152608401610642565b610afe81611a5f565b6000848152609a6020908152604080832081516101008101835281546001600160a01b031681526001820154938101939093526002810154838301526003810154606084015260048101546080840152815161020081019092528392839290919060a083019060058301601086835b828210156117c95760408051610200810190915260108084028601906000835b828210156117b657604080516080810182528386015460ff8082161515835261010082048116602080850191909152620100008304821615159484019490945263010000009091041615156060820152825260019092019101611758565b5050505081526020019060010190611738565b5050509082525061010582015460209091019060ff1660038111156117f0576117f061212d565b60038111156118015761180161212d565b815260200161010682016040518060e001604052908160008201548152602001600182015481526020016002820154815260200160038201548152602001600482015481526020016005820154815260200160068201548152505081525050905060008160a00151905060008260e001519050600080945060005b82518110156119dc5760005b83602001518110156119c95760008c8152609a6020526040902060050182601081106118b6576118b6612384565b6010020181601081106118cb576118cb612384565b015462010000900460ff16156118e957866118e5816123b0565b9750505b60008c8152609a60205260409020600501826010811061190b5761190b612384565b60100201816010811061192057611920612384565b015462010000900460ff16801561193657508a82145b801561194157508981145b801561194a5750885b15611963575060029650600095506119fc945050505050565b60008c8152609a60205260409020600501826010811061198557611985612384565b60100201816010811061199a5761199a612384565b015462010000900460ff166119b757826119b3816123b0565b9350505b806119c1816123b0565b915050611888565b50806119d4816123b0565b91505061187c565b5081604001518114156119f257600195506119f7565b600095505b505050505b94509492505050565b6065546001600160a01b03163314610b135760405162461bcd60e51b815260206004820181905260248201527f4f776e61626c653a2063616c6c6572206973206e6f7420746865206f776e65726044820152606401610642565b606580546001600160a01b038381166001600160a01b0319831681179093556040519116919082907f8be0079c531659141344cd1fd0a4f28419497f9722a3daafe3b4186f6b6457e090600090a35050565b611af16040518060e00160405280600081526020016000815260200160008152602001600081526020016000815260200160008152602001600081525090565b811580611afe5750816001145b80611b095750816002145b80611b145750816003145b611b1d57600080fd5b81611b555760088082526020820152600a6040820152603660808201526101f460a082015260016060820152600760c0820152919050565b8160011415611b9157600a8082526020820152600f60408201526055608082015261030c60a082015260026060820152600760c0820152919050565b8160021415611bcd57600c8082526020820152601e60408201526072608082015261046560a082015260036060820152600760c0820152919050565b601080825260208201526050604082015260b060808201526106a460a082015260046060820152600760c08201525b919050565b600081609d60006001609c54611c1791906123ea565b81526020019081526020016000206001015410611c3657506000611d9b565b60005b609c54811015611d95576000818152609d6020526040902060010154831115611d83576000818152609d60209081526040808320815180830190925280546001600160a01b03168252600190810154928201929092529190611c9c90849061248c565b90505b609c54611cad90600161248c565b811015611d1d576000818152609d60208181526040808420815180830190925280546001600160a01b038082168452600183018054858701529688905294845287516001600160a01b03199091169416939093179092559390930151905580611d15816123b0565b915050611c9f565b50506040805180820182526001600160a01b03808716825260208083018781526000958652609d9091528385209251835492166001600160a01b031992831617835551600192830155609c54845291832080549092168255908101919091559050611d9b565b80611d8d816123b0565b915050611c39565b50600090505b92915050565b600054610100900460ff16611dc85760405162461bcd60e51b8152600401610642906124a4565b610b13611dff565b600054610100900460ff16611df75760405162461bcd60e51b8152600401610642906124a4565b610b13611e2c565b600054610100900460ff16611e265760405162461bcd60e51b8152600401610642906124a4565b60018055565b600054610100900460ff16611e535760405162461bcd60e51b8152600401610642906124a4565b610b1333611a5f565b600080600060608486031215611e7157600080fd5b505081359360208301359350604090920135919050565b803560ff81168114611bfc57600080fd5b80358015158114611bfc57600080fd5b634e487b7160e01b600052604160045260246000fd5b6040516080810167ffffffffffffffff81118282101715611ee257611ee2611ea9565b60405290565b60405160e0810167ffffffffffffffff81118282101715611ee257611ee2611ea9565b604051601f8201601f1916810167ffffffffffffffff81118282101715611f3457611f34611ea9565b604052919050565b600067ffffffffffffffff821115611f5657611f56611ea9565b5060051b60200190565b600082601f830112611f7157600080fd5b81356020611f86611f8183611f3c565b611f0b565b82815260059290921b84018101918181019086841115611fa557600080fd5b8286015b8481101561209057803567ffffffffffffffff811115611fc95760008081fd5b8701603f81018913611fdb5760008081fd5b848101356040611fed611f8183611f3c565b82815260079290921b8301810191878101908c84111561200d5760008081fd5b938201935b8385101561207f576080858e03121561202b5760008081fd5b612033611ebf565b61203c86611e99565b81526120498a8701611e88565b8a820152612058848701611e99565b848201526060612069818801611e99565b9082015282526080949094019390880190612012565b875250505092840192508301611fa9565b509695505050505050565b600080600080600060a086880312156120b357600080fd5b853594506120c360208701611e88565b93506120d160408701611e88565b92506120df60608701611e99565b9150608086013567ffffffffffffffff8111156120fb57600080fd5b61210788828901611f60565b9150509295509295909350565b60006020828403121561212657600080fd5b5035919050565b634e487b7160e01b600052602160045260246000fd5b6004811061216157634e487b7160e01b600052602160045260246000fd5b9052565b6001600160a01b0388168152602081018790526040810186905260608101859052608081018490526101a0810161219f60a0830185612143565b825160c0830152602083015160e083015260408301516101008301526060830151610120830152608083015161014083015260a083015161016083015260c083015161018083015298975050505050505050565b80356001600160a01b0381168114611bfc57600080fd5b60006020828403121561221c57600080fd5b61046d826121f3565b6000806000806080858703121561223b57600080fd5b8435935061224b60208601611e88565b925061225960408601611e88565b915061226760608601611e99565b905092959194509250565b6000806040838503121561228557600080fd5b82359150602083013567ffffffffffffffff8111156122a357600080fd5b6122af85828601611f60565b9150509250929050565b60008060008385036101208112156122d057600080fd5b60e08112156122de57600080fd5b506122e7611ee8565b843581526020850135602082015260408501356040820152606085013560608201526080850135608082015260a085013560a082015260c085013560c08201528093505060e0840135915061010084013590509250925092565b60008060006060848603121561235657600080fd5b61235f846121f3565b925061236d602085016121f3565b915061237b604085016121f3565b90509250925092565b634e487b7160e01b600052603260045260246000fd5b634e487b7160e01b600052601160045260246000fd5b60006000198214156123c4576123c461239a565b5060010190565b60008160001904831182151516156123e5576123e561239a565b500290565b6000828210156123fc576123fc61239a565b500390565b8281526040810161046d6020830184612143565b600060208083528351808285015260005b8181101561244257858101830151858201604001528201612426565b81811115612454576000604083870101525b50601f01601f1916929092016040019392505050565b60008261248757634e487b7160e01b600052601260045260246000fd5b500490565b6000821982111561249f5761249f61239a565b500190565b6020808252602b908201527f496e697469616c697a61626c653a20636f6e7472616374206973206e6f74206960408201526a6e697469616c697a696e6760a81b60608201526080019056fea26469706673582212207ace6b44536debeef676533392118c2ae75b9d9aad31185c9736419f11c7481464736f6c634300080c0033",
  "linkReferences": {},
  "deployedLinkReferences": {}
}