{
  "_format": "hh-sol-artifact-1",
  "contractName": "Minesweeper",
  "sourceName": "contracts/Minesweeper.sol",
  "abi": [
    {
      "anonymous": false,
      "inputs": [
        {
          "indexed": false,
          "internalType": "uint8",
          "name": "version",
          "type": "uint8"
        }
      ],
      "name": "Initialized",
      "type": "event"
    },
    {
      "anonymous": false,
      "inputs": [
        {
          "indexed": true,
          "internalType": "address",
          "name": "previousOwner",
          "type": "address"
        },
        {
          "indexed": true,
          "internalType": "address",
          "name": "newOwner",
          "type": "address"
        }
      ],
      "name": "OwnershipTransferred",
      "type": "event"
    },
    {
      "inputs": [
        {
          "internalType": "uint256",
          "name": "gameId",
          "type": "uint256"
        },
        {
          "components": [
            {
              "internalType": "bool",
              "name": "_isMine",
              "type": "bool"
            },
            {
              "internalType": "uint8",
              "name": "_adjacentMines",
              "type": "uint8"
            },
            {
              "internalType": "bool",
              "name": "_isRevealed",
              "type": "bool"
            },
            {
              "internalType": "bool",
              "name": "_isFlagged",
              "type": "bool"
            }
          ],
          "internalType": "struct GameData.BoardStateCell[][]",
          "name": "finalBoardState",
          "type": "tuple[][]"
        }
      ],
      "name": "CheckFinish",
      "outputs": [],
      "stateMutability": "nonpayable",
      "type": "function"
    },
    {
      "inputs": [
        {
          "components": [
            {
              "internalType": "address",
              "name": "player",
              "type": "address"
            },
            {
              "internalType": "uint256",
              "name": "playerNonce",
              "type": "uint256"
            },
            {
              "internalType": "bytes",
              "name": "playerSig",
              "type": "bytes"
            }
          ],
          "internalType": "struct GameData.PlayerSig",
          "name": "playerSigData",
          "type": "tuple"
        },
        {
          "internalType": "uint256",
          "name": "gameId",
          "type": "uint256"
        },
        {
          "components": [
            {
              "internalType": "uint256",
              "name": "gameId",
              "type": "uint256"
            },
            {
              "internalType": "uint8",
              "name": "row",
              "type": "uint8"
            },
            {
              "internalType": "uint8",
              "name": "col",
              "type": "uint8"
            },
            {
              "internalType": "bool",
              "name": "isMined",
              "type": "bool"
            }
          ],
          "internalType": "struct GameData.Move",
          "name": "move",
          "type": "tuple"
        }
      ],
      "name": "Flag",
      "outputs": [],
      "stateMutability": "nonpayable",
      "type": "function"
    },
    {
      "inputs": [
        {
          "components": [
            {
              "internalType": "address",
              "name": "player",
              "type": "address"
            },
            {
              "internalType": "uint256",
              "name": "playerNonce",
              "type": "uint256"
            },
            {
              "internalType": "bytes",
              "name": "playerSig",
              "type": "bytes"
            }
          ],
          "internalType": "struct GameData.PlayerSig",
          "name": "playerSigData",
          "type": "tuple"
        },
        {
          "internalType": "uint256",
          "name": "level",
          "type": "uint256"
        }
      ],
      "name": "InitGame",
      "outputs": [],
      "stateMutability": "nonpayable",
      "type": "function"
    },
    {
      "inputs": [
        {
          "components": [
            {
              "internalType": "address",
              "name": "player",
              "type": "address"
            },
            {
              "internalType": "uint256",
              "name": "playerNonce",
              "type": "uint256"
            },
            {
              "internalType": "bytes",
              "name": "playerSig",
              "type": "bytes"
            }
          ],
          "internalType": "struct GameData.PlayerSig",
          "name": "playerSigData",
          "type": "tuple"
        },
        {
          "components": [
            {
              "internalType": "uint256",
              "name": "gameId",
              "type": "uint256"
            },
            {
              "internalType": "uint8",
              "name": "row",
              "type": "uint8"
            },
            {
              "internalType": "uint8",
              "name": "col",
              "type": "uint8"
            },
            {
              "internalType": "bool",
              "name": "isMined",
              "type": "bool"
            }
          ],
          "internalType": "struct GameData.Move",
          "name": "move",
          "type": "tuple"
        },
        {
          "components": [
            {
              "internalType": "uint8",
              "name": "_adjacentMines",
              "type": "uint8"
            },
            {
              "internalType": "bool",
              "name": "_isRevealed",
              "type": "bool"
            }
          ],
          "internalType": "struct GameData.BoardStateCellMove[][]",
          "name": "nextBoardState",
          "type": "tuple[][]"
        }
      ],
      "name": "Move",
      "outputs": [],
      "stateMutability": "nonpayable",
      "type": "function"
    },
    {
      "inputs": [],
      "name": "_admin",
      "outputs": [
        {
          "internalType": "address",
          "name": "",
          "type": "address"
        }
      ],
      "stateMutability": "view",
      "type": "function"
    },
    {
      "inputs": [],
      "name": "_currentGameId",
      "outputs": [
        {
          "internalType": "uint256",
          "name": "",
          "type": "uint256"
        }
      ],
      "stateMutability": "view",
      "type": "function"
    },
    {
      "inputs": [],
      "name": "_erc20Token",
      "outputs": [
        {
          "internalType": "address",
          "name": "",
          "type": "address"
        }
      ],
      "stateMutability": "view",
      "type": "function"
    },
    {
      "inputs": [
        {
          "internalType": "uint256",
          "name": "",
          "type": "uint256"
        }
      ],
      "name": "_games",
      "outputs": [
        {
          "internalType": "address",
          "name": "_player",
          "type": "address"
        },
        {
          "internalType": "uint256",
          "name": "_numberMines",
          "type": "uint256"
        },
        {
          "internalType": "uint256",
          "name": "_start",
          "type": "uint256"
        },
        {
          "internalType": "uint256",
          "name": "_lastMove",
          "type": "uint256"
        },
        {
          "internalType": "uint256",
          "name": "_countMove",
          "type": "uint256"
        },
        {
          "internalType": "enum GameData.GameResult",
          "name": "_result",
          "type": "uint8"
        },
        {
          "components": [
            {
              "internalType": "uint256",
              "name": "rows",
              "type": "uint256"
            },
            {
              "internalType": "uint256",
              "name": "cols",
              "type": "uint256"
            },
            {
              "internalType": "uint256",
              "name": "numMine",
              "type": "uint256"
            },
            {
              "internalType": "uint256",
              "name": "baseScore",
              "type": "uint256"
            },
            {
              "internalType": "uint256",
              "name": "totalMove",
              "type": "uint256"
            },
            {
              "internalType": "uint256",
              "name": "maxTime",
              "type": "uint256"
            },
            {
              "internalType": "uint256",
              "name": "minMoves",
              "type": "uint256"
            }
          ],
          "internalType": "struct GameData.GameLevel",
          "name": "_level",
          "type": "tuple"
        }
      ],
      "stateMutability": "view",
      "type": "function"
    },
    {
      "inputs": [
        {
          "internalType": "uint256",
          "name": "",
          "type": "uint256"
        }
      ],
      "name": "_leaderboard",
      "outputs": [
        {
          "internalType": "address",
          "name": "player",
          "type": "address"
        },
        {
          "internalType": "uint256",
          "name": "score",
          "type": "uint256"
        }
      ],
      "stateMutability": "view",
      "type": "function"
    },
    {
      "inputs": [],
      "name": "_paramsAddress",
      "outputs": [
        {
          "internalType": "address",
          "name": "",
          "type": "address"
        }
      ],
      "stateMutability": "view",
      "type": "function"
    },
    {
      "inputs": [
        {
          "components": [
            {
              "internalType": "uint256",
              "name": "rows",
              "type": "uint256"
            },
            {
              "internalType": "uint256",
              "name": "cols",
              "type": "uint256"
            },
            {
              "internalType": "uint256",
              "name": "numMine",
              "type": "uint256"
            },
            {
              "internalType": "uint256",
              "name": "baseScore",
              "type": "uint256"
            },
            {
              "internalType": "uint256",
              "name": "totalMove",
              "type": "uint256"
            },
            {
              "internalType": "uint256",
              "name": "maxTime",
              "type": "uint256"
            },
            {
              "internalType": "uint256",
              "name": "minMoves",
              "type": "uint256"
            }
          ],
          "internalType": "struct GameData.GameLevel",
          "name": "gameLevel",
          "type": "tuple"
        },
        {
          "internalType": "uint256",
          "name": "num_moves",
          "type": "uint256"
        },
        {
          "internalType": "uint256",
          "name": "elapsed_time",
          "type": "uint256"
        }
      ],
      "name": "calculateScore",
      "outputs": [
        {
          "internalType": "uint256",
          "name": "score",
          "type": "uint256"
        }
      ],
      "stateMutability": "nonpayable",
      "type": "function"
    },
    {
      "inputs": [
        {
          "internalType": "address",
          "name": "newAdm",
          "type": "address"
        }
      ],
      "name": "changeAdmin",
      "outputs": [],
      "stateMutability": "nonpayable",
      "type": "function"
    },
    {
      "inputs": [
        {
          "internalType": "address",
          "name": "newAddr",
          "type": "address"
        }
      ],
      "name": "changeERC20Token",
      "outputs": [],
      "stateMutability": "nonpayable",
      "type": "function"
    },
    {
      "inputs": [
        {
          "internalType": "address",
          "name": "newAddr",
          "type": "address"
        }
      ],
      "name": "changeParam",
      "outputs": [],
      "stateMutability": "nonpayable",
      "type": "function"
    },
    {
      "inputs": [
        {
          "internalType": "uint256",
          "name": "gameId",
          "type": "uint256"
        },
        {
          "internalType": "uint256",
          "name": "i",
          "type": "uint256"
        },
        {
          "internalType": "uint256",
          "name": "j",
          "type": "uint256"
        }
      ],
      "name": "getGameState",
      "outputs": [
        {
          "components": [
            {
              "internalType": "bool",
              "name": "_isMine",
              "type": "bool"
            },
            {
              "internalType": "uint8",
              "name": "_adjacentMines",
              "type": "uint8"
            },
            {
              "internalType": "bool",
              "name": "_isRevealed",
              "type": "bool"
            },
            {
              "internalType": "bool",
              "name": "_isFlagged",
              "type": "bool"
            }
          ],
          "internalType": "struct GameData.BoardStateCell",
          "name": "",
          "type": "tuple"
        }
      ],
      "stateMutability": "view",
      "type": "function"
    },
    {
      "inputs": [
        {
          "internalType": "address",
          "name": "admin",
          "type": "address"
        },
        {
          "internalType": "address",
          "name": "paramAddress",
          "type": "address"
        },
        {
          "internalType": "address",
          "name": "erc20Token",
          "type": "address"
        }
      ],
      "name": "initialize",
      "outputs": [],
      "stateMutability": "nonpayable",
      "type": "function"
    },
    {
      "inputs": [],
      "name": "owner",
      "outputs": [
        {
          "internalType": "address",
          "name": "",
          "type": "address"
        }
      ],
      "stateMutability": "view",
      "type": "function"
    },
    {
      "inputs": [],
      "name": "renounceOwnership",
      "outputs": [],
      "stateMutability": "nonpayable",
      "type": "function"
    },
    {
      "inputs": [
        {
          "internalType": "address",
          "name": "newOwner",
          "type": "address"
        }
      ],
      "name": "transferOwnership",
      "outputs": [],
      "stateMutability": "nonpayable",
      "type": "function"
    }
  ],
  "bytecode": "0x608060405234801561001057600080fd5b50612f73806100206000396000f3fe608060405234801561001057600080fd5b50600436106101215760003560e01c80638da5cb5b116100ad578063c0c53b8b11610071578063c0c53b8b1461032d578063ced5447b14610340578063efb5402914610392578063f2fde38b146103a5578063fbc3e3a1146103b857600080fd5b80638da5cb5b146102d05780638f283970146102e1578063a953e1f3146102f4578063adb61f4314610307578063adfc7dae1461031a57600080fd5b8063695b3e6c116100f4578063695b3e6c14610278578063715018a61461028b578063741149b1146102935780637702e006146102a65780637b3edecb146102bd57600080fd5b806301bc45c9146101265780631426150c146101565780631a5e7213146101a557806341eb8b8b146101ba575b600080fd5b609754610139906001600160a01b031681565b6040516001600160a01b0390911681526020015b60405180910390f35b6101696101643660046125ef565b6103cb565b60405161014d919081511515815260208083015160ff169082015260408083015115159082015260609182015115159181019190915260800190565b6101b86101b3366004612839565b610474565b005b6102656101c8366004612890565b609a6020908152600091825260409182902080546001820154600283015460038401546004850154610105860154885160e081018a5261010688015481526101078801549881019890985261010887015498880198909852610109860154606088015261010a860154608088015261010b86015460a088015261010c9095015460c08701526001600160a01b0390931695919490939160ff169087565b60405161014d97969594939291906128e1565b6101b861028636600461296f565b610972565b6101b8610a03565b6101b86102a136600461296f565b610a17565b6102af609b5481565b60405190815260200161014d565b6101b86102cb36600461298a565b610aa9565b6065546001600160a01b0316610139565b6101b86102ef36600461296f565b610d40565b6101b86103023660046129f1565b610dd2565b6102af610315366004612b64565b61122e565b609854610139906001600160a01b031681565b6101b861033b366004612bec565b6112b0565b61037361034e366004612890565b609d60205260009081526040902080546001909101546001600160a01b039091169082565b604080516001600160a01b03909316835260208301919091520161014d565b609954610139906001600160a01b031681565b6101b86103b336600461296f565b61140a565b6101b86103c6366004612c26565b611480565b6040805160808101825260008082526020820181905291810182905260608101919091526000848152609a60205260409020600501836010811061041157610411612da8565b60100201826010811061042657610426612da8565b60408051608081018252929091015460ff80821615158452610100820481166020850152620100008204811615159284019290925263010000009004161515606082015290505b9392505050565b82806040015151600014156104d757805160408051808201909152600381526203130360ec1b6020820152906001600160a01b031633146104d15760405162461bcd60e51b81526004016104c89190612dbe565b60405180910390fd5b5061060c565b80516001600160a01b03166000908152609e60209081526040808320828501518452825291829020548251808401909352600383526203130360ec1b9183019190915260ff1661053a5760405162461bcd60e51b81526004016104c89190612dbe565b5080516001600160a01b03166000908152609e6020908152604080832082850180518552908352818420805460ff191660011790558451905191514694936105889330938793909201612e13565b6040516020818303038152906040528051906020012090506105b66105ac82611bb0565b8460400151611be3565b6001600160a01b031683600001516001600160a01b0316146040518060400160405280600381526020016203130360ec1b815250906106085760405162461bcd60e51b81526004016104c89190612dbe565b5050505b81516000908152609a6020908152604080832081516101008101835281546001600160a01b031681526001820154938101939093526002810154838301526003810154606084015260048101546080840152815161020081019092529060a083019060058301601086835b828210156107085760408051610200810190915260108084028601906000835b828210156106f557604080516080810182528386015460ff8082161515835261010082048116602080850191909152620100008304821615159484019490945263010000009091041615156060820152825260019092019101610697565b5050505081526020019060010190610677565b5050509082525061010582015460209091019060ff16600381111561072f5761072f6128a9565b6003811115610740576107406128a9565b81526040805160e081018252610106840154815261010784015460208281019190915261010885015492820192909252610109840154606082015261010a840154608082015261010b84015460a082015261010c9093015460c08401520152855181519192506001600160a01b039182169116146107e55760405162461bcd60e51b81526020600482015260026024820152614d3160f01b60448201526064016104c8565b60008160c0015160038111156107fd576107fd6128a9565b146108335760405162461bcd60e51b81526004016104c8906020808252600490820152634d315f3160e01b604082015260600190565b60008160400151116108705760405162461bcd60e51b81526004016104c8906020808252600490820152632698af9960e11b604082015260600190565b8260600151609a6000868152602001908152602001600020600501846020015160ff16601081106108a3576108a3612da8565b60100201846040015160ff16601081106108bf576108bf612da8565b01805491151563010000000263ff000000199092169190911790556000848152609a602052604081204360038201556004018054916108fd83612e53565b91905055507f010589e52f5c2bfec6e0c37f6b05dd7ad667fb6c341f765abd1072b07b7909ca8360000151846020015185604001518660600151604051610963949392919093845260ff9283166020850152911660408301521515606082015260800190565b60405180910390a15050505050565b6097546001600160a01b03163314801561099457506001600160a01b03811615155b6040518060400160405280600381526020016231303160e81b815250906109ce5760405162461bcd60e51b81526004016104c89190612dbe565b506099546001600160a01b03828116911614610a0057609980546001600160a01b0319166001600160a01b0383161790555b50565b610a0b611c09565b610a156000611c63565b565b6097546001600160a01b031633148015610a3957506001600160a01b03811615155b6040518060400160405280600381526020016231303160e81b81525090610a735760405162461bcd60e51b81526004016104c89190612dbe565b506098546001600160a01b03828116911614610a0057609880546001600160a01b0383166001600160a01b031990911617905550565b8180604001515160001415610b0357805160408051808201909152600381526203130360ec1b6020820152906001600160a01b03163314610afd5760405162461bcd60e51b81526004016104c89190612dbe565b50610c2e565b80516001600160a01b03166000908152609e60209081526040808320828501518452825291829020548251808401909352600383526203130360ec1b9183019190915260ff16610b665760405162461bcd60e51b81526004016104c89190612dbe565b5080516001600160a01b03166000908152609e6020908152604080832082850180518552908352818420805460ff19166001179055845190519151469493610bb49330938793909201612e13565b604051602081830303815290604052805190602001209050610bd86105ac82611bb0565b6001600160a01b031683600001516001600160a01b0316146040518060400160405280600381526020016203130360ec1b81525090610c2a5760405162461bcd60e51b81526004016104c89190612dbe565b5050505b609b8054906000610c3e83612e53565b91905055506000610c4e83611cb5565b609b80546000908152609a602090815260408083208551610106820155858301516101078201558582015161010882018190556060870151610109830155608087015161010a83015560a087015161010b83015560c087015161010c90920191909155845484528184206001015588518454845281842080546001600160a01b0319166001600160a01b039092169190911790558354835280832043600290910155835483529182902061010501805460ff19169055915490519081529192507f573ea33a91eac4576b61be89d3fd90d43dbb1291f4a63fdebe07b9f29289132091015b60405180910390a150505050565b6097546001600160a01b031633148015610d6257506001600160a01b03811615155b6040518060400160405280600381526020016231303160e81b81525090610d9c5760405162461bcd60e51b81526004016104c89190612dbe565b506097546001600160a01b03828116911614610a0057609780546001600160a01b0383166001600160a01b031990911617905550565b60016000838152609a60205260409020610105015460ff166003811115610dfb57610dfb6128a9565b14610e315760405162461bcd60e51b81526004016104c8906020808252600490820152634d342e3160e01b604082015260600190565b6000828152609a6020908152604080832081516101008101835281546001600160a01b031681526001820154938101939093526002810154838301526003810154606084015260048101546080840152815161020081019092529060a083019060058301601086835b82821015610f2b5760408051610200810190915260108084028601906000835b82821015610f1857604080516080810182528386015460ff8082161515835261010082048116602080850191909152620100008304821615159484019490945263010000009091041615156060820152825260019092019101610eba565b5050505081526020019060010190610e9a565b5050509082525061010582015460209091019060ff166003811115610f5257610f526128a9565b6003811115610f6357610f636128a9565b81526040805160e08082018352610106850154825261010785015460208381019190915261010886015483850152610109860154606084015261010a860154608084015261010b86015460a084015261010c9095015460c08084019190915293850191909152840151918201516000888152609a90945292206004015492935091101561101b5760405162461bcd60e51b81526004016104c890602080825260049082015263269a171960e11b604082015260600190565b6000805b82518110156110e45760005b83602001518110156110d1578460a00151826010811061104d5761104d612da8565b6020020151816010811061106357611063612da8565b6020020151604001511580156110ac575085828151811061108657611086612da8565b6020026020010151818151811061109f5761109f612da8565b6020026020010151600001515b156110bf57826110bb81612e53565b9350505b806110c981612e53565b91505061102b565b50806110dc81612e53565b91505061101f565b508160400151811461111d5760405162461bcd60e51b8152602060048201526002602482015261134d60f21b60448201526064016104c8565b6000858152609a6020526040812060028101546003909101546111409190612e6e565b6000878152609a60208181526040808420815160e08101835261010682015481526101078201548185015261010882015492810192909252610109810154606083015261010a810154608083015261010b81015460a083015261010c81015460c08301528b85529290915260049091015492935090916111c191908461122e565b90506111d1856000015182611e05565b506000878152609a60209081526040918290205482516001600160a01b0390911681529081018390527f5c25de3ddee13c72380d0179015a2d5c196a399938fdbdb319d84c93285cb1de910160405180910390a150505050505050565b6080830151600090819084101561125f578385608001516101f46112529190612e85565b61125c9190612ea4565b90505b60008560a0015184101561128d57838660a001516101f46112809190612e85565b61128a9190612ea4565b90505b6112978183612ec6565b86606001516112a69190612e85565b9695505050505050565b600054610100900460ff16158080156112d05750600054600160ff909116105b806112ea5750303b1580156112ea575060005460ff166001145b61134d5760405162461bcd60e51b815260206004820152602e60248201527f496e697469616c697a61626c653a20636f6e747261637420697320616c72656160448201526d191e481a5b9a5d1a585b1a5e995960921b60648201526084016104c8565b6000805460ff191660011790558015611370576000805461ff0019166101001790555b600a609c55609780546001600160a01b038087166001600160a01b0319928316179092556098805486841690831617905560998054928516929091169190911790556113ba611fa3565b6113c2611fd2565b8015611404576000805461ff0019169055604051600181527f7f26b83ff96e1f2b6a682f133852f6798a09c465da95921460cefb384740249890602001610d32565b50505050565b611412611c09565b6001600160a01b0381166114775760405162461bcd60e51b815260206004820152602660248201527f4f776e61626c653a206e6577206f776e657220697320746865207a65726f206160448201526564647265737360d01b60648201526084016104c8565b610a0081611c63565b82806040015151600014156114da57805160408051808201909152600381526203130360ec1b6020820152906001600160a01b031633146114d45760405162461bcd60e51b81526004016104c89190612dbe565b50611605565b80516001600160a01b03166000908152609e60209081526040808320828501518452825291829020548251808401909352600383526203130360ec1b9183019190915260ff1661153d5760405162461bcd60e51b81526004016104c89190612dbe565b5080516001600160a01b03166000908152609e6020908152604080832082850180518552908352818420805460ff1916600117905584519051915146949361158b9330938793909201612e13565b6040516020818303038152906040528051906020012090506115af6105ac82611bb0565b6001600160a01b031683600001516001600160a01b0316146040518060400160405280600381526020016203130360ec1b815250906116015760405162461bcd60e51b81526004016104c89190612dbe565b5050505b82516000908152609a6020908152604080832081516101008101835281546001600160a01b031681526001820154938101939093526002810154838301526003810154606084015260048101546080840152815161020081019092529060a083019060058301601086835b828210156117015760408051610200810190915260108084028601906000835b828210156116ee57604080516080810182528386015460ff8082161515835261010082048116602080850191909152620100008304821615159484019490945263010000009091041615156060820152825260019092019101611690565b5050505081526020019060010190611670565b5050509082525061010582015460209091019060ff166003811115611728576117286128a9565b6003811115611739576117396128a9565b81526040805160e081018252610106840154815261010784015460208281019190915261010885015492820192909252610109840154606082015261010a840154608082015261010b84015460a082015261010c9093015460c08401520152855181519192506001600160a01b039182169116146117de5760405162461bcd60e51b81526020600482015260026024820152614d3160f01b60448201526064016104c8565b60008160c0015160038111156117f6576117f66128a9565b1461182c5760405162461bcd60e51b81526004016104c8906020808252600490820152634d315f3160e01b604082015260600190565b60008160400151116118695760405162461bcd60e51b81526004016104c8906020808252600490820152632698af9960e11b604082015260600190565b60e081015160005b81518110156119d15760005b82602001518110156119be5785828151811061189b5761189b612da8565b602002602001015181815181106118b4576118b4612da8565b602002602001015160000151609a60008960000151815260200190815260200160002060050183601081106118eb576118eb612da8565b60100201826010811061190057611900612da8565b0160000160016101000a81548160ff021916908360ff16021790555085828151811061192e5761192e612da8565b6020026020010151818151811061194757611947612da8565b602002602001015160200151609a600089600001518152602001908152602001600020600501836010811061197e5761197e612da8565b60100201826010811061199357611993612da8565b018054911515620100000262ff000019909216919091179055806119b681612e53565b91505061187d565b50806119c981612e53565b915050611871565b5084516000908152609a6020526040808220436003909101558651825281206004018054916119ff83612e53565b9190505550600080611a298760000151886020015160ff16896040015160ff168a60600151612001565b88516000908152609a60205260409020610105018054929450909250839160ff19166001836003811115611a5f57611a5f6128a9565b0217905550600187516000908152609a60205260409020610105015460ff166003811115611a8f57611a8f6128a9565b1415611aee57604083015183516020850151611aab9190612e85565b611ab59190612e6e565b811015611ae95760405162461bcd60e51b81526020600482015260026024820152614d3360f01b60448201526064016104c8565b611b52565b8660600151609a600089600001518152602001908152602001600020600501886020015160ff1660108110611b2557611b25612da8565b60100201886040015160ff1660108110611b4157611b41612da8565b01805460ff19169115159190911790555b86516000818152609a602052604090819020610105015490517f46df92debef97f04ee6c5a1f6f8c7771e4b5ebb9e31fee6343acab444254b89792611b9e92909160ff90911690612ede565b60405180910390a15050505050505050565b7f19457468657265756d205369676e6564204d6573736167653a0a3332000000006000908152601c91909152603c902090565b6000806000611bf2858561233d565b91509150611bff81612383565b5090505b92915050565b6065546001600160a01b03163314610a155760405162461bcd60e51b815260206004820181905260248201527f4f776e61626c653a2063616c6c6572206973206e6f7420746865206f776e657260448201526064016104c8565b606580546001600160a01b038381166001600160a01b0319831681179093556040519116919082907f8be0079c531659141344cd1fd0a4f28419497f9722a3daafe3b4186f6b6457e090600090a35050565b611cf56040518060e00160405280600081526020016000815260200160008152602001600081526020016000815260200160008152602001600081525090565b811580611d025750816001145b80611d0d5750816002145b80611d185750816003145b611d2157600080fd5b81611d595760088082526020820152600a6040820152603660808201526101f460a082015260016060820152600760c0820152919050565b8160011415611d9557600a8082526020820152600f60408201526055608082015261030c60a082015260026060820152600760c0820152919050565b8160021415611dd157600c8082526020820152601e60408201526072608082015261046560a082015260036060820152600760c0820152919050565b601080825260208201526050604082015260b060808201526106a460a082015260046060820152600760c08201525b919050565b600081609d60006001609c54611e1b9190612e6e565b81526020019081526020016000206001015410611e3a57506000611c03565b60005b609c54811015611f99576000818152609d6020526040902060010154831115611f87576000818152609d60209081526040808320815180830190925280546001600160a01b03168252600190810154928201929092529190611ea0908490612ec6565b90505b609c54611eb1906001612ec6565b811015611f21576000818152609d60208181526040808420815180830190925280546001600160a01b038082168452600183018054858701529688905294845287516001600160a01b03199091169416939093179092559390930151905580611f1981612e53565b915050611ea3565b50506040805180820182526001600160a01b03808716825260208083018781526000958652609d9091528385209251835492166001600160a01b031992831617835551600192830155609c54845291832080549092168255908101919091559050611c03565b80611f9181612e53565b915050611e3d565b5060009392505050565b600054610100900460ff16611fca5760405162461bcd60e51b81526004016104c890612ef2565b610a156124d1565b600054610100900460ff16611ff95760405162461bcd60e51b81526004016104c890612ef2565b610a156124fe565b6000848152609a6020908152604080832081516101008101835281546001600160a01b031681526001820154938101939093526002810154838301526003810154606084015260048101546080840152815161020081019092528392839290919060a083019060058301601086835b828210156121015760408051610200810190915260108084028601906000835b828210156120ee57604080516080810182528386015460ff8082161515835261010082048116602080850191909152620100008304821615159484019490945263010000009091041615156060820152825260019092019101612090565b5050505081526020019060010190612070565b5050509082525061010582015460209091019060ff166003811115612128576121286128a9565b6003811115612139576121396128a9565b815260200161010682016040518060e001604052908160008201548152602001600182015481526020016002820154815260200160038201548152602001600482015481526020016005820154815260200160068201548152505081525050905060008160a00151905060008260e001519050600080945060005b82518110156123145760005b83602001518110156123015760008c8152609a6020526040902060050182601081106121ee576121ee612da8565b60100201816010811061220357612203612da8565b015462010000900460ff1615612221578661221d81612e53565b9750505b60008c8152609a60205260409020600501826010811061224357612243612da8565b60100201816010811061225857612258612da8565b015462010000900460ff16801561226e57508a82145b801561227957508981145b80156122825750885b1561229b57506002965060009550612334945050505050565b60008c8152609a6020526040902060050182601081106122bd576122bd612da8565b6010020181601081106122d2576122d2612da8565b015462010000900460ff166122ef57826122eb81612e53565b9350505b806122f981612e53565b9150506121c0565b508061230c81612e53565b9150506121b4565b50816040015181141561232a576001955061232f565b600095505b505050505b94509492505050565b6000808251604114156123745760208301516040840151606085015160001a6123688782858561252e565b9450945050505061237c565b506000905060025b9250929050565b6000816004811115612397576123976128a9565b14156123a05750565b60018160048111156123b4576123b46128a9565b14156124025760405162461bcd60e51b815260206004820152601860248201527f45434453413a20696e76616c6964207369676e6174757265000000000000000060448201526064016104c8565b6002816004811115612416576124166128a9565b14156124645760405162461bcd60e51b815260206004820152601f60248201527f45434453413a20696e76616c6964207369676e6174757265206c656e6774680060448201526064016104c8565b6003816004811115612478576124786128a9565b1415610a005760405162461bcd60e51b815260206004820152602260248201527f45434453413a20696e76616c6964207369676e6174757265202773272076616c604482015261756560f01b60648201526084016104c8565b600054610100900460ff166124f85760405162461bcd60e51b81526004016104c890612ef2565b60018055565b600054610100900460ff166125255760405162461bcd60e51b81526004016104c890612ef2565b610a1533611c63565b6000807f7fffffffffffffffffffffffffffffff5d576e7357a4501ddfe92f46681b20a08311156125655750600090506003612334565b6040805160008082526020820180845289905260ff881692820192909252606081018690526080810185905260019060a0016020604051602081039080840390855afa1580156125b9573d6000803e3d6000fd5b5050604051601f1901519150506001600160a01b0381166125e257600060019250925050612334565b9660009650945050505050565b60008060006060848603121561260457600080fd5b505081359360208301359350604090920135919050565b634e487b7160e01b600052604160045260246000fd5b604051606081016001600160401b03811182821017156126535761265361261b565b60405290565b604051608081016001600160401b03811182821017156126535761265361261b565b60405160e081016001600160401b03811182821017156126535761265361261b565b604080519081016001600160401b03811182821017156126535761265361261b565b604051601f8201601f191681016001600160401b03811182821017156126e7576126e761261b565b604052919050565b80356001600160a01b0381168114611e0057600080fd5b60006060828403121561271857600080fd5b612720612631565b905061272b826126ef565b81526020808301358183015260408301356001600160401b038082111561275157600080fd5b818501915085601f83011261276557600080fd5b8135818111156127775761277761261b565b612789601f8201601f191685016126bf565b9150808252868482850101111561279f57600080fd5b808484018584013760008482840101525080604085015250505092915050565b803560ff81168114611e0057600080fd5b80358015158114611e0057600080fd5b6000608082840312156127f257600080fd5b6127fa612659565b90508135815261280c602083016127bf565b602082015261281d604083016127bf565b604082015261282e606083016127d0565b606082015292915050565b600080600060c0848603121561284e57600080fd5b83356001600160401b0381111561286457600080fd5b61287086828701612706565b9350506020840135915061288785604086016127e0565b90509250925092565b6000602082840312156128a257600080fd5b5035919050565b634e487b7160e01b600052602160045260246000fd5b600481106128dd57634e487b7160e01b600052602160045260246000fd5b9052565b6001600160a01b0388168152602081018790526040810186905260608101859052608081018490526101a0810161291b60a08301856128bf565b825160c0830152602083015160e083015260408301516101008301526060830151610120830152608083015161014083015260a083015161016083015260c083015161018083015298975050505050505050565b60006020828403121561298157600080fd5b61046d826126ef565b6000806040838503121561299d57600080fd5b82356001600160401b038111156129b357600080fd5b6129bf85828601612706565b95602094909401359450505050565b60006001600160401b038211156129e7576129e761261b565b5060051b60200190565b60008060408385031215612a0457600080fd5b8235915060208301356001600160401b0380821115612a2257600080fd5b818501915085601f830112612a3657600080fd5b612a48612a4383356129ce565b6126bf565b82358082526020808301929160051b85010188811115612a6757600080fd5b602085015b81811015612b55578481351115612a8257600080fd5b803586018a603f820112612a9557600080fd5b6020810135612aa6612a43826129ce565b81815260079190911b82016040019060208101908d831115612ac757600080fd5b6040840193505b82841015612b40576080848f031215612ae657600080fd5b612aee612659565b612af7856127d0565b8152612b05602086016127bf565b6020820152612b16604086016127d0565b6040820152612b27606086016127d0565b6060820152825260809390930192602090910190612ace565b87525050602094850194919091019050612a6c565b50959890975095505050505050565b6000806000838503610120811215612b7b57600080fd5b60e0811215612b8957600080fd5b50612b9261267b565b843581526020850135602082015260408501356040820152606085013560608201526080850135608082015260a085013560a082015260c085013560c08201528093505060e0840135915061010084013590509250925092565b600080600060608486031215612c0157600080fd5b612c0a846126ef565b9250612c18602085016126ef565b9150612887604085016126ef565b600080600060c08486031215612c3b57600080fd5b6001600160401b0384351115612c5057600080fd5b612c5d8585358601612706565b9250612c6c85602086016127e0565b91506001600160401b0360a08501351115612c8657600080fd5b60a0840135840185601f820112612c9c57600080fd5b612ca9612a4382356129ce565b81358082526020808301929160051b84010188811115612cc857600080fd5b602084015b81811015612d99576001600160401b0381351115612cea57600080fd5b803585018a603f820112612cfd57600080fd5b612d0d612a4360208301356129ce565b602082810135808352908201919060061b83016040018d811115612d3057600080fd5b6040840193505b80841015612d88576040848f031215612d4f57600080fd5b612d5761269d565b612d60856127bf565b8152612d6e602086016127d0565b602082015280845250602083019250604084019350612d37565b508652505060209384019301612ccd565b50508093505050509250925092565b634e487b7160e01b600052603260045260246000fd5b600060208083528351808285015260005b81811015612deb57858101830151858201604001528201612dcf565b81811115612dfd576000604083870101525b50601f01601f1916929092016040019392505050565b6001600160a01b039485168152602081019390935292166040820152606081019190915260800190565b634e487b7160e01b600052601160045260246000fd5b6000600019821415612e6757612e67612e3d565b5060010190565b600082821015612e8057612e80612e3d565b500390565b6000816000190483118215151615612e9f57612e9f612e3d565b500290565b600082612ec157634e487b7160e01b600052601260045260246000fd5b500490565b60008219821115612ed957612ed9612e3d565b500190565b8281526040810161046d60208301846128bf565b6020808252602b908201527f496e697469616c697a61626c653a20636f6e7472616374206973206e6f74206960408201526a6e697469616c697a696e6760a81b60608201526080019056fea2646970667358221220e25a008bc6e29d8efa9b263dca1b747987e30617a67beff06b388e4f729af55d64736f6c634300080c0033",
  "linkReferences": {},
  "deployedLinkReferences": {}
}