{"contracts/Minesweeper.sol":{"Minesweeper":{"abi":[{"anonymous":false,"inputs":[{"indexed":false,"internalType":"uint8","name":"version","type":"uint8"}],"name":"Initialized","type":"event"},{"anonymous":false,"inputs":[{"indexed":true,"internalType":"address","name":"previousOwner","type":"address"},{"indexed":true,"internalType":"address","name":"newOwner","type":"address"}],"name":"OwnershipTransferred","type":"event"},{"inputs":[{"internalType":"uint256","name":"gameId","type":"uint256"},{"components":[{"internalType":"bool","name":"_isMine","type":"bool"},{"internalType":"uint8","name":"_adjacentMines","type":"uint8"},{"internalType":"bool","name":"_isRevealed","type":"bool"},{"internalType":"bool","name":"_isFlagged","type":"bool"}],"internalType":"struct GameData.BoardStateCell[][]","name":"finalBoardState","type":"tuple[][]"}],"name":"CheckFinish","outputs":[],"stateMutability":"nonpayable","type":"function"},{"inputs":[{"internalType":"uint256","name":"gameId","type":"uint256"},{"internalType":"uint8","name":"row","type":"uint8"},{"internalType":"uint8","name":"col","type":"uint8"},{"internalType":"bool","name":"flag","type":"bool"}],"name":"Flag","outputs":[],"stateMutability":"nonpayable","type":"function"},{"inputs":[{"internalType":"uint256","name":"level","type":"uint256"}],"name":"InitGame","outputs":[],"stateMutability":"nonpayable","type":"function"},{"inputs":[{"internalType":"uint256","name":"gameId","type":"uint256"},{"internalType":"uint8","name":"row","type":"uint8"},{"internalType":"uint8","name":"col","type":"uint8"},{"internalType":"bool","name":"isMined","type":"bool"},{"components":[{"internalType":"bool","name":"_isMine","type":"bool"},{"internalType":"uint8","name":"_adjacentMines","type":"uint8"},{"internalType":"bool","name":"_isRevealed","type":"bool"},{"internalType":"bool","name":"_isFlagged","type":"bool"}],"internalType":"struct GameData.BoardStateCell[][]","name":"nextBoardState","type":"tuple[][]"}],"name":"Move","outputs":[],"stateMutability":"nonpayable","type":"function"},{"inputs":[],"name":"_admin","outputs":[{"internalType":"address","name":"","type":"address"}],"stateMutability":"view","type":"function"},{"inputs":[],"name":"_currentGameId","outputs":[{"internalType":"uint256","name":"","type":"uint256"}],"stateMutability":"view","type":"function"},{"inputs":[],"name":"_erc20Token","outputs":[{"internalType":"address","name":"","type":"address"}],"stateMutability":"view","type":"function"},{"inputs":[{"internalType":"uint256","name":"","type":"uint256"}],"name":"_games","outputs":[{"internalType":"address","name":"_player","type":"address"},{"internalType":"uint256","name":"_numberMines","type":"uint256"},{"internalType":"uint256","name":"_start","type":"uint256"},{"internalType":"uint256","name":"_lastMove","type":"uint256"},{"internalType":"uint256","name":"_countMove","type":"uint256"},{"internalType":"enum GameData.GameResult","name":"_result","type":"uint8"},{"components":[{"internalType":"uint256","name":"rows","type":"uint256"},{"internalType":"uint256","name":"cols","type":"uint256"},{"internalType":"uint256","name":"numMine","type":"uint256"},{"internalType":"uint256","name":"baseScore","type":"uint256"},{"internalType":"uint256","name":"totalMove","type":"uint256"},{"internalType":"uint256","name":"maxTime","type":"uint256"},{"internalType":"uint256","name":"minMoves","type":"uint256"}],"internalType":"struct GameData.GameLevel","name":"_level","type":"tuple"}],"stateMutability":"view","type":"function"},{"inputs":[{"internalType":"uint256","name":"","type":"uint256"}],"name":"_leaderboard","outputs":[{"internalType":"address","name":"player","type":"address"},{"internalType":"uint256","name":"score","type":"uint256"}],"stateMutability":"view","type":"function"},{"inputs":[],"name":"_paramsAddress","outputs":[{"internalType":"address","name":"","type":"address"}],"stateMutability":"view","type":"function"},{"inputs":[{"components":[{"internalType":"uint256","name":"rows","type":"uint256"},{"internalType":"uint256","name":"cols","type":"uint256"},{"internalType":"uint256","name":"numMine","type":"uint256"},{"internalType":"uint256","name":"baseScore","type":"uint256"},{"internalType":"uint256","name":"totalMove","type":"uint256"},{"internalType":"uint256","name":"maxTime","type":"uint256"},{"internalType":"uint256","name":"minMoves","type":"uint256"}],"internalType":"struct GameData.GameLevel","name":"gameLevel","type":"tuple"},{"internalType":"uint256","name":"num_moves","type":"uint256"},{"internalType":"uint256","name":"elapsed_time","type":"uint256"}],"name":"calculateScore","outputs":[{"internalType":"uint256","name":"score","type":"uint256"}],"stateMutability":"nonpayable","type":"function"},{"inputs":[{"internalType":"address","name":"newAdm","type":"address"}],"name":"changeAdmin","outputs":[],"stateMutability":"nonpayable","type":"function"},{"inputs":[{"internalType":"address","name":"newAddr","type":"address"}],"name":"changeERC20Token","outputs":[],"stateMutability":"nonpayable","type":"function"},{"inputs":[{"internalType":"address","name":"newAddr","type":"address"}],"name":"changeParam","outputs":[],"stateMutability":"nonpayable","type":"function"},{"inputs":[{"internalType":"uint256","name":"gameId","type":"uint256"},{"internalType":"uint256","name":"i","type":"uint256"},{"internalType":"uint256","name":"j","type":"uint256"}],"name":"getGameState","outputs":[{"components":[{"internalType":"bool","name":"_isMine","type":"bool"},{"internalType":"uint8","name":"_adjacentMines","type":"uint8"},{"internalType":"bool","name":"_isRevealed","type":"bool"},{"internalType":"bool","name":"_isFlagged","type":"bool"}],"internalType":"struct GameData.BoardStateCell","name":"","type":"tuple"}],"stateMutability":"view","type":"function"},{"inputs":[{"internalType":"address","name":"admin","type":"address"},{"internalType":"address","name":"paramAddress","type":"address"},{"internalType":"address","name":"erc20Token","type":"address"}],"name":"initialize","outputs":[],"stateMutability":"nonpayable","type":"function"},{"inputs":[],"name":"owner","outputs":[{"internalType":"address","name":"","type":"address"}],"stateMutability":"view","type":"function"},{"inputs":[],"name":"renounceOwnership","outputs":[],"stateMutability":"nonpayable","type":"function"},{"inputs":[{"internalType":"address","name":"newOwner","type":"address"}],"name":"transferOwnership","outputs":[],"stateMutability":"nonpayable","type":"function"}],"evm":{"bytecode":{"linkReferences":{},"object":"608060405234801561001057600080fd5b50612525806100206000396000f3fe608060405234801561001057600080fd5b50600436106101215760003560e01c80638da5cb5b116100ad578063adfc7dae11610071578063adfc7dae1461032d578063c0c53b8b14610340578063ced5447b14610353578063efb54029146103a5578063f2fde38b146103b857600080fd5b80638da5cb5b146102d05780638f283970146102e1578063a1c18b43146102f4578063a953e1f314610307578063adb61f431461031a57600080fd5b8063695b3e6c116100f4578063695b3e6c14610278578063715018a61461028b578063741149b1146102935780637702e006146102a65780637b321348146102bd57600080fd5b806301bc45c9146101265780631426150c146101565780633b45c8c1146101a557806341eb8b8b146101ba575b600080fd5b609754610139906001600160a01b031681565b6040516001600160a01b0390911681526020015b60405180910390f35b610169610164366004611e5c565b6103cb565b60405161014d919081511515815260208083015160ff169082015260408083015115159082015260609182015115159181019190915260800190565b6101b86101b336600461209b565b610474565b005b6102656101c8366004612114565b609a6020908152600091825260409182902080546001820154600283015460038401546004850154610105860154885160e081018a5261010688015481526101078801549881019890985261010887015498880198909852610109860154606088015261010a860154608088015261010b86015460a088015261010c9095015460c08701526001600160a01b0390931695919490939160ff169087565b60405161014d9796959493929190612165565b6101b861028636600461220a565b610a70565b6101b8610b01565b6101b86102a136600461220a565b610b15565b6102af609b5481565b60405190815260200161014d565b6101b86102cb366004612114565b610ba7565b6065546001600160a01b0316610139565b6101b86102ef36600461220a565b610ca7565b6101b8610302366004612225565b610d39565b6101b8610315366004612272565b61106a565b6102af6103283660046122b9565b611473565b609854610139906001600160a01b031681565b6101b861034e366004612341565b6114f5565b610386610361366004612114565b609d60205260009081526040902080546001909101546001600160a01b039091169082565b604080516001600160a01b03909316835260208301919091520161014d565b609954610139906001600160a01b031681565b6101b86103c636600461220a565b611653565b6040805160808101825260008082526020820181905291810182905260608101919091526000848152609a60205260409020600501836010811061041157610411612384565b60100201826010811061042657610426612384565b60408051608081018252929091015460ff80821615158452610100820481166020850152620100008204811615159284019290925263010000009004161515606082015290505b9392505050565b6000858152609a6020908152604080832081516101008101835281546001600160a01b031681526001820154938101939093526002810154838301526003810154606084015260048101546080840152815161020081019092529060a083019060058301601086835b8282101561056e5760408051610200810190915260108084028601906000835b8282101561055b57604080516080810182528386015460ff80821615158352610100820481166020808501919091526201000083048216151594840194909452630100000090910416151560608201528252600190920191016104fd565b50505050815260200190600101906104dd565b5050509082525061010582015460209091019060ff1660038111156105955761059561212d565b60038111156105a6576105a661212d565b81526040805160e081018252610106840154815261010784015460208281019190915261010885015492820192909252610109840154606082015261010a840154608082015261010b84015460a082015261010c9093015460c0840152015280519091506001600160a01b0316331461064b5760405162461bcd60e51b81526020600482015260026024820152614d3160f01b60448201526064015b60405180910390fd5b60008160c0015160038111156106635761066361212d565b146106995760405162461bcd60e51b8152600401610642906020808252600490820152634d315f3160e01b604082015260600190565b60008160400151116106d65760405162461bcd60e51b8152600401610642906020808252600490820152632698af9960e11b604082015260600190565b60e081015160005b81518110156108c65760005b82602001518110156108b35784828151811061070857610708612384565b6020026020010151818151811061072157610721612384565b602002602001015160200151609a60008b8152602001908152602001600020600501836010811061075457610754612384565b60100201826010811061076957610769612384565b0160000160016101000a81548160ff021916908360ff16021790555084828151811061079757610797612384565b602002602001015181815181106107b0576107b0612384565b602002602001015160600151609a60008b815260200190815260200160002060050183601081106107e3576107e3612384565b6010020182601081106107f8576107f8612384565b01805491151563010000000263ff00000019909216919091179055845185908390811061082757610827612384565b6020026020010151818151811061084057610840612384565b602002602001015160400151609a60008b8152602001908152602001600020600501836010811061087357610873612384565b60100201826010811061088857610888612384565b018054911515620100000262ff000019909216919091179055806108ab816123b0565b9150506106ea565b50806108be816123b0565b9150506106de565b506000878152609a602052604081204360038201556004018054916108ea836123b0565b9190505550600080610904898960ff168960ff16896116c9565b60008b8152609a60205260409020610105018054929450909250839160ff191660018360038111156109385761093861212d565b0217905550600160008a8152609a60205260409020610105015460ff1660038111156109665761096661212d565b14156109c55760408301518351602085015161098291906123cb565b61098c91906123ea565b8110156109c05760405162461bcd60e51b81526020600482015260026024820152614d3360f01b6044820152606401610642565b610a15565b6000898152609a60205260409020869060050160ff8a16601081106109ec576109ec612384565b601002018860ff1660108110610a0457610a04612384565b01805460ff19169115159190911790555b6000898152609a602052604090819020610105015490517f46df92debef97f04ee6c5a1f6f8c7771e4b5ebb9e31fee6343acab444254b89791610a5d918c9160ff1690612401565b60405180910390a1505050505050505050565b6097546001600160a01b031633148015610a9257506001600160a01b03811615155b6040518060400160405280600381526020016231303160e81b81525090610acc5760405162461bcd60e51b81526004016106429190612415565b506099546001600160a01b03828116911614610afe57609980546001600160a01b0319166001600160a01b0383161790555b50565b610b09611a05565b610b136000611a5f565b565b6097546001600160a01b031633148015610b3757506001600160a01b03811615155b6040518060400160405280600381526020016231303160e81b81525090610b715760405162461bcd60e51b81526004016106429190612415565b506098546001600160a01b03828116911614610afe57609880546001600160a01b0383166001600160a01b031990911617905550565b609b8054906000610bb7836123b0565b91905055506000610bc782611ab1565b609b80546000908152609a602090815260408083208551610106820155858301516101078201558582015161010882018190556060870151610109830155608087015161010a83015560a087015161010b83015560c087015161010c9092019190915584548452818420600101558354835280832080546001600160a01b031916331790558354835280832043600290910155835483529182902061010501805460ff19169055915490519081529192507f573ea33a91eac4576b61be89d3fd90d43dbb1291f4a63fdebe07b9f292891320910160405180910390a15050565b6097546001600160a01b031633148015610cc957506001600160a01b03811615155b6040518060400160405280600381526020016231303160e81b81525090610d035760405162461bcd60e51b81526004016106429190612415565b506097546001600160a01b03828116911614610afe57609780546001600160a01b0383166001600160a01b031990911617905550565b6000848152609a6020908152604080832081516101008101835281546001600160a01b031681526001820154938101939093526002810154838301526003810154606084015260048101546080840152815161020081019092529060a083019060058301601086835b82821015610e335760408051610200810190915260108084028601906000835b82821015610e2057604080516080810182528386015460ff8082161515835261010082048116602080850191909152620100008304821615159484019490945263010000009091041615156060820152825260019092019101610dc2565b5050505081526020019060010190610da2565b5050509082525061010582015460209091019060ff166003811115610e5a57610e5a61212d565b6003811115610e6b57610e6b61212d565b81526040805160e081018252610106840154815261010784015460208281019190915261010885015492820192909252610109840154606082015261010a840154608082015261010b84015460a082015261010c9093015460c0840152015280519091506001600160a01b03163314610f0b5760405162461bcd60e51b81526020600482015260026024820152614d3160f01b6044820152606401610642565b60008160c001516003811115610f2357610f2361212d565b14610f595760405162461bcd60e51b8152600401610642906020808252600490820152634d315f3160e01b604082015260600190565b6000816040015111610f965760405162461bcd60e51b8152600401610642906020808252600490820152632698af9960e11b604082015260600190565b6000858152609a60205260409020829060050160ff861660108110610fbd57610fbd612384565b601002018460ff1660108110610fd557610fd5612384565b01805491151563010000000263ff000000199092169190911790556000858152609a60205260408120436003820155600401805491611013836123b0565b90915550506040805186815260ff8681166020830152851681830152831515606082015290517f010589e52f5c2bfec6e0c37f6b05dd7ad667fb6c341f765abd1072b07b7909ca9181900360800190a15050505050565b60016000838152609a60205260409020610105015460ff1660038111156110935761109361212d565b146110c95760405162461bcd60e51b8152600401610642906020808252600490820152634d342e3160e01b604082015260600190565b6000828152609a6020908152604080832081516101008101835281546001600160a01b031681526001820154938101939093526002810154838301526003810154606084015260048101546080840152815161020081019092529060a083019060058301601086835b828210156111c35760408051610200810190915260108084028601906000835b828210156111b057604080516080810182528386015460ff8082161515835261010082048116602080850191909152620100008304821615159484019490945263010000009091041615156060820152825260019092019101611152565b5050505081526020019060010190611132565b5050509082525061010582015460209091019060ff1660038111156111ea576111ea61212d565b60038111156111fb576111fb61212d565b81526040805160e08082018352610106850154825261010785015460208381019190915261010886015483850152610109860154606084015261010a860154608084015261010b86015460a084015261010c9095015460c08084019190915293850191909152840151918201516000888152609a9094529220600401549293509110156112b35760405162461bcd60e51b815260040161064290602080825260049082015263269a171960e11b604082015260600190565b6000805b825181101561137c5760005b8360200151811015611369578460a0015182601081106112e5576112e5612384565b602002015181601081106112fb576112fb612384565b602002015160400151158015611344575085828151811061131e5761131e612384565b6020026020010151818151811061133757611337612384565b6020026020010151600001515b156113575782611353816123b0565b9350505b80611361816123b0565b9150506112c3565b5080611374816123b0565b9150506112b7565b50816040015181146113b55760405162461bcd60e51b8152602060048201526002602482015261134d60f21b6044820152606401610642565b6000858152609a6020526040812060028101546003909101546113d891906123ea565b6000878152609a60208181526040808420815160e08101835261010682015481526101078201548185015261010882015492810192909252610109810154606083015261010a810154608083015261010b81015460a083015261010c81015460c08301528b8552929091526004909101549293509091611459919084611473565b9050611469856000015182611c01565b5050505050505050565b608083015160009081908410156114a4578385608001516101f461149791906123cb565b6114a1919061246a565b90505b60008560a001518410156114d257838660a001516101f46114c591906123cb565b6114cf919061246a565b90505b6114dc818361248c565b86606001516114eb91906123cb565b9695505050505050565b600054610100900460ff16158080156115155750600054600160ff909116105b8061152f5750303b15801561152f575060005460ff166001145b6115925760405162461bcd60e51b815260206004820152602e60248201527f496e697469616c697a61626c653a20636f6e747261637420697320616c72656160448201526d191e481a5b9a5d1a585b1a5e995960921b6064820152608401610642565b6000805460ff1916600117905580156115b5576000805461ff0019166101001790555b600a609c55609780546001600160a01b038087166001600160a01b0319928316179092556098805486841690831617905560998054928516929091169190911790556115ff611da1565b611607611dd0565b801561164d576000805461ff0019169055604051600181527f7f26b83ff96e1f2b6a682f133852f6798a09c465da95921460cefb38474024989060200160405180910390a15b50505050565b61165b611a05565b6001600160a01b0381166116c05760405162461bcd60e51b815260206004820152602660248201527f4f776e61626c653a206e6577206f776e657220697320746865207a65726f206160448201526564647265737360d01b6064820152608401610642565b610afe81611a5f565b6000848152609a6020908152604080832081516101008101835281546001600160a01b031681526001820154938101939093526002810154838301526003810154606084015260048101546080840152815161020081019092528392839290919060a083019060058301601086835b828210156117c95760408051610200810190915260108084028601906000835b828210156117b657604080516080810182528386015460ff8082161515835261010082048116602080850191909152620100008304821615159484019490945263010000009091041615156060820152825260019092019101611758565b5050505081526020019060010190611738565b5050509082525061010582015460209091019060ff1660038111156117f0576117f061212d565b60038111156118015761180161212d565b815260200161010682016040518060e001604052908160008201548152602001600182015481526020016002820154815260200160038201548152602001600482015481526020016005820154815260200160068201548152505081525050905060008160a00151905060008260e001519050600080945060005b82518110156119dc5760005b83602001518110156119c95760008c8152609a6020526040902060050182601081106118b6576118b6612384565b6010020181601081106118cb576118cb612384565b015462010000900460ff16156118e957866118e5816123b0565b9750505b60008c8152609a60205260409020600501826010811061190b5761190b612384565b60100201816010811061192057611920612384565b015462010000900460ff16801561193657508a82145b801561194157508981145b801561194a5750885b15611963575060029650600095506119fc945050505050565b60008c8152609a60205260409020600501826010811061198557611985612384565b60100201816010811061199a5761199a612384565b015462010000900460ff166119b757826119b3816123b0565b9350505b806119c1816123b0565b915050611888565b50806119d4816123b0565b91505061187c565b5081604001518114156119f257600195506119f7565b600095505b505050505b94509492505050565b6065546001600160a01b03163314610b135760405162461bcd60e51b815260206004820181905260248201527f4f776e61626c653a2063616c6c6572206973206e6f7420746865206f776e65726044820152606401610642565b606580546001600160a01b038381166001600160a01b0319831681179093556040519116919082907f8be0079c531659141344cd1fd0a4f28419497f9722a3daafe3b4186f6b6457e090600090a35050565b611af16040518060e00160405280600081526020016000815260200160008152602001600081526020016000815260200160008152602001600081525090565b811580611afe5750816001145b80611b095750816002145b80611b145750816003145b611b1d57600080fd5b81611b555760088082526020820152600a6040820152603660808201526101f460a082015260016060820152600760c0820152919050565b8160011415611b9157600a8082526020820152600f60408201526055608082015261030c60a082015260026060820152600760c0820152919050565b8160021415611bcd57600c8082526020820152601e60408201526072608082015261046560a082015260036060820152600760c0820152919050565b601080825260208201526050604082015260b060808201526106a460a082015260046060820152600760c08201525b919050565b600081609d60006001609c54611c1791906123ea565b81526020019081526020016000206001015410611c3657506000611d9b565b60005b609c54811015611d95576000818152609d6020526040902060010154831115611d83576000818152609d60209081526040808320815180830190925280546001600160a01b03168252600190810154928201929092529190611c9c90849061248c565b90505b609c54611cad90600161248c565b811015611d1d576000818152609d60208181526040808420815180830190925280546001600160a01b038082168452600183018054858701529688905294845287516001600160a01b03199091169416939093179092559390930151905580611d15816123b0565b915050611c9f565b50506040805180820182526001600160a01b03808716825260208083018781526000958652609d9091528385209251835492166001600160a01b031992831617835551600192830155609c54845291832080549092168255908101919091559050611d9b565b80611d8d816123b0565b915050611c39565b50600090505b92915050565b600054610100900460ff16611dc85760405162461bcd60e51b8152600401610642906124a4565b610b13611dff565b600054610100900460ff16611df75760405162461bcd60e51b8152600401610642906124a4565b610b13611e2c565b600054610100900460ff16611e265760405162461bcd60e51b8152600401610642906124a4565b60018055565b600054610100900460ff16611e535760405162461bcd60e51b8152600401610642906124a4565b610b1333611a5f565b600080600060608486031215611e7157600080fd5b505081359360208301359350604090920135919050565b803560ff81168114611bfc57600080fd5b80358015158114611bfc57600080fd5b634e487b7160e01b600052604160045260246000fd5b6040516080810167ffffffffffffffff81118282101715611ee257611ee2611ea9565b60405290565b60405160e0810167ffffffffffffffff81118282101715611ee257611ee2611ea9565b604051601f8201601f1916810167ffffffffffffffff81118282101715611f3457611f34611ea9565b604052919050565b600067ffffffffffffffff821115611f5657611f56611ea9565b5060051b60200190565b600082601f830112611f7157600080fd5b81356020611f86611f8183611f3c565b611f0b565b82815260059290921b84018101918181019086841115611fa557600080fd5b8286015b8481101561209057803567ffffffffffffffff811115611fc95760008081fd5b8701603f81018913611fdb5760008081fd5b848101356040611fed611f8183611f3c565b82815260079290921b8301810191878101908c84111561200d5760008081fd5b938201935b8385101561207f576080858e03121561202b5760008081fd5b612033611ebf565b61203c86611e99565b81526120498a8701611e88565b8a820152612058848701611e99565b848201526060612069818801611e99565b9082015282526080949094019390880190612012565b875250505092840192508301611fa9565b509695505050505050565b600080600080600060a086880312156120b357600080fd5b853594506120c360208701611e88565b93506120d160408701611e88565b92506120df60608701611e99565b9150608086013567ffffffffffffffff8111156120fb57600080fd5b61210788828901611f60565b9150509295509295909350565b60006020828403121561212657600080fd5b5035919050565b634e487b7160e01b600052602160045260246000fd5b6004811061216157634e487b7160e01b600052602160045260246000fd5b9052565b6001600160a01b0388168152602081018790526040810186905260608101859052608081018490526101a0810161219f60a0830185612143565b825160c0830152602083015160e083015260408301516101008301526060830151610120830152608083015161014083015260a083015161016083015260c083015161018083015298975050505050505050565b80356001600160a01b0381168114611bfc57600080fd5b60006020828403121561221c57600080fd5b61046d826121f3565b6000806000806080858703121561223b57600080fd5b8435935061224b60208601611e88565b925061225960408601611e88565b915061226760608601611e99565b905092959194509250565b6000806040838503121561228557600080fd5b82359150602083013567ffffffffffffffff8111156122a357600080fd5b6122af85828601611f60565b9150509250929050565b60008060008385036101208112156122d057600080fd5b60e08112156122de57600080fd5b506122e7611ee8565b843581526020850135602082015260408501356040820152606085013560608201526080850135608082015260a085013560a082015260c085013560c08201528093505060e0840135915061010084013590509250925092565b60008060006060848603121561235657600080fd5b61235f846121f3565b925061236d602085016121f3565b915061237b604085016121f3565b90509250925092565b634e487b7160e01b600052603260045260246000fd5b634e487b7160e01b600052601160045260246000fd5b60006000198214156123c4576123c461239a565b5060010190565b60008160001904831182151516156123e5576123e561239a565b500290565b6000828210156123fc576123fc61239a565b500390565b8281526040810161046d6020830184612143565b600060208083528351808285015260005b8181101561244257858101830151858201604001528201612426565b81811115612454576000604083870101525b50601f01601f1916929092016040019392505050565b60008261248757634e487b7160e01b600052601260045260246000fd5b500490565b6000821982111561249f5761249f61239a565b500190565b6020808252602b908201527f496e697469616c697a61626c653a20636f6e7472616374206973206e6f74206960408201526a6e697469616c697a696e6760a81b60608201526080019056fea26469706673582212207ace6b44536debeef676533392118c2ae75b9d9aad31185c9736419f11c7481464736f6c634300080c0033","opcodes":"PUSH1 0x80 PUSH1 0x40 MSTORE CALLVALUE DUP1 ISZERO PUSH2 0x10 JUMPI PUSH1 0x0 DUP1 REVERT JUMPDEST POP PUSH2 0x2525 DUP1 PUSH2 0x20 PUSH1 0x0 CODECOPY PUSH1 0x0 RETURN INVALID PUSH1 0x80 PUSH1 0x40 MSTORE CALLVALUE DUP1 ISZERO PUSH2 0x10 JUMPI PUSH1 0x0 DUP1 REVERT JUMPDEST POP PUSH1 0x4 CALLDATASIZE LT PUSH2 0x121 JUMPI PUSH1 0x0 CALLDATALOAD PUSH1 0xE0 SHR DUP1 PUSH4 0x8DA5CB5B GT PUSH2 0xAD JUMPI DUP1 PUSH4 0xADFC7DAE GT PUSH2 0x71 JUMPI DUP1 PUSH4 0xADFC7DAE EQ PUSH2 0x32D JUMPI DUP1 PUSH4 0xC0C53B8B EQ PUSH2 0x340 JUMPI DUP1 PUSH4 0xCED5447B EQ PUSH2 0x353 JUMPI DUP1 PUSH4 0xEFB54029 EQ PUSH2 0x3A5 JUMPI DUP1 PUSH4 0xF2FDE38B EQ PUSH2 0x3B8 JUMPI PUSH1 0x0 DUP1 REVERT JUMPDEST DUP1 PUSH4 0x8DA5CB5B EQ PUSH2 0x2D0 JUMPI DUP1 PUSH4 0x8F283970 EQ PUSH2 0x2E1 JUMPI DUP1 PUSH4 0xA1C18B43 EQ PUSH2 0x2F4 JUMPI DUP1 PUSH4 0xA953E1F3 EQ PUSH2 0x307 JUMPI DUP1 PUSH4 0xADB61F43 EQ PUSH2 0x31A JUMPI PUSH1 0x0 DUP1 REVERT JUMPDEST DUP1 PUSH4 0x695B3E6C GT PUSH2 0xF4 JUMPI DUP1 PUSH4 0x695B3E6C EQ PUSH2 0x278 JUMPI DUP1 PUSH4 0x715018A6 EQ PUSH2 0x28B JUMPI DUP1 PUSH4 0x741149B1 EQ PUSH2 0x293 JUMPI DUP1 PUSH4 0x7702E006 EQ PUSH2 0x2A6 JUMPI DUP1 PUSH4 0x7B321348 EQ PUSH2 0x2BD JUMPI PUSH1 0x0 DUP1 REVERT JUMPDEST DUP1 PUSH4 0x1BC45C9 EQ PUSH2 0x126 JUMPI DUP1 PUSH4 0x1426150C EQ PUSH2 0x156 JUMPI DUP1 PUSH4 0x3B45C8C1 EQ PUSH2 0x1A5 JUMPI DUP1 PUSH4 0x41EB8B8B EQ PUSH2 0x1BA JUMPI JUMPDEST PUSH1 0x0 DUP1 REVERT JUMPDEST PUSH1 0x97 SLOAD PUSH2 0x139 SWAP1 PUSH1 0x1 PUSH1 0x1 PUSH1 0xA0 SHL SUB AND DUP2 JUMP JUMPDEST PUSH1 0x40 MLOAD PUSH1 0x1 PUSH1 0x1 PUSH1 0xA0 SHL SUB SWAP1 SWAP2 AND DUP2 MSTORE PUSH1 0x20 ADD JUMPDEST PUSH1 0x40 MLOAD DUP1 SWAP2 SUB SWAP1 RETURN JUMPDEST PUSH2 0x169 PUSH2 0x164 CALLDATASIZE PUSH1 0x4 PUSH2 0x1E5C JUMP JUMPDEST PUSH2 0x3CB JUMP JUMPDEST PUSH1 0x40 MLOAD PUSH2 0x14D SWAP2 SWAP1 DUP2 MLOAD ISZERO ISZERO DUP2 MSTORE PUSH1 0x20 DUP1 DUP4 ADD MLOAD PUSH1 0xFF AND SWAP1 DUP3 ADD MSTORE PUSH1 0x40 DUP1 DUP4 ADD MLOAD ISZERO ISZERO SWAP1 DUP3 ADD MSTORE PUSH1 0x60 SWAP2 DUP3 ADD MLOAD ISZERO ISZERO SWAP2 DUP2 ADD SWAP2 SWAP1 SWAP2 MSTORE PUSH1 0x80 ADD SWAP1 JUMP JUMPDEST PUSH2 0x1B8 PUSH2 0x1B3 CALLDATASIZE PUSH1 0x4 PUSH2 0x209B JUMP JUMPDEST PUSH2 0x474 JUMP JUMPDEST STOP JUMPDEST PUSH2 0x265 PUSH2 0x1C8 CALLDATASIZE PUSH1 0x4 PUSH2 0x2114 JUMP JUMPDEST PUSH1 0x9A PUSH1 0x20 SWAP1 DUP2 MSTORE PUSH1 0x0 SWAP2 DUP3 MSTORE PUSH1 0x40 SWAP2 DUP3 SWAP1 KECCAK256 DUP1 SLOAD PUSH1 0x1 DUP3 ADD SLOAD PUSH1 0x2 DUP4 ADD SLOAD PUSH1 0x3 DUP5 ADD SLOAD PUSH1 0x4 DUP6 ADD SLOAD PUSH2 0x105 DUP7 ADD SLOAD DUP9 MLOAD PUSH1 0xE0 DUP2 ADD DUP11 MSTORE PUSH2 0x106 DUP9 ADD SLOAD DUP2 MSTORE PUSH2 0x107 DUP9 ADD SLOAD SWAP9 DUP2 ADD SWAP9 SWAP1 SWAP9 MSTORE PUSH2 0x108 DUP8 ADD SLOAD SWAP9 DUP9 ADD SWAP9 SWAP1 SWAP9 MSTORE PUSH2 0x109 DUP7 ADD SLOAD PUSH1 0x60 DUP9 ADD MSTORE PUSH2 0x10A DUP7 ADD SLOAD PUSH1 0x80 DUP9 ADD MSTORE PUSH2 0x10B DUP7 ADD SLOAD PUSH1 0xA0 DUP9 ADD MSTORE PUSH2 0x10C SWAP1 SWAP6 ADD SLOAD PUSH1 0xC0 DUP8 ADD MSTORE PUSH1 0x1 PUSH1 0x1 PUSH1 0xA0 SHL SUB SWAP1 SWAP4 AND SWAP6 SWAP2 SWAP5 SWAP1 SWAP4 SWAP2 PUSH1 0xFF AND SWAP1 DUP8 JUMP JUMPDEST PUSH1 0x40 MLOAD PUSH2 0x14D SWAP8 SWAP7 SWAP6 SWAP5 SWAP4 SWAP3 SWAP2 SWAP1 PUSH2 0x2165 JUMP JUMPDEST PUSH2 0x1B8 PUSH2 0x286 CALLDATASIZE PUSH1 0x4 PUSH2 0x220A JUMP JUMPDEST PUSH2 0xA70 JUMP JUMPDEST PUSH2 0x1B8 PUSH2 0xB01 JUMP JUMPDEST PUSH2 0x1B8 PUSH2 0x2A1 CALLDATASIZE PUSH1 0x4 PUSH2 0x220A JUMP JUMPDEST PUSH2 0xB15 JUMP JUMPDEST PUSH2 0x2AF PUSH1 0x9B SLOAD DUP2 JUMP JUMPDEST PUSH1 0x40 MLOAD SWAP1 DUP2 MSTORE PUSH1 0x20 ADD PUSH2 0x14D JUMP JUMPDEST PUSH2 0x1B8 PUSH2 0x2CB CALLDATASIZE PUSH1 0x4 PUSH2 0x2114 JUMP JUMPDEST PUSH2 0xBA7 JUMP JUMPDEST PUSH1 0x65 SLOAD PUSH1 0x1 PUSH1 0x1 PUSH1 0xA0 SHL SUB AND PUSH2 0x139 JUMP JUMPDEST PUSH2 0x1B8 PUSH2 0x2EF CALLDATASIZE PUSH1 0x4 PUSH2 0x220A JUMP JUMPDEST PUSH2 0xCA7 JUMP JUMPDEST PUSH2 0x1B8 PUSH2 0x302 CALLDATASIZE PUSH1 0x4 PUSH2 0x2225 JUMP JUMPDEST PUSH2 0xD39 JUMP JUMPDEST PUSH2 0x1B8 PUSH2 0x315 CALLDATASIZE PUSH1 0x4 PUSH2 0x2272 JUMP JUMPDEST PUSH2 0x106A JUMP JUMPDEST PUSH2 0x2AF PUSH2 0x328 CALLDATASIZE PUSH1 0x4 PUSH2 0x22B9 JUMP JUMPDEST PUSH2 0x1473 JUMP JUMPDEST PUSH1 0x98 SLOAD PUSH2 0x139 SWAP1 PUSH1 0x1 PUSH1 0x1 PUSH1 0xA0 SHL SUB AND DUP2 JUMP JUMPDEST PUSH2 0x1B8 PUSH2 0x34E CALLDATASIZE PUSH1 0x4 PUSH2 0x2341 JUMP JUMPDEST PUSH2 0x14F5 JUMP JUMPDEST PUSH2 0x386 PUSH2 0x361 CALLDATASIZE PUSH1 0x4 PUSH2 0x2114 JUMP JUMPDEST PUSH1 0x9D PUSH1 0x20 MSTORE PUSH1 0x0 SWAP1 DUP2 MSTORE PUSH1 0x40 SWAP1 KECCAK256 DUP1 SLOAD PUSH1 0x1 SWAP1 SWAP2 ADD SLOAD PUSH1 0x1 PUSH1 0x1 PUSH1 0xA0 SHL SUB SWAP1 SWAP2 AND SWAP1 DUP3 JUMP JUMPDEST PUSH1 0x40 DUP1 MLOAD PUSH1 0x1 PUSH1 0x1 PUSH1 0xA0 SHL SUB SWAP1 SWAP4 AND DUP4 MSTORE PUSH1 0x20 DUP4 ADD SWAP2 SWAP1 SWAP2 MSTORE ADD PUSH2 0x14D JUMP JUMPDEST PUSH1 0x99 SLOAD PUSH2 0x139 SWAP1 PUSH1 0x1 PUSH1 0x1 PUSH1 0xA0 SHL SUB AND DUP2 JUMP JUMPDEST PUSH2 0x1B8 PUSH2 0x3C6 CALLDATASIZE PUSH1 0x4 PUSH2 0x220A JUMP JUMPDEST PUSH2 0x1653 JUMP JUMPDEST PUSH1 0x40 DUP1 MLOAD PUSH1 0x80 DUP2 ADD DUP3 MSTORE PUSH1 0x0 DUP1 DUP3 MSTORE PUSH1 0x20 DUP3 ADD DUP2 SWAP1 MSTORE SWAP2 DUP2 ADD DUP3 SWAP1 MSTORE PUSH1 0x60 DUP2 ADD SWAP2 SWAP1 SWAP2 MSTORE PUSH1 0x0 DUP5 DUP2 MSTORE PUSH1 0x9A PUSH1 0x20 MSTORE PUSH1 0x40 SWAP1 KECCAK256 PUSH1 0x5 ADD DUP4 PUSH1 0x10 DUP2 LT PUSH2 0x411 JUMPI PUSH2 0x411 PUSH2 0x2384 JUMP JUMPDEST PUSH1 0x10 MUL ADD DUP3 PUSH1 0x10 DUP2 LT PUSH2 0x426 JUMPI PUSH2 0x426 PUSH2 0x2384 JUMP JUMPDEST PUSH1 0x40 DUP1 MLOAD PUSH1 0x80 DUP2 ADD DUP3 MSTORE SWAP3 SWAP1 SWAP2 ADD SLOAD PUSH1 0xFF DUP1 DUP3 AND ISZERO ISZERO DUP5 MSTORE PUSH2 0x100 DUP3 DIV DUP2 AND PUSH1 0x20 DUP6 ADD MSTORE PUSH3 0x10000 DUP3 DIV DUP2 AND ISZERO ISZERO SWAP3 DUP5 ADD SWAP3 SWAP1 SWAP3 MSTORE PUSH4 0x1000000 SWAP1 DIV AND ISZERO ISZERO PUSH1 0x60 DUP3 ADD MSTORE SWAP1 POP JUMPDEST SWAP4 SWAP3 POP POP POP JUMP JUMPDEST PUSH1 0x0 DUP6 DUP2 MSTORE PUSH1 0x9A PUSH1 0x20 SWAP1 DUP2 MSTORE PUSH1 0x40 DUP1 DUP4 KECCAK256 DUP2 MLOAD PUSH2 0x100 DUP2 ADD DUP4 MSTORE DUP2 SLOAD PUSH1 0x1 PUSH1 0x1 PUSH1 0xA0 SHL SUB AND DUP2 MSTORE PUSH1 0x1 DUP3 ADD SLOAD SWAP4 DUP2 ADD SWAP4 SWAP1 SWAP4 MSTORE PUSH1 0x2 DUP2 ADD SLOAD DUP4 DUP4 ADD MSTORE PUSH1 0x3 DUP2 ADD SLOAD PUSH1 0x60 DUP5 ADD MSTORE PUSH1 0x4 DUP2 ADD SLOAD PUSH1 0x80 DUP5 ADD MSTORE DUP2 MLOAD PUSH2 0x200 DUP2 ADD SWAP1 SWAP3 MSTORE SWAP1 PUSH1 0xA0 DUP4 ADD SWAP1 PUSH1 0x5 DUP4 ADD PUSH1 0x10 DUP7 DUP4 JUMPDEST DUP3 DUP3 LT ISZERO PUSH2 0x56E JUMPI PUSH1 0x40 DUP1 MLOAD PUSH2 0x200 DUP2 ADD SWAP1 SWAP2 MSTORE PUSH1 0x10 DUP1 DUP5 MUL DUP7 ADD SWAP1 PUSH1 0x0 DUP4 JUMPDEST DUP3 DUP3 LT ISZERO PUSH2 0x55B JUMPI PUSH1 0x40 DUP1 MLOAD PUSH1 0x80 DUP2 ADD DUP3 MSTORE DUP4 DUP7 ADD SLOAD PUSH1 0xFF DUP1 DUP3 AND ISZERO ISZERO DUP4 MSTORE PUSH2 0x100 DUP3 DIV DUP2 AND PUSH1 0x20 DUP1 DUP6 ADD SWAP2 SWAP1 SWAP2 MSTORE PUSH3 0x10000 DUP4 DIV DUP3 AND ISZERO ISZERO SWAP5 DUP5 ADD SWAP5 SWAP1 SWAP5 MSTORE PUSH4 0x1000000 SWAP1 SWAP2 DIV AND ISZERO ISZERO PUSH1 0x60 DUP3 ADD MSTORE DUP3 MSTORE PUSH1 0x1 SWAP1 SWAP3 ADD SWAP2 ADD PUSH2 0x4FD JUMP JUMPDEST POP POP POP POP DUP2 MSTORE PUSH1 0x20 ADD SWAP1 PUSH1 0x1 ADD SWAP1 PUSH2 0x4DD JUMP JUMPDEST POP POP POP SWAP1 DUP3 MSTORE POP PUSH2 0x105 DUP3 ADD SLOAD PUSH1 0x20 SWAP1 SWAP2 ADD SWAP1 PUSH1 0xFF AND PUSH1 0x3 DUP2 GT ISZERO PUSH2 0x595 JUMPI PUSH2 0x595 PUSH2 0x212D JUMP JUMPDEST PUSH1 0x3 DUP2 GT ISZERO PUSH2 0x5A6 JUMPI PUSH2 0x5A6 PUSH2 0x212D JUMP JUMPDEST DUP2 MSTORE PUSH1 0x40 DUP1 MLOAD PUSH1 0xE0 DUP2 ADD DUP3 MSTORE PUSH2 0x106 DUP5 ADD SLOAD DUP2 MSTORE PUSH2 0x107 DUP5 ADD SLOAD PUSH1 0x20 DUP3 DUP2 ADD SWAP2 SWAP1 SWAP2 MSTORE PUSH2 0x108 DUP6 ADD SLOAD SWAP3 DUP3 ADD SWAP3 SWAP1 SWAP3 MSTORE PUSH2 0x109 DUP5 ADD SLOAD PUSH1 0x60 DUP3 ADD MSTORE PUSH2 0x10A DUP5 ADD SLOAD PUSH1 0x80 DUP3 ADD MSTORE PUSH2 0x10B DUP5 ADD SLOAD PUSH1 0xA0 DUP3 ADD MSTORE PUSH2 0x10C SWAP1 SWAP4 ADD SLOAD PUSH1 0xC0 DUP5 ADD MSTORE ADD MSTORE DUP1 MLOAD SWAP1 SWAP2 POP PUSH1 0x1 PUSH1 0x1 PUSH1 0xA0 SHL SUB AND CALLER EQ PUSH2 0x64B JUMPI PUSH1 0x40 MLOAD PUSH3 0x461BCD PUSH1 0xE5 SHL DUP2 MSTORE PUSH1 0x20 PUSH1 0x4 DUP3 ADD MSTORE PUSH1 0x2 PUSH1 0x24 DUP3 ADD MSTORE PUSH2 0x4D31 PUSH1 0xF0 SHL PUSH1 0x44 DUP3 ADD MSTORE PUSH1 0x64 ADD JUMPDEST PUSH1 0x40 MLOAD DUP1 SWAP2 SUB SWAP1 REVERT JUMPDEST PUSH1 0x0 DUP2 PUSH1 0xC0 ADD MLOAD PUSH1 0x3 DUP2 GT ISZERO PUSH2 0x663 JUMPI PUSH2 0x663 PUSH2 0x212D JUMP JUMPDEST EQ PUSH2 0x699 JUMPI PUSH1 0x40 MLOAD PUSH3 0x461BCD PUSH1 0xE5 SHL DUP2 MSTORE PUSH1 0x4 ADD PUSH2 0x642 SWAP1 PUSH1 0x20 DUP1 DUP3 MSTORE PUSH1 0x4 SWAP1 DUP3 ADD MSTORE PUSH4 0x4D315F31 PUSH1 0xE0 SHL PUSH1 0x40 DUP3 ADD MSTORE PUSH1 0x60 ADD SWAP1 JUMP JUMPDEST PUSH1 0x0 DUP2 PUSH1 0x40 ADD MLOAD GT PUSH2 0x6D6 JUMPI PUSH1 0x40 MLOAD PUSH3 0x461BCD PUSH1 0xE5 SHL DUP2 MSTORE PUSH1 0x4 ADD PUSH2 0x642 SWAP1 PUSH1 0x20 DUP1 DUP3 MSTORE PUSH1 0x4 SWAP1 DUP3 ADD MSTORE PUSH4 0x2698AF99 PUSH1 0xE1 SHL PUSH1 0x40 DUP3 ADD MSTORE PUSH1 0x60 ADD SWAP1 JUMP JUMPDEST PUSH1 0xE0 DUP2 ADD MLOAD PUSH1 0x0 JUMPDEST DUP2 MLOAD DUP2 LT ISZERO PUSH2 0x8C6 JUMPI PUSH1 0x0 JUMPDEST DUP3 PUSH1 0x20 ADD MLOAD DUP2 LT ISZERO PUSH2 0x8B3 JUMPI DUP5 DUP3 DUP2 MLOAD DUP2 LT PUSH2 0x708 JUMPI PUSH2 0x708 PUSH2 0x2384 JUMP JUMPDEST PUSH1 0x20 MUL PUSH1 0x20 ADD ADD MLOAD DUP2 DUP2 MLOAD DUP2 LT PUSH2 0x721 JUMPI PUSH2 0x721 PUSH2 0x2384 JUMP JUMPDEST PUSH1 0x20 MUL PUSH1 0x20 ADD ADD MLOAD PUSH1 0x20 ADD MLOAD PUSH1 0x9A PUSH1 0x0 DUP12 DUP2 MSTORE PUSH1 0x20 ADD SWAP1 DUP2 MSTORE PUSH1 0x20 ADD PUSH1 0x0 KECCAK256 PUSH1 0x5 ADD DUP4 PUSH1 0x10 DUP2 LT PUSH2 0x754 JUMPI PUSH2 0x754 PUSH2 0x2384 JUMP JUMPDEST PUSH1 0x10 MUL ADD DUP3 PUSH1 0x10 DUP2 LT PUSH2 0x769 JUMPI PUSH2 0x769 PUSH2 0x2384 JUMP JUMPDEST ADD PUSH1 0x0 ADD PUSH1 0x1 PUSH2 0x100 EXP DUP2 SLOAD DUP2 PUSH1 0xFF MUL NOT AND SWAP1 DUP4 PUSH1 0xFF AND MUL OR SWAP1 SSTORE POP DUP5 DUP3 DUP2 MLOAD DUP2 LT PUSH2 0x797 JUMPI PUSH2 0x797 PUSH2 0x2384 JUMP JUMPDEST PUSH1 0x20 MUL PUSH1 0x20 ADD ADD MLOAD DUP2 DUP2 MLOAD DUP2 LT PUSH2 0x7B0 JUMPI PUSH2 0x7B0 PUSH2 0x2384 JUMP JUMPDEST PUSH1 0x20 MUL PUSH1 0x20 ADD ADD MLOAD PUSH1 0x60 ADD MLOAD PUSH1 0x9A PUSH1 0x0 DUP12 DUP2 MSTORE PUSH1 0x20 ADD SWAP1 DUP2 MSTORE PUSH1 0x20 ADD PUSH1 0x0 KECCAK256 PUSH1 0x5 ADD DUP4 PUSH1 0x10 DUP2 LT PUSH2 0x7E3 JUMPI PUSH2 0x7E3 PUSH2 0x2384 JUMP JUMPDEST PUSH1 0x10 MUL ADD DUP3 PUSH1 0x10 DUP2 LT PUSH2 0x7F8 JUMPI PUSH2 0x7F8 PUSH2 0x2384 JUMP JUMPDEST ADD DUP1 SLOAD SWAP2 ISZERO ISZERO PUSH4 0x1000000 MUL PUSH4 0xFF000000 NOT SWAP1 SWAP3 AND SWAP2 SWAP1 SWAP2 OR SWAP1 SSTORE DUP5 MLOAD DUP6 SWAP1 DUP4 SWAP1 DUP2 LT PUSH2 0x827 JUMPI PUSH2 0x827 PUSH2 0x2384 JUMP JUMPDEST PUSH1 0x20 MUL PUSH1 0x20 ADD ADD MLOAD DUP2 DUP2 MLOAD DUP2 LT PUSH2 0x840 JUMPI PUSH2 0x840 PUSH2 0x2384 JUMP JUMPDEST PUSH1 0x20 MUL PUSH1 0x20 ADD ADD MLOAD PUSH1 0x40 ADD MLOAD PUSH1 0x9A PUSH1 0x0 DUP12 DUP2 MSTORE PUSH1 0x20 ADD SWAP1 DUP2 MSTORE PUSH1 0x20 ADD PUSH1 0x0 KECCAK256 PUSH1 0x5 ADD DUP4 PUSH1 0x10 DUP2 LT PUSH2 0x873 JUMPI PUSH2 0x873 PUSH2 0x2384 JUMP JUMPDEST PUSH1 0x10 MUL ADD DUP3 PUSH1 0x10 DUP2 LT PUSH2 0x888 JUMPI PUSH2 0x888 PUSH2 0x2384 JUMP JUMPDEST ADD DUP1 SLOAD SWAP2 ISZERO ISZERO PUSH3 0x10000 MUL PUSH3 0xFF0000 NOT SWAP1 SWAP3 AND SWAP2 SWAP1 SWAP2 OR SWAP1 SSTORE DUP1 PUSH2 0x8AB DUP2 PUSH2 0x23B0 JUMP JUMPDEST SWAP2 POP POP PUSH2 0x6EA JUMP JUMPDEST POP DUP1 PUSH2 0x8BE DUP2 PUSH2 0x23B0 JUMP JUMPDEST SWAP2 POP POP PUSH2 0x6DE JUMP JUMPDEST POP PUSH1 0x0 DUP8 DUP2 MSTORE PUSH1 0x9A PUSH1 0x20 MSTORE PUSH1 0x40 DUP2 KECCAK256 NUMBER PUSH1 0x3 DUP3 ADD SSTORE PUSH1 0x4 ADD DUP1 SLOAD SWAP2 PUSH2 0x8EA DUP4 PUSH2 0x23B0 JUMP JUMPDEST SWAP2 SWAP1 POP SSTORE POP PUSH1 0x0 DUP1 PUSH2 0x904 DUP10 DUP10 PUSH1 0xFF AND DUP10 PUSH1 0xFF AND DUP10 PUSH2 0x16C9 JUMP JUMPDEST PUSH1 0x0 DUP12 DUP2 MSTORE PUSH1 0x9A PUSH1 0x20 MSTORE PUSH1 0x40 SWAP1 KECCAK256 PUSH2 0x105 ADD DUP1 SLOAD SWAP3 SWAP5 POP SWAP1 SWAP3 POP DUP4 SWAP2 PUSH1 0xFF NOT AND PUSH1 0x1 DUP4 PUSH1 0x3 DUP2 GT ISZERO PUSH2 0x938 JUMPI PUSH2 0x938 PUSH2 0x212D JUMP JUMPDEST MUL OR SWAP1 SSTORE POP PUSH1 0x1 PUSH1 0x0 DUP11 DUP2 MSTORE PUSH1 0x9A PUSH1 0x20 MSTORE PUSH1 0x40 SWAP1 KECCAK256 PUSH2 0x105 ADD SLOAD PUSH1 0xFF AND PUSH1 0x3 DUP2 GT ISZERO PUSH2 0x966 JUMPI PUSH2 0x966 PUSH2 0x212D JUMP JUMPDEST EQ ISZERO PUSH2 0x9C5 JUMPI PUSH1 0x40 DUP4 ADD MLOAD DUP4 MLOAD PUSH1 0x20 DUP6 ADD MLOAD PUSH2 0x982 SWAP2 SWAP1 PUSH2 0x23CB JUMP JUMPDEST PUSH2 0x98C SWAP2 SWAP1 PUSH2 0x23EA JUMP JUMPDEST DUP2 LT ISZERO PUSH2 0x9C0 JUMPI PUSH1 0x40 MLOAD PUSH3 0x461BCD PUSH1 0xE5 SHL DUP2 MSTORE PUSH1 0x20 PUSH1 0x4 DUP3 ADD MSTORE PUSH1 0x2 PUSH1 0x24 DUP3 ADD MSTORE PUSH2 0x4D33 PUSH1 0xF0 SHL PUSH1 0x44 DUP3 ADD MSTORE PUSH1 0x64 ADD PUSH2 0x642 JUMP JUMPDEST PUSH2 0xA15 JUMP JUMPDEST PUSH1 0x0 DUP10 DUP2 MSTORE PUSH1 0x9A PUSH1 0x20 MSTORE PUSH1 0x40 SWAP1 KECCAK256 DUP7 SWAP1 PUSH1 0x5 ADD PUSH1 0xFF DUP11 AND PUSH1 0x10 DUP2 LT PUSH2 0x9EC JUMPI PUSH2 0x9EC PUSH2 0x2384 JUMP JUMPDEST PUSH1 0x10 MUL ADD DUP9 PUSH1 0xFF AND PUSH1 0x10 DUP2 LT PUSH2 0xA04 JUMPI PUSH2 0xA04 PUSH2 0x2384 JUMP JUMPDEST ADD DUP1 SLOAD PUSH1 0xFF NOT AND SWAP2 ISZERO ISZERO SWAP2 SWAP1 SWAP2 OR SWAP1 SSTORE JUMPDEST PUSH1 0x0 DUP10 DUP2 MSTORE PUSH1 0x9A PUSH1 0x20 MSTORE PUSH1 0x40 SWAP1 DUP2 SWAP1 KECCAK256 PUSH2 0x105 ADD SLOAD SWAP1 MLOAD PUSH32 0x46DF92DEBEF97F04EE6C5A1F6F8C7771E4B5EBB9E31FEE6343ACAB444254B897 SWAP2 PUSH2 0xA5D SWAP2 DUP13 SWAP2 PUSH1 0xFF AND SWAP1 PUSH2 0x2401 JUMP JUMPDEST PUSH1 0x40 MLOAD DUP1 SWAP2 SUB SWAP1 LOG1 POP POP POP POP POP POP POP POP POP JUMP JUMPDEST PUSH1 0x97 SLOAD PUSH1 0x1 PUSH1 0x1 PUSH1 0xA0 SHL SUB AND CALLER EQ DUP1 ISZERO PUSH2 0xA92 JUMPI POP PUSH1 0x1 PUSH1 0x1 PUSH1 0xA0 SHL SUB DUP2 AND ISZERO ISZERO JUMPDEST PUSH1 0x40 MLOAD DUP1 PUSH1 0x40 ADD PUSH1 0x40 MSTORE DUP1 PUSH1 0x3 DUP2 MSTORE PUSH1 0x20 ADD PUSH3 0x313031 PUSH1 0xE8 SHL DUP2 MSTORE POP SWAP1 PUSH2 0xACC JUMPI PUSH1 0x40 MLOAD PUSH3 0x461BCD PUSH1 0xE5 SHL DUP2 MSTORE PUSH1 0x4 ADD PUSH2 0x642 SWAP2 SWAP1 PUSH2 0x2415 JUMP JUMPDEST POP PUSH1 0x99 SLOAD PUSH1 0x1 PUSH1 0x1 PUSH1 0xA0 SHL SUB DUP3 DUP2 AND SWAP2 AND EQ PUSH2 0xAFE JUMPI PUSH1 0x99 DUP1 SLOAD PUSH1 0x1 PUSH1 0x1 PUSH1 0xA0 SHL SUB NOT AND PUSH1 0x1 PUSH1 0x1 PUSH1 0xA0 SHL SUB DUP4 AND OR SWAP1 SSTORE JUMPDEST POP JUMP JUMPDEST PUSH2 0xB09 PUSH2 0x1A05 JUMP JUMPDEST PUSH2 0xB13 PUSH1 0x0 PUSH2 0x1A5F JUMP JUMPDEST JUMP JUMPDEST PUSH1 0x97 SLOAD PUSH1 0x1 PUSH1 0x1 PUSH1 0xA0 SHL SUB AND CALLER EQ DUP1 ISZERO PUSH2 0xB37 JUMPI POP PUSH1 0x1 PUSH1 0x1 PUSH1 0xA0 SHL SUB DUP2 AND ISZERO ISZERO JUMPDEST PUSH1 0x40 MLOAD DUP1 PUSH1 0x40 ADD PUSH1 0x40 MSTORE DUP1 PUSH1 0x3 DUP2 MSTORE PUSH1 0x20 ADD PUSH3 0x313031 PUSH1 0xE8 SHL DUP2 MSTORE POP SWAP1 PUSH2 0xB71 JUMPI PUSH1 0x40 MLOAD PUSH3 0x461BCD PUSH1 0xE5 SHL DUP2 MSTORE PUSH1 0x4 ADD PUSH2 0x642 SWAP2 SWAP1 PUSH2 0x2415 JUMP JUMPDEST POP PUSH1 0x98 SLOAD PUSH1 0x1 PUSH1 0x1 PUSH1 0xA0 SHL SUB DUP3 DUP2 AND SWAP2 AND EQ PUSH2 0xAFE JUMPI PUSH1 0x98 DUP1 SLOAD PUSH1 0x1 PUSH1 0x1 PUSH1 0xA0 SHL SUB DUP4 AND PUSH1 0x1 PUSH1 0x1 PUSH1 0xA0 SHL SUB NOT SWAP1 SWAP2 AND OR SWAP1 SSTORE POP JUMP JUMPDEST PUSH1 0x9B DUP1 SLOAD SWAP1 PUSH1 0x0 PUSH2 0xBB7 DUP4 PUSH2 0x23B0 JUMP JUMPDEST SWAP2 SWAP1 POP SSTORE POP PUSH1 0x0 PUSH2 0xBC7 DUP3 PUSH2 0x1AB1 JUMP JUMPDEST PUSH1 0x9B DUP1 SLOAD PUSH1 0x0 SWAP1 DUP2 MSTORE PUSH1 0x9A PUSH1 0x20 SWAP1 DUP2 MSTORE PUSH1 0x40 DUP1 DUP4 KECCAK256 DUP6 MLOAD PUSH2 0x106 DUP3 ADD SSTORE DUP6 DUP4 ADD MLOAD PUSH2 0x107 DUP3 ADD SSTORE DUP6 DUP3 ADD MLOAD PUSH2 0x108 DUP3 ADD DUP2 SWAP1 SSTORE PUSH1 0x60 DUP8 ADD MLOAD PUSH2 0x109 DUP4 ADD SSTORE PUSH1 0x80 DUP8 ADD MLOAD PUSH2 0x10A DUP4 ADD SSTORE PUSH1 0xA0 DUP8 ADD MLOAD PUSH2 0x10B DUP4 ADD SSTORE PUSH1 0xC0 DUP8 ADD MLOAD PUSH2 0x10C SWAP1 SWAP3 ADD SWAP2 SWAP1 SWAP2 SSTORE DUP5 SLOAD DUP5 MSTORE DUP2 DUP5 KECCAK256 PUSH1 0x1 ADD SSTORE DUP4 SLOAD DUP4 MSTORE DUP1 DUP4 KECCAK256 DUP1 SLOAD PUSH1 0x1 PUSH1 0x1 PUSH1 0xA0 SHL SUB NOT AND CALLER OR SWAP1 SSTORE DUP4 SLOAD DUP4 MSTORE DUP1 DUP4 KECCAK256 NUMBER PUSH1 0x2 SWAP1 SWAP2 ADD SSTORE DUP4 SLOAD DUP4 MSTORE SWAP2 DUP3 SWAP1 KECCAK256 PUSH2 0x105 ADD DUP1 SLOAD PUSH1 0xFF NOT AND SWAP1 SSTORE SWAP2 SLOAD SWAP1 MLOAD SWAP1 DUP2 MSTORE SWAP2 SWAP3 POP PUSH32 0x573EA33A91EAC4576B61BE89D3FD90D43DBB1291F4A63FDEBE07B9F292891320 SWAP2 ADD PUSH1 0x40 MLOAD DUP1 SWAP2 SUB SWAP1 LOG1 POP POP JUMP JUMPDEST PUSH1 0x97 SLOAD PUSH1 0x1 PUSH1 0x1 PUSH1 0xA0 SHL SUB AND CALLER EQ DUP1 ISZERO PUSH2 0xCC9 JUMPI POP PUSH1 0x1 PUSH1 0x1 PUSH1 0xA0 SHL SUB DUP2 AND ISZERO ISZERO JUMPDEST PUSH1 0x40 MLOAD DUP1 PUSH1 0x40 ADD PUSH1 0x40 MSTORE DUP1 PUSH1 0x3 DUP2 MSTORE PUSH1 0x20 ADD PUSH3 0x313031 PUSH1 0xE8 SHL DUP2 MSTORE POP SWAP1 PUSH2 0xD03 JUMPI PUSH1 0x40 MLOAD PUSH3 0x461BCD PUSH1 0xE5 SHL DUP2 MSTORE PUSH1 0x4 ADD PUSH2 0x642 SWAP2 SWAP1 PUSH2 0x2415 JUMP JUMPDEST POP PUSH1 0x97 SLOAD PUSH1 0x1 PUSH1 0x1 PUSH1 0xA0 SHL SUB DUP3 DUP2 AND SWAP2 AND EQ PUSH2 0xAFE JUMPI PUSH1 0x97 DUP1 SLOAD PUSH1 0x1 PUSH1 0x1 PUSH1 0xA0 SHL SUB DUP4 AND PUSH1 0x1 PUSH1 0x1 PUSH1 0xA0 SHL SUB NOT SWAP1 SWAP2 AND OR SWAP1 SSTORE POP JUMP JUMPDEST PUSH1 0x0 DUP5 DUP2 MSTORE PUSH1 0x9A PUSH1 0x20 SWAP1 DUP2 MSTORE PUSH1 0x40 DUP1 DUP4 KECCAK256 DUP2 MLOAD PUSH2 0x100 DUP2 ADD DUP4 MSTORE DUP2 SLOAD PUSH1 0x1 PUSH1 0x1 PUSH1 0xA0 SHL SUB AND DUP2 MSTORE PUSH1 0x1 DUP3 ADD SLOAD SWAP4 DUP2 ADD SWAP4 SWAP1 SWAP4 MSTORE PUSH1 0x2 DUP2 ADD SLOAD DUP4 DUP4 ADD MSTORE PUSH1 0x3 DUP2 ADD SLOAD PUSH1 0x60 DUP5 ADD MSTORE PUSH1 0x4 DUP2 ADD SLOAD PUSH1 0x80 DUP5 ADD MSTORE DUP2 MLOAD PUSH2 0x200 DUP2 ADD SWAP1 SWAP3 MSTORE SWAP1 PUSH1 0xA0 DUP4 ADD SWAP1 PUSH1 0x5 DUP4 ADD PUSH1 0x10 DUP7 DUP4 JUMPDEST DUP3 DUP3 LT ISZERO PUSH2 0xE33 JUMPI PUSH1 0x40 DUP1 MLOAD PUSH2 0x200 DUP2 ADD SWAP1 SWAP2 MSTORE PUSH1 0x10 DUP1 DUP5 MUL DUP7 ADD SWAP1 PUSH1 0x0 DUP4 JUMPDEST DUP3 DUP3 LT ISZERO PUSH2 0xE20 JUMPI PUSH1 0x40 DUP1 MLOAD PUSH1 0x80 DUP2 ADD DUP3 MSTORE DUP4 DUP7 ADD SLOAD PUSH1 0xFF DUP1 DUP3 AND ISZERO ISZERO DUP4 MSTORE PUSH2 0x100 DUP3 DIV DUP2 AND PUSH1 0x20 DUP1 DUP6 ADD SWAP2 SWAP1 SWAP2 MSTORE PUSH3 0x10000 DUP4 DIV DUP3 AND ISZERO ISZERO SWAP5 DUP5 ADD SWAP5 SWAP1 SWAP5 MSTORE PUSH4 0x1000000 SWAP1 SWAP2 DIV AND ISZERO ISZERO PUSH1 0x60 DUP3 ADD MSTORE DUP3 MSTORE PUSH1 0x1 SWAP1 SWAP3 ADD SWAP2 ADD PUSH2 0xDC2 JUMP JUMPDEST POP POP POP POP DUP2 MSTORE PUSH1 0x20 ADD SWAP1 PUSH1 0x1 ADD SWAP1 PUSH2 0xDA2 JUMP JUMPDEST POP POP POP SWAP1 DUP3 MSTORE POP PUSH2 0x105 DUP3 ADD SLOAD PUSH1 0x20 SWAP1 SWAP2 ADD SWAP1 PUSH1 0xFF AND PUSH1 0x3 DUP2 GT ISZERO PUSH2 0xE5A JUMPI PUSH2 0xE5A PUSH2 0x212D JUMP JUMPDEST PUSH1 0x3 DUP2 GT ISZERO PUSH2 0xE6B JUMPI PUSH2 0xE6B PUSH2 0x212D JUMP JUMPDEST DUP2 MSTORE PUSH1 0x40 DUP1 MLOAD PUSH1 0xE0 DUP2 ADD DUP3 MSTORE PUSH2 0x106 DUP5 ADD SLOAD DUP2 MSTORE PUSH2 0x107 DUP5 ADD SLOAD PUSH1 0x20 DUP3 DUP2 ADD SWAP2 SWAP1 SWAP2 MSTORE PUSH2 0x108 DUP6 ADD SLOAD SWAP3 DUP3 ADD SWAP3 SWAP1 SWAP3 MSTORE PUSH2 0x109 DUP5 ADD SLOAD PUSH1 0x60 DUP3 ADD MSTORE PUSH2 0x10A DUP5 ADD SLOAD PUSH1 0x80 DUP3 ADD MSTORE PUSH2 0x10B DUP5 ADD SLOAD PUSH1 0xA0 DUP3 ADD MSTORE PUSH2 0x10C SWAP1 SWAP4 ADD SLOAD PUSH1 0xC0 DUP5 ADD MSTORE ADD MSTORE DUP1 MLOAD SWAP1 SWAP2 POP PUSH1 0x1 PUSH1 0x1 PUSH1 0xA0 SHL SUB AND CALLER EQ PUSH2 0xF0B JUMPI PUSH1 0x40 MLOAD PUSH3 0x461BCD PUSH1 0xE5 SHL DUP2 MSTORE PUSH1 0x20 PUSH1 0x4 DUP3 ADD MSTORE PUSH1 0x2 PUSH1 0x24 DUP3 ADD MSTORE PUSH2 0x4D31 PUSH1 0xF0 SHL PUSH1 0x44 DUP3 ADD MSTORE PUSH1 0x64 ADD PUSH2 0x642 JUMP JUMPDEST PUSH1 0x0 DUP2 PUSH1 0xC0 ADD MLOAD PUSH1 0x3 DUP2 GT ISZERO PUSH2 0xF23 JUMPI PUSH2 0xF23 PUSH2 0x212D JUMP JUMPDEST EQ PUSH2 0xF59 JUMPI PUSH1 0x40 MLOAD PUSH3 0x461BCD PUSH1 0xE5 SHL DUP2 MSTORE PUSH1 0x4 ADD PUSH2 0x642 SWAP1 PUSH1 0x20 DUP1 DUP3 MSTORE PUSH1 0x4 SWAP1 DUP3 ADD MSTORE PUSH4 0x4D315F31 PUSH1 0xE0 SHL PUSH1 0x40 DUP3 ADD MSTORE PUSH1 0x60 ADD SWAP1 JUMP JUMPDEST PUSH1 0x0 DUP2 PUSH1 0x40 ADD MLOAD GT PUSH2 0xF96 JUMPI PUSH1 0x40 MLOAD PUSH3 0x461BCD PUSH1 0xE5 SHL DUP2 MSTORE PUSH1 0x4 ADD PUSH2 0x642 SWAP1 PUSH1 0x20 DUP1 DUP3 MSTORE PUSH1 0x4 SWAP1 DUP3 ADD MSTORE PUSH4 0x2698AF99 PUSH1 0xE1 SHL PUSH1 0x40 DUP3 ADD MSTORE PUSH1 0x60 ADD SWAP1 JUMP JUMPDEST PUSH1 0x0 DUP6 DUP2 MSTORE PUSH1 0x9A PUSH1 0x20 MSTORE PUSH1 0x40 SWAP1 KECCAK256 DUP3 SWAP1 PUSH1 0x5 ADD PUSH1 0xFF DUP7 AND PUSH1 0x10 DUP2 LT PUSH2 0xFBD JUMPI PUSH2 0xFBD PUSH2 0x2384 JUMP JUMPDEST PUSH1 0x10 MUL ADD DUP5 PUSH1 0xFF AND PUSH1 0x10 DUP2 LT PUSH2 0xFD5 JUMPI PUSH2 0xFD5 PUSH2 0x2384 JUMP JUMPDEST ADD DUP1 SLOAD SWAP2 ISZERO ISZERO PUSH4 0x1000000 MUL PUSH4 0xFF000000 NOT SWAP1 SWAP3 AND SWAP2 SWAP1 SWAP2 OR SWAP1 SSTORE PUSH1 0x0 DUP6 DUP2 MSTORE PUSH1 0x9A PUSH1 0x20 MSTORE PUSH1 0x40 DUP2 KECCAK256 NUMBER PUSH1 0x3 DUP3 ADD SSTORE PUSH1 0x4 ADD DUP1 SLOAD SWAP2 PUSH2 0x1013 DUP4 PUSH2 0x23B0 JUMP JUMPDEST SWAP1 SWAP2 SSTORE POP POP PUSH1 0x40 DUP1 MLOAD DUP7 DUP2 MSTORE PUSH1 0xFF DUP7 DUP2 AND PUSH1 0x20 DUP4 ADD MSTORE DUP6 AND DUP2 DUP4 ADD MSTORE DUP4 ISZERO ISZERO PUSH1 0x60 DUP3 ADD MSTORE SWAP1 MLOAD PUSH32 0x10589E52F5C2BFEC6E0C37F6B05DD7AD667FB6C341F765ABD1072B07B7909CA SWAP2 DUP2 SWAP1 SUB PUSH1 0x80 ADD SWAP1 LOG1 POP POP POP POP POP JUMP JUMPDEST PUSH1 0x1 PUSH1 0x0 DUP4 DUP2 MSTORE PUSH1 0x9A PUSH1 0x20 MSTORE PUSH1 0x40 SWAP1 KECCAK256 PUSH2 0x105 ADD SLOAD PUSH1 0xFF AND PUSH1 0x3 DUP2 GT ISZERO PUSH2 0x1093 JUMPI PUSH2 0x1093 PUSH2 0x212D JUMP JUMPDEST EQ PUSH2 0x10C9 JUMPI PUSH1 0x40 MLOAD PUSH3 0x461BCD PUSH1 0xE5 SHL DUP2 MSTORE PUSH1 0x4 ADD PUSH2 0x642 SWAP1 PUSH1 0x20 DUP1 DUP3 MSTORE PUSH1 0x4 SWAP1 DUP3 ADD MSTORE PUSH4 0x4D342E31 PUSH1 0xE0 SHL PUSH1 0x40 DUP3 ADD MSTORE PUSH1 0x60 ADD SWAP1 JUMP JUMPDEST PUSH1 0x0 DUP3 DUP2 MSTORE PUSH1 0x9A PUSH1 0x20 SWAP1 DUP2 MSTORE PUSH1 0x40 DUP1 DUP4 KECCAK256 DUP2 MLOAD PUSH2 0x100 DUP2 ADD DUP4 MSTORE DUP2 SLOAD PUSH1 0x1 PUSH1 0x1 PUSH1 0xA0 SHL SUB AND DUP2 MSTORE PUSH1 0x1 DUP3 ADD SLOAD SWAP4 DUP2 ADD SWAP4 SWAP1 SWAP4 MSTORE PUSH1 0x2 DUP2 ADD SLOAD DUP4 DUP4 ADD MSTORE PUSH1 0x3 DUP2 ADD SLOAD PUSH1 0x60 DUP5 ADD MSTORE PUSH1 0x4 DUP2 ADD SLOAD PUSH1 0x80 DUP5 ADD MSTORE DUP2 MLOAD PUSH2 0x200 DUP2 ADD SWAP1 SWAP3 MSTORE SWAP1 PUSH1 0xA0 DUP4 ADD SWAP1 PUSH1 0x5 DUP4 ADD PUSH1 0x10 DUP7 DUP4 JUMPDEST DUP3 DUP3 LT ISZERO PUSH2 0x11C3 JUMPI PUSH1 0x40 DUP1 MLOAD PUSH2 0x200 DUP2 ADD SWAP1 SWAP2 MSTORE PUSH1 0x10 DUP1 DUP5 MUL DUP7 ADD SWAP1 PUSH1 0x0 DUP4 JUMPDEST DUP3 DUP3 LT ISZERO PUSH2 0x11B0 JUMPI PUSH1 0x40 DUP1 MLOAD PUSH1 0x80 DUP2 ADD DUP3 MSTORE DUP4 DUP7 ADD SLOAD PUSH1 0xFF DUP1 DUP3 AND ISZERO ISZERO DUP4 MSTORE PUSH2 0x100 DUP3 DIV DUP2 AND PUSH1 0x20 DUP1 DUP6 ADD SWAP2 SWAP1 SWAP2 MSTORE PUSH3 0x10000 DUP4 DIV DUP3 AND ISZERO ISZERO SWAP5 DUP5 ADD SWAP5 SWAP1 SWAP5 MSTORE PUSH4 0x1000000 SWAP1 SWAP2 DIV AND ISZERO ISZERO PUSH1 0x60 DUP3 ADD MSTORE DUP3 MSTORE PUSH1 0x1 SWAP1 SWAP3 ADD SWAP2 ADD PUSH2 0x1152 JUMP JUMPDEST POP POP POP POP DUP2 MSTORE PUSH1 0x20 ADD SWAP1 PUSH1 0x1 ADD SWAP1 PUSH2 0x1132 JUMP JUMPDEST POP POP POP SWAP1 DUP3 MSTORE POP PUSH2 0x105 DUP3 ADD SLOAD PUSH1 0x20 SWAP1 SWAP2 ADD SWAP1 PUSH1 0xFF AND PUSH1 0x3 DUP2 GT ISZERO PUSH2 0x11EA JUMPI PUSH2 0x11EA PUSH2 0x212D JUMP JUMPDEST PUSH1 0x3 DUP2 GT ISZERO PUSH2 0x11FB JUMPI PUSH2 0x11FB PUSH2 0x212D JUMP JUMPDEST DUP2 MSTORE PUSH1 0x40 DUP1 MLOAD PUSH1 0xE0 DUP1 DUP3 ADD DUP4 MSTORE PUSH2 0x106 DUP6 ADD SLOAD DUP3 MSTORE PUSH2 0x107 DUP6 ADD SLOAD PUSH1 0x20 DUP4 DUP2 ADD SWAP2 SWAP1 SWAP2 MSTORE PUSH2 0x108 DUP7 ADD SLOAD DUP4 DUP6 ADD MSTORE PUSH2 0x109 DUP7 ADD SLOAD PUSH1 0x60 DUP5 ADD MSTORE PUSH2 0x10A DUP7 ADD SLOAD PUSH1 0x80 DUP5 ADD MSTORE PUSH2 0x10B DUP7 ADD SLOAD PUSH1 0xA0 DUP5 ADD MSTORE PUSH2 0x10C SWAP1 SWAP6 ADD SLOAD PUSH1 0xC0 DUP1 DUP5 ADD SWAP2 SWAP1 SWAP2 MSTORE SWAP4 DUP6 ADD SWAP2 SWAP1 SWAP2 MSTORE DUP5 ADD MLOAD SWAP2 DUP3 ADD MLOAD PUSH1 0x0 DUP9 DUP2 MSTORE PUSH1 0x9A SWAP1 SWAP5 MSTORE SWAP3 KECCAK256 PUSH1 0x4 ADD SLOAD SWAP3 SWAP4 POP SWAP2 LT ISZERO PUSH2 0x12B3 JUMPI PUSH1 0x40 MLOAD PUSH3 0x461BCD PUSH1 0xE5 SHL DUP2 MSTORE PUSH1 0x4 ADD PUSH2 0x642 SWAP1 PUSH1 0x20 DUP1 DUP3 MSTORE PUSH1 0x4 SWAP1 DUP3 ADD MSTORE PUSH4 0x269A1719 PUSH1 0xE1 SHL PUSH1 0x40 DUP3 ADD MSTORE PUSH1 0x60 ADD SWAP1 JUMP JUMPDEST PUSH1 0x0 DUP1 JUMPDEST DUP3 MLOAD DUP2 LT ISZERO PUSH2 0x137C JUMPI PUSH1 0x0 JUMPDEST DUP4 PUSH1 0x20 ADD MLOAD DUP2 LT ISZERO PUSH2 0x1369 JUMPI DUP5 PUSH1 0xA0 ADD MLOAD DUP3 PUSH1 0x10 DUP2 LT PUSH2 0x12E5 JUMPI PUSH2 0x12E5 PUSH2 0x2384 JUMP JUMPDEST PUSH1 0x20 MUL ADD MLOAD DUP2 PUSH1 0x10 DUP2 LT PUSH2 0x12FB JUMPI PUSH2 0x12FB PUSH2 0x2384 JUMP JUMPDEST PUSH1 0x20 MUL ADD MLOAD PUSH1 0x40 ADD MLOAD ISZERO DUP1 ISZERO PUSH2 0x1344 JUMPI POP DUP6 DUP3 DUP2 MLOAD DUP2 LT PUSH2 0x131E JUMPI PUSH2 0x131E PUSH2 0x2384 JUMP JUMPDEST PUSH1 0x20 MUL PUSH1 0x20 ADD ADD MLOAD DUP2 DUP2 MLOAD DUP2 LT PUSH2 0x1337 JUMPI PUSH2 0x1337 PUSH2 0x2384 JUMP JUMPDEST PUSH1 0x20 MUL PUSH1 0x20 ADD ADD MLOAD PUSH1 0x0 ADD MLOAD JUMPDEST ISZERO PUSH2 0x1357 JUMPI DUP3 PUSH2 0x1353 DUP2 PUSH2 0x23B0 JUMP JUMPDEST SWAP4 POP POP JUMPDEST DUP1 PUSH2 0x1361 DUP2 PUSH2 0x23B0 JUMP JUMPDEST SWAP2 POP POP PUSH2 0x12C3 JUMP JUMPDEST POP DUP1 PUSH2 0x1374 DUP2 PUSH2 0x23B0 JUMP JUMPDEST SWAP2 POP POP PUSH2 0x12B7 JUMP JUMPDEST POP DUP2 PUSH1 0x40 ADD MLOAD DUP2 EQ PUSH2 0x13B5 JUMPI PUSH1 0x40 MLOAD PUSH3 0x461BCD PUSH1 0xE5 SHL DUP2 MSTORE PUSH1 0x20 PUSH1 0x4 DUP3 ADD MSTORE PUSH1 0x2 PUSH1 0x24 DUP3 ADD MSTORE PUSH2 0x134D PUSH1 0xF2 SHL PUSH1 0x44 DUP3 ADD MSTORE PUSH1 0x64 ADD PUSH2 0x642 JUMP JUMPDEST PUSH1 0x0 DUP6 DUP2 MSTORE PUSH1 0x9A PUSH1 0x20 MSTORE PUSH1 0x40 DUP2 KECCAK256 PUSH1 0x2 DUP2 ADD SLOAD PUSH1 0x3 SWAP1 SWAP2 ADD SLOAD PUSH2 0x13D8 SWAP2 SWAP1 PUSH2 0x23EA JUMP JUMPDEST PUSH1 0x0 DUP8 DUP2 MSTORE PUSH1 0x9A PUSH1 0x20 DUP2 DUP2 MSTORE PUSH1 0x40 DUP1 DUP5 KECCAK256 DUP2 MLOAD PUSH1 0xE0 DUP2 ADD DUP4 MSTORE PUSH2 0x106 DUP3 ADD SLOAD DUP2 MSTORE PUSH2 0x107 DUP3 ADD SLOAD DUP2 DUP6 ADD MSTORE PUSH2 0x108 DUP3 ADD SLOAD SWAP3 DUP2 ADD SWAP3 SWAP1 SWAP3 MSTORE PUSH2 0x109 DUP2 ADD SLOAD PUSH1 0x60 DUP4 ADD MSTORE PUSH2 0x10A DUP2 ADD SLOAD PUSH1 0x80 DUP4 ADD MSTORE PUSH2 0x10B DUP2 ADD SLOAD PUSH1 0xA0 DUP4 ADD MSTORE PUSH2 0x10C DUP2 ADD SLOAD PUSH1 0xC0 DUP4 ADD MSTORE DUP12 DUP6 MSTORE SWAP3 SWAP1 SWAP2 MSTORE PUSH1 0x4 SWAP1 SWAP2 ADD SLOAD SWAP3 SWAP4 POP SWAP1 SWAP2 PUSH2 0x1459 SWAP2 SWAP1 DUP5 PUSH2 0x1473 JUMP JUMPDEST SWAP1 POP PUSH2 0x1469 DUP6 PUSH1 0x0 ADD MLOAD DUP3 PUSH2 0x1C01 JUMP JUMPDEST POP POP POP POP POP POP POP POP JUMP JUMPDEST PUSH1 0x80 DUP4 ADD MLOAD PUSH1 0x0 SWAP1 DUP2 SWAP1 DUP5 LT ISZERO PUSH2 0x14A4 JUMPI DUP4 DUP6 PUSH1 0x80 ADD MLOAD PUSH2 0x1F4 PUSH2 0x1497 SWAP2 SWAP1 PUSH2 0x23CB JUMP JUMPDEST PUSH2 0x14A1 SWAP2 SWAP1 PUSH2 0x246A JUMP JUMPDEST SWAP1 POP JUMPDEST PUSH1 0x0 DUP6 PUSH1 0xA0 ADD MLOAD DUP5 LT ISZERO PUSH2 0x14D2 JUMPI DUP4 DUP7 PUSH1 0xA0 ADD MLOAD PUSH2 0x1F4 PUSH2 0x14C5 SWAP2 SWAP1 PUSH2 0x23CB JUMP JUMPDEST PUSH2 0x14CF SWAP2 SWAP1 PUSH2 0x246A JUMP JUMPDEST SWAP1 POP JUMPDEST PUSH2 0x14DC DUP2 DUP4 PUSH2 0x248C JUMP JUMPDEST DUP7 PUSH1 0x60 ADD MLOAD PUSH2 0x14EB SWAP2 SWAP1 PUSH2 0x23CB JUMP JUMPDEST SWAP7 SWAP6 POP POP POP POP POP POP JUMP JUMPDEST PUSH1 0x0 SLOAD PUSH2 0x100 SWAP1 DIV PUSH1 0xFF AND ISZERO DUP1 DUP1 ISZERO PUSH2 0x1515 JUMPI POP PUSH1 0x0 SLOAD PUSH1 0x1 PUSH1 0xFF SWAP1 SWAP2 AND LT JUMPDEST DUP1 PUSH2 0x152F JUMPI POP ADDRESS EXTCODESIZE ISZERO DUP1 ISZERO PUSH2 0x152F JUMPI POP PUSH1 0x0 SLOAD PUSH1 0xFF AND PUSH1 0x1 EQ JUMPDEST PUSH2 0x1592 JUMPI PUSH1 0x40 MLOAD PUSH3 0x461BCD PUSH1 0xE5 SHL DUP2 MSTORE PUSH1 0x20 PUSH1 0x4 DUP3 ADD MSTORE PUSH1 0x2E PUSH1 0x24 DUP3 ADD MSTORE PUSH32 0x496E697469616C697A61626C653A20636F6E747261637420697320616C726561 PUSH1 0x44 DUP3 ADD MSTORE PUSH14 0x191E481A5B9A5D1A585B1A5E9959 PUSH1 0x92 SHL PUSH1 0x64 DUP3 ADD MSTORE PUSH1 0x84 ADD PUSH2 0x642 JUMP JUMPDEST PUSH1 0x0 DUP1 SLOAD PUSH1 0xFF NOT AND PUSH1 0x1 OR SWAP1 SSTORE DUP1 ISZERO PUSH2 0x15B5 JUMPI PUSH1 0x0 DUP1 SLOAD PUSH2 0xFF00 NOT AND PUSH2 0x100 OR SWAP1 SSTORE JUMPDEST PUSH1 0xA PUSH1 0x9C SSTORE PUSH1 0x97 DUP1 SLOAD PUSH1 0x1 PUSH1 0x1 PUSH1 0xA0 SHL SUB DUP1 DUP8 AND PUSH1 0x1 PUSH1 0x1 PUSH1 0xA0 SHL SUB NOT SWAP3 DUP4 AND OR SWAP1 SWAP3 SSTORE PUSH1 0x98 DUP1 SLOAD DUP7 DUP5 AND SWAP1 DUP4 AND OR SWAP1 SSTORE PUSH1 0x99 DUP1 SLOAD SWAP3 DUP6 AND SWAP3 SWAP1 SWAP2 AND SWAP2 SWAP1 SWAP2 OR SWAP1 SSTORE PUSH2 0x15FF PUSH2 0x1DA1 JUMP JUMPDEST PUSH2 0x1607 PUSH2 0x1DD0 JUMP JUMPDEST DUP1 ISZERO PUSH2 0x164D JUMPI PUSH1 0x0 DUP1 SLOAD PUSH2 0xFF00 NOT AND SWAP1 SSTORE PUSH1 0x40 MLOAD PUSH1 0x1 DUP2 MSTORE PUSH32 0x7F26B83FF96E1F2B6A682F133852F6798A09C465DA95921460CEFB3847402498 SWAP1 PUSH1 0x20 ADD PUSH1 0x40 MLOAD DUP1 SWAP2 SUB SWAP1 LOG1 JUMPDEST POP POP POP POP JUMP JUMPDEST PUSH2 0x165B PUSH2 0x1A05 JUMP JUMPDEST PUSH1 0x1 PUSH1 0x1 PUSH1 0xA0 SHL SUB DUP2 AND PUSH2 0x16C0 JUMPI PUSH1 0x40 MLOAD PUSH3 0x461BCD PUSH1 0xE5 SHL DUP2 MSTORE PUSH1 0x20 PUSH1 0x4 DUP3 ADD MSTORE PUSH1 0x26 PUSH1 0x24 DUP3 ADD MSTORE PUSH32 0x4F776E61626C653A206E6577206F776E657220697320746865207A65726F2061 PUSH1 0x44 DUP3 ADD MSTORE PUSH6 0x646472657373 PUSH1 0xD0 SHL PUSH1 0x64 DUP3 ADD MSTORE PUSH1 0x84 ADD PUSH2 0x642 JUMP JUMPDEST PUSH2 0xAFE DUP2 PUSH2 0x1A5F JUMP JUMPDEST PUSH1 0x0 DUP5 DUP2 MSTORE PUSH1 0x9A PUSH1 0x20 SWAP1 DUP2 MSTORE PUSH1 0x40 DUP1 DUP4 KECCAK256 DUP2 MLOAD PUSH2 0x100 DUP2 ADD DUP4 MSTORE DUP2 SLOAD PUSH1 0x1 PUSH1 0x1 PUSH1 0xA0 SHL SUB AND DUP2 MSTORE PUSH1 0x1 DUP3 ADD SLOAD SWAP4 DUP2 ADD SWAP4 SWAP1 SWAP4 MSTORE PUSH1 0x2 DUP2 ADD SLOAD DUP4 DUP4 ADD MSTORE PUSH1 0x3 DUP2 ADD SLOAD PUSH1 0x60 DUP5 ADD MSTORE PUSH1 0x4 DUP2 ADD SLOAD PUSH1 0x80 DUP5 ADD MSTORE DUP2 MLOAD PUSH2 0x200 DUP2 ADD SWAP1 SWAP3 MSTORE DUP4 SWAP3 DUP4 SWAP3 SWAP1 SWAP2 SWAP1 PUSH1 0xA0 DUP4 ADD SWAP1 PUSH1 0x5 DUP4 ADD PUSH1 0x10 DUP7 DUP4 JUMPDEST DUP3 DUP3 LT ISZERO PUSH2 0x17C9 JUMPI PUSH1 0x40 DUP1 MLOAD PUSH2 0x200 DUP2 ADD SWAP1 SWAP2 MSTORE PUSH1 0x10 DUP1 DUP5 MUL DUP7 ADD SWAP1 PUSH1 0x0 DUP4 JUMPDEST DUP3 DUP3 LT ISZERO PUSH2 0x17B6 JUMPI PUSH1 0x40 DUP1 MLOAD PUSH1 0x80 DUP2 ADD DUP3 MSTORE DUP4 DUP7 ADD SLOAD PUSH1 0xFF DUP1 DUP3 AND ISZERO ISZERO DUP4 MSTORE PUSH2 0x100 DUP3 DIV DUP2 AND PUSH1 0x20 DUP1 DUP6 ADD SWAP2 SWAP1 SWAP2 MSTORE PUSH3 0x10000 DUP4 DIV DUP3 AND ISZERO ISZERO SWAP5 DUP5 ADD SWAP5 SWAP1 SWAP5 MSTORE PUSH4 0x1000000 SWAP1 SWAP2 DIV AND ISZERO ISZERO PUSH1 0x60 DUP3 ADD MSTORE DUP3 MSTORE PUSH1 0x1 SWAP1 SWAP3 ADD SWAP2 ADD PUSH2 0x1758 JUMP JUMPDEST POP POP POP POP DUP2 MSTORE PUSH1 0x20 ADD SWAP1 PUSH1 0x1 ADD SWAP1 PUSH2 0x1738 JUMP JUMPDEST POP POP POP SWAP1 DUP3 MSTORE POP PUSH2 0x105 DUP3 ADD SLOAD PUSH1 0x20 SWAP1 SWAP2 ADD SWAP1 PUSH1 0xFF AND PUSH1 0x3 DUP2 GT ISZERO PUSH2 0x17F0 JUMPI PUSH2 0x17F0 PUSH2 0x212D JUMP JUMPDEST PUSH1 0x3 DUP2 GT ISZERO PUSH2 0x1801 JUMPI PUSH2 0x1801 PUSH2 0x212D JUMP JUMPDEST DUP2 MSTORE PUSH1 0x20 ADD PUSH2 0x106 DUP3 ADD PUSH1 0x40 MLOAD DUP1 PUSH1 0xE0 ADD PUSH1 0x40 MSTORE SWAP1 DUP2 PUSH1 0x0 DUP3 ADD SLOAD DUP2 MSTORE PUSH1 0x20 ADD PUSH1 0x1 DUP3 ADD SLOAD DUP2 MSTORE PUSH1 0x20 ADD PUSH1 0x2 DUP3 ADD SLOAD DUP2 MSTORE PUSH1 0x20 ADD PUSH1 0x3 DUP3 ADD SLOAD DUP2 MSTORE PUSH1 0x20 ADD PUSH1 0x4 DUP3 ADD SLOAD DUP2 MSTORE PUSH1 0x20 ADD PUSH1 0x5 DUP3 ADD SLOAD DUP2 MSTORE PUSH1 0x20 ADD PUSH1 0x6 DUP3 ADD SLOAD DUP2 MSTORE POP POP DUP2 MSTORE POP POP SWAP1 POP PUSH1 0x0 DUP2 PUSH1 0xA0 ADD MLOAD SWAP1 POP PUSH1 0x0 DUP3 PUSH1 0xE0 ADD MLOAD SWAP1 POP PUSH1 0x0 DUP1 SWAP5 POP PUSH1 0x0 JUMPDEST DUP3 MLOAD DUP2 LT ISZERO PUSH2 0x19DC JUMPI PUSH1 0x0 JUMPDEST DUP4 PUSH1 0x20 ADD MLOAD DUP2 LT ISZERO PUSH2 0x19C9 JUMPI PUSH1 0x0 DUP13 DUP2 MSTORE PUSH1 0x9A PUSH1 0x20 MSTORE PUSH1 0x40 SWAP1 KECCAK256 PUSH1 0x5 ADD DUP3 PUSH1 0x10 DUP2 LT PUSH2 0x18B6 JUMPI PUSH2 0x18B6 PUSH2 0x2384 JUMP JUMPDEST PUSH1 0x10 MUL ADD DUP2 PUSH1 0x10 DUP2 LT PUSH2 0x18CB JUMPI PUSH2 0x18CB PUSH2 0x2384 JUMP JUMPDEST ADD SLOAD PUSH3 0x10000 SWAP1 DIV PUSH1 0xFF AND ISZERO PUSH2 0x18E9 JUMPI DUP7 PUSH2 0x18E5 DUP2 PUSH2 0x23B0 JUMP JUMPDEST SWAP8 POP POP JUMPDEST PUSH1 0x0 DUP13 DUP2 MSTORE PUSH1 0x9A PUSH1 0x20 MSTORE PUSH1 0x40 SWAP1 KECCAK256 PUSH1 0x5 ADD DUP3 PUSH1 0x10 DUP2 LT PUSH2 0x190B JUMPI PUSH2 0x190B PUSH2 0x2384 JUMP JUMPDEST PUSH1 0x10 MUL ADD DUP2 PUSH1 0x10 DUP2 LT PUSH2 0x1920 JUMPI PUSH2 0x1920 PUSH2 0x2384 JUMP JUMPDEST ADD SLOAD PUSH3 0x10000 SWAP1 DIV PUSH1 0xFF AND DUP1 ISZERO PUSH2 0x1936 JUMPI POP DUP11 DUP3 EQ JUMPDEST DUP1 ISZERO PUSH2 0x1941 JUMPI POP DUP10 DUP2 EQ JUMPDEST DUP1 ISZERO PUSH2 0x194A JUMPI POP DUP9 JUMPDEST ISZERO PUSH2 0x1963 JUMPI POP PUSH1 0x2 SWAP7 POP PUSH1 0x0 SWAP6 POP PUSH2 0x19FC SWAP5 POP POP POP POP POP JUMP JUMPDEST PUSH1 0x0 DUP13 DUP2 MSTORE PUSH1 0x9A PUSH1 0x20 MSTORE PUSH1 0x40 SWAP1 KECCAK256 PUSH1 0x5 ADD DUP3 PUSH1 0x10 DUP2 LT PUSH2 0x1985 JUMPI PUSH2 0x1985 PUSH2 0x2384 JUMP JUMPDEST PUSH1 0x10 MUL ADD DUP2 PUSH1 0x10 DUP2 LT PUSH2 0x199A JUMPI PUSH2 0x199A PUSH2 0x2384 JUMP JUMPDEST ADD SLOAD PUSH3 0x10000 SWAP1 DIV PUSH1 0xFF AND PUSH2 0x19B7 JUMPI DUP3 PUSH2 0x19B3 DUP2 PUSH2 0x23B0 JUMP JUMPDEST SWAP4 POP POP JUMPDEST DUP1 PUSH2 0x19C1 DUP2 PUSH2 0x23B0 JUMP JUMPDEST SWAP2 POP POP PUSH2 0x1888 JUMP JUMPDEST POP DUP1 PUSH2 0x19D4 DUP2 PUSH2 0x23B0 JUMP JUMPDEST SWAP2 POP POP PUSH2 0x187C JUMP JUMPDEST POP DUP2 PUSH1 0x40 ADD MLOAD DUP2 EQ ISZERO PUSH2 0x19F2 JUMPI PUSH1 0x1 SWAP6 POP PUSH2 0x19F7 JUMP JUMPDEST PUSH1 0x0 SWAP6 POP JUMPDEST POP POP POP POP JUMPDEST SWAP5 POP SWAP5 SWAP3 POP POP POP JUMP JUMPDEST PUSH1 0x65 SLOAD PUSH1 0x1 PUSH1 0x1 PUSH1 0xA0 SHL SUB AND CALLER EQ PUSH2 0xB13 JUMPI PUSH1 0x40 MLOAD PUSH3 0x461BCD PUSH1 0xE5 SHL DUP2 MSTORE PUSH1 0x20 PUSH1 0x4 DUP3 ADD DUP2 SWAP1 MSTORE PUSH1 0x24 DUP3 ADD MSTORE PUSH32 0x4F776E61626C653A2063616C6C6572206973206E6F7420746865206F776E6572 PUSH1 0x44 DUP3 ADD MSTORE PUSH1 0x64 ADD PUSH2 0x642 JUMP JUMPDEST PUSH1 0x65 DUP1 SLOAD PUSH1 0x1 PUSH1 0x1 PUSH1 0xA0 SHL SUB DUP4 DUP2 AND PUSH1 0x1 PUSH1 0x1 PUSH1 0xA0 SHL SUB NOT DUP4 AND DUP2 OR SWAP1 SWAP4 SSTORE PUSH1 0x40 MLOAD SWAP2 AND SWAP2 SWAP1 DUP3 SWAP1 PUSH32 0x8BE0079C531659141344CD1FD0A4F28419497F9722A3DAAFE3B4186F6B6457E0 SWAP1 PUSH1 0x0 SWAP1 LOG3 POP POP JUMP JUMPDEST PUSH2 0x1AF1 PUSH1 0x40 MLOAD DUP1 PUSH1 0xE0 ADD PUSH1 0x40 MSTORE DUP1 PUSH1 0x0 DUP2 MSTORE PUSH1 0x20 ADD PUSH1 0x0 DUP2 MSTORE PUSH1 0x20 ADD PUSH1 0x0 DUP2 MSTORE PUSH1 0x20 ADD PUSH1 0x0 DUP2 MSTORE PUSH1 0x20 ADD PUSH1 0x0 DUP2 MSTORE PUSH1 0x20 ADD PUSH1 0x0 DUP2 MSTORE PUSH1 0x20 ADD PUSH1 0x0 DUP2 MSTORE POP SWAP1 JUMP JUMPDEST DUP2 ISZERO DUP1 PUSH2 0x1AFE JUMPI POP DUP2 PUSH1 0x1 EQ JUMPDEST DUP1 PUSH2 0x1B09 JUMPI POP DUP2 PUSH1 0x2 EQ JUMPDEST DUP1 PUSH2 0x1B14 JUMPI POP DUP2 PUSH1 0x3 EQ JUMPDEST PUSH2 0x1B1D JUMPI PUSH1 0x0 DUP1 REVERT JUMPDEST DUP2 PUSH2 0x1B55 JUMPI PUSH1 0x8 DUP1 DUP3 MSTORE PUSH1 0x20 DUP3 ADD MSTORE PUSH1 0xA PUSH1 0x40 DUP3 ADD MSTORE PUSH1 0x36 PUSH1 0x80 DUP3 ADD MSTORE PUSH2 0x1F4 PUSH1 0xA0 DUP3 ADD MSTORE PUSH1 0x1 PUSH1 0x60 DUP3 ADD MSTORE PUSH1 0x7 PUSH1 0xC0 DUP3 ADD MSTORE SWAP2 SWAP1 POP JUMP JUMPDEST DUP2 PUSH1 0x1 EQ ISZERO PUSH2 0x1B91 JUMPI PUSH1 0xA DUP1 DUP3 MSTORE PUSH1 0x20 DUP3 ADD MSTORE PUSH1 0xF PUSH1 0x40 DUP3 ADD MSTORE PUSH1 0x55 PUSH1 0x80 DUP3 ADD MSTORE PUSH2 0x30C PUSH1 0xA0 DUP3 ADD MSTORE PUSH1 0x2 PUSH1 0x60 DUP3 ADD MSTORE PUSH1 0x7 PUSH1 0xC0 DUP3 ADD MSTORE SWAP2 SWAP1 POP JUMP JUMPDEST DUP2 PUSH1 0x2 EQ ISZERO PUSH2 0x1BCD JUMPI PUSH1 0xC DUP1 DUP3 MSTORE PUSH1 0x20 DUP3 ADD MSTORE PUSH1 0x1E PUSH1 0x40 DUP3 ADD MSTORE PUSH1 0x72 PUSH1 0x80 DUP3 ADD MSTORE PUSH2 0x465 PUSH1 0xA0 DUP3 ADD MSTORE PUSH1 0x3 PUSH1 0x60 DUP3 ADD MSTORE PUSH1 0x7 PUSH1 0xC0 DUP3 ADD MSTORE SWAP2 SWAP1 POP JUMP JUMPDEST PUSH1 0x10 DUP1 DUP3 MSTORE PUSH1 0x20 DUP3 ADD MSTORE PUSH1 0x50 PUSH1 0x40 DUP3 ADD MSTORE PUSH1 0xB0 PUSH1 0x80 DUP3 ADD MSTORE PUSH2 0x6A4 PUSH1 0xA0 DUP3 ADD MSTORE PUSH1 0x4 PUSH1 0x60 DUP3 ADD MSTORE PUSH1 0x7 PUSH1 0xC0 DUP3 ADD MSTORE JUMPDEST SWAP2 SWAP1 POP JUMP JUMPDEST PUSH1 0x0 DUP2 PUSH1 0x9D PUSH1 0x0 PUSH1 0x1 PUSH1 0x9C SLOAD PUSH2 0x1C17 SWAP2 SWAP1 PUSH2 0x23EA JUMP JUMPDEST DUP2 MSTORE PUSH1 0x20 ADD SWAP1 DUP2 MSTORE PUSH1 0x20 ADD PUSH1 0x0 KECCAK256 PUSH1 0x1 ADD SLOAD LT PUSH2 0x1C36 JUMPI POP PUSH1 0x0 PUSH2 0x1D9B JUMP JUMPDEST PUSH1 0x0 JUMPDEST PUSH1 0x9C SLOAD DUP2 LT ISZERO PUSH2 0x1D95 JUMPI PUSH1 0x0 DUP2 DUP2 MSTORE PUSH1 0x9D PUSH1 0x20 MSTORE PUSH1 0x40 SWAP1 KECCAK256 PUSH1 0x1 ADD SLOAD DUP4 GT ISZERO PUSH2 0x1D83 JUMPI PUSH1 0x0 DUP2 DUP2 MSTORE PUSH1 0x9D PUSH1 0x20 SWAP1 DUP2 MSTORE PUSH1 0x40 DUP1 DUP4 KECCAK256 DUP2 MLOAD DUP1 DUP4 ADD SWAP1 SWAP3 MSTORE DUP1 SLOAD PUSH1 0x1 PUSH1 0x1 PUSH1 0xA0 SHL SUB AND DUP3 MSTORE PUSH1 0x1 SWAP1 DUP2 ADD SLOAD SWAP3 DUP3 ADD SWAP3 SWAP1 SWAP3 MSTORE SWAP2 SWAP1 PUSH2 0x1C9C SWAP1 DUP5 SWAP1 PUSH2 0x248C JUMP JUMPDEST SWAP1 POP JUMPDEST PUSH1 0x9C SLOAD PUSH2 0x1CAD SWAP1 PUSH1 0x1 PUSH2 0x248C JUMP JUMPDEST DUP2 LT ISZERO PUSH2 0x1D1D JUMPI PUSH1 0x0 DUP2 DUP2 MSTORE PUSH1 0x9D PUSH1 0x20 DUP2 DUP2 MSTORE PUSH1 0x40 DUP1 DUP5 KECCAK256 DUP2 MLOAD DUP1 DUP4 ADD SWAP1 SWAP3 MSTORE DUP1 SLOAD PUSH1 0x1 PUSH1 0x1 PUSH1 0xA0 SHL SUB DUP1 DUP3 AND DUP5 MSTORE PUSH1 0x1 DUP4 ADD DUP1 SLOAD DUP6 DUP8 ADD MSTORE SWAP7 DUP9 SWAP1 MSTORE SWAP5 DUP5 MSTORE DUP8 MLOAD PUSH1 0x1 PUSH1 0x1 PUSH1 0xA0 SHL SUB NOT SWAP1 SWAP2 AND SWAP5 AND SWAP4 SWAP1 SWAP4 OR SWAP1 SWAP3 SSTORE SWAP4 SWAP1 SWAP4 ADD MLOAD SWAP1 SSTORE DUP1 PUSH2 0x1D15 DUP2 PUSH2 0x23B0 JUMP JUMPDEST SWAP2 POP POP PUSH2 0x1C9F JUMP JUMPDEST POP POP PUSH1 0x40 DUP1 MLOAD DUP1 DUP3 ADD DUP3 MSTORE PUSH1 0x1 PUSH1 0x1 PUSH1 0xA0 SHL SUB DUP1 DUP8 AND DUP3 MSTORE PUSH1 0x20 DUP1 DUP4 ADD DUP8 DUP2 MSTORE PUSH1 0x0 SWAP6 DUP7 MSTORE PUSH1 0x9D SWAP1 SWAP2 MSTORE DUP4 DUP6 KECCAK256 SWAP3 MLOAD DUP4 SLOAD SWAP3 AND PUSH1 0x1 PUSH1 0x1 PUSH1 0xA0 SHL SUB NOT SWAP3 DUP4 AND OR DUP4 SSTORE MLOAD PUSH1 0x1 SWAP3 DUP4 ADD SSTORE PUSH1 0x9C SLOAD DUP5 MSTORE SWAP2 DUP4 KECCAK256 DUP1 SLOAD SWAP1 SWAP3 AND DUP3 SSTORE SWAP1 DUP2 ADD SWAP2 SWAP1 SWAP2 SSTORE SWAP1 POP PUSH2 0x1D9B JUMP JUMPDEST DUP1 PUSH2 0x1D8D DUP2 PUSH2 0x23B0 JUMP JUMPDEST SWAP2 POP POP PUSH2 0x1C39 JUMP JUMPDEST POP PUSH1 0x0 SWAP1 POP JUMPDEST SWAP3 SWAP2 POP POP JUMP JUMPDEST PUSH1 0x0 SLOAD PUSH2 0x100 SWAP1 DIV PUSH1 0xFF AND PUSH2 0x1DC8 JUMPI PUSH1 0x40 MLOAD PUSH3 0x461BCD PUSH1 0xE5 SHL DUP2 MSTORE PUSH1 0x4 ADD PUSH2 0x642 SWAP1 PUSH2 0x24A4 JUMP JUMPDEST PUSH2 0xB13 PUSH2 0x1DFF JUMP JUMPDEST PUSH1 0x0 SLOAD PUSH2 0x100 SWAP1 DIV PUSH1 0xFF AND PUSH2 0x1DF7 JUMPI PUSH1 0x40 MLOAD PUSH3 0x461BCD PUSH1 0xE5 SHL DUP2 MSTORE PUSH1 0x4 ADD PUSH2 0x642 SWAP1 PUSH2 0x24A4 JUMP JUMPDEST PUSH2 0xB13 PUSH2 0x1E2C JUMP JUMPDEST PUSH1 0x0 SLOAD PUSH2 0x100 SWAP1 DIV PUSH1 0xFF AND PUSH2 0x1E26 JUMPI PUSH1 0x40 MLOAD PUSH3 0x461BCD PUSH1 0xE5 SHL DUP2 MSTORE PUSH1 0x4 ADD PUSH2 0x642 SWAP1 PUSH2 0x24A4 JUMP JUMPDEST PUSH1 0x1 DUP1 SSTORE JUMP JUMPDEST PUSH1 0x0 SLOAD PUSH2 0x100 SWAP1 DIV PUSH1 0xFF AND PUSH2 0x1E53 JUMPI PUSH1 0x40 MLOAD PUSH3 0x461BCD PUSH1 0xE5 SHL DUP2 MSTORE PUSH1 0x4 ADD PUSH2 0x642 SWAP1 PUSH2 0x24A4 JUMP JUMPDEST PUSH2 0xB13 CALLER PUSH2 0x1A5F JUMP JUMPDEST PUSH1 0x0 DUP1 PUSH1 0x0 PUSH1 0x60 DUP5 DUP7 SUB SLT ISZERO PUSH2 0x1E71 JUMPI PUSH1 0x0 DUP1 REVERT JUMPDEST POP POP DUP2 CALLDATALOAD SWAP4 PUSH1 0x20 DUP4 ADD CALLDATALOAD SWAP4 POP PUSH1 0x40 SWAP1 SWAP3 ADD CALLDATALOAD SWAP2 SWAP1 POP JUMP JUMPDEST DUP1 CALLDATALOAD PUSH1 0xFF DUP2 AND DUP2 EQ PUSH2 0x1BFC JUMPI PUSH1 0x0 DUP1 REVERT JUMPDEST DUP1 CALLDATALOAD DUP1 ISZERO ISZERO DUP2 EQ PUSH2 0x1BFC JUMPI PUSH1 0x0 DUP1 REVERT JUMPDEST PUSH4 0x4E487B71 PUSH1 0xE0 SHL PUSH1 0x0 MSTORE PUSH1 0x41 PUSH1 0x4 MSTORE PUSH1 0x24 PUSH1 0x0 REVERT JUMPDEST PUSH1 0x40 MLOAD PUSH1 0x80 DUP2 ADD PUSH8 0xFFFFFFFFFFFFFFFF DUP2 GT DUP3 DUP3 LT OR ISZERO PUSH2 0x1EE2 JUMPI PUSH2 0x1EE2 PUSH2 0x1EA9 JUMP JUMPDEST PUSH1 0x40 MSTORE SWAP1 JUMP JUMPDEST PUSH1 0x40 MLOAD PUSH1 0xE0 DUP2 ADD PUSH8 0xFFFFFFFFFFFFFFFF DUP2 GT DUP3 DUP3 LT OR ISZERO PUSH2 0x1EE2 JUMPI PUSH2 0x1EE2 PUSH2 0x1EA9 JUMP JUMPDEST PUSH1 0x40 MLOAD PUSH1 0x1F DUP3 ADD PUSH1 0x1F NOT AND DUP2 ADD PUSH8 0xFFFFFFFFFFFFFFFF DUP2 GT DUP3 DUP3 LT OR ISZERO PUSH2 0x1F34 JUMPI PUSH2 0x1F34 PUSH2 0x1EA9 JUMP JUMPDEST PUSH1 0x40 MSTORE SWAP2 SWAP1 POP JUMP JUMPDEST PUSH1 0x0 PUSH8 0xFFFFFFFFFFFFFFFF DUP3 GT ISZERO PUSH2 0x1F56 JUMPI PUSH2 0x1F56 PUSH2 0x1EA9 JUMP JUMPDEST POP PUSH1 0x5 SHL PUSH1 0x20 ADD SWAP1 JUMP JUMPDEST PUSH1 0x0 DUP3 PUSH1 0x1F DUP4 ADD SLT PUSH2 0x1F71 JUMPI PUSH1 0x0 DUP1 REVERT JUMPDEST DUP2 CALLDATALOAD PUSH1 0x20 PUSH2 0x1F86 PUSH2 0x1F81 DUP4 PUSH2 0x1F3C JUMP JUMPDEST PUSH2 0x1F0B JUMP JUMPDEST DUP3 DUP2 MSTORE PUSH1 0x5 SWAP3 SWAP1 SWAP3 SHL DUP5 ADD DUP2 ADD SWAP2 DUP2 DUP2 ADD SWAP1 DUP7 DUP5 GT ISZERO PUSH2 0x1FA5 JUMPI PUSH1 0x0 DUP1 REVERT JUMPDEST DUP3 DUP7 ADD JUMPDEST DUP5 DUP2 LT ISZERO PUSH2 0x2090 JUMPI DUP1 CALLDATALOAD PUSH8 0xFFFFFFFFFFFFFFFF DUP2 GT ISZERO PUSH2 0x1FC9 JUMPI PUSH1 0x0 DUP1 DUP2 REVERT JUMPDEST DUP8 ADD PUSH1 0x3F DUP2 ADD DUP10 SGT PUSH2 0x1FDB JUMPI PUSH1 0x0 DUP1 DUP2 REVERT JUMPDEST DUP5 DUP2 ADD CALLDATALOAD PUSH1 0x40 PUSH2 0x1FED PUSH2 0x1F81 DUP4 PUSH2 0x1F3C JUMP JUMPDEST DUP3 DUP2 MSTORE PUSH1 0x7 SWAP3 SWAP1 SWAP3 SHL DUP4 ADD DUP2 ADD SWAP2 DUP8 DUP2 ADD SWAP1 DUP13 DUP5 GT ISZERO PUSH2 0x200D JUMPI PUSH1 0x0 DUP1 DUP2 REVERT JUMPDEST SWAP4 DUP3 ADD SWAP4 JUMPDEST DUP4 DUP6 LT ISZERO PUSH2 0x207F JUMPI PUSH1 0x80 DUP6 DUP15 SUB SLT ISZERO PUSH2 0x202B JUMPI PUSH1 0x0 DUP1 DUP2 REVERT JUMPDEST PUSH2 0x2033 PUSH2 0x1EBF JUMP JUMPDEST PUSH2 0x203C DUP7 PUSH2 0x1E99 JUMP JUMPDEST DUP2 MSTORE PUSH2 0x2049 DUP11 DUP8 ADD PUSH2 0x1E88 JUMP JUMPDEST DUP11 DUP3 ADD MSTORE PUSH2 0x2058 DUP5 DUP8 ADD PUSH2 0x1E99 JUMP JUMPDEST DUP5 DUP3 ADD MSTORE PUSH1 0x60 PUSH2 0x2069 DUP2 DUP9 ADD PUSH2 0x1E99 JUMP JUMPDEST SWAP1 DUP3 ADD MSTORE DUP3 MSTORE PUSH1 0x80 SWAP5 SWAP1 SWAP5 ADD SWAP4 SWAP1 DUP9 ADD SWAP1 PUSH2 0x2012 JUMP JUMPDEST DUP8 MSTORE POP POP POP SWAP3 DUP5 ADD SWAP3 POP DUP4 ADD PUSH2 0x1FA9 JUMP JUMPDEST POP SWAP7 SWAP6 POP POP POP POP POP POP JUMP JUMPDEST PUSH1 0x0 DUP1 PUSH1 0x0 DUP1 PUSH1 0x0 PUSH1 0xA0 DUP7 DUP9 SUB SLT ISZERO PUSH2 0x20B3 JUMPI PUSH1 0x0 DUP1 REVERT JUMPDEST DUP6 CALLDATALOAD SWAP5 POP PUSH2 0x20C3 PUSH1 0x20 DUP8 ADD PUSH2 0x1E88 JUMP JUMPDEST SWAP4 POP PUSH2 0x20D1 PUSH1 0x40 DUP8 ADD PUSH2 0x1E88 JUMP JUMPDEST SWAP3 POP PUSH2 0x20DF PUSH1 0x60 DUP8 ADD PUSH2 0x1E99 JUMP JUMPDEST SWAP2 POP PUSH1 0x80 DUP7 ADD CALLDATALOAD PUSH8 0xFFFFFFFFFFFFFFFF DUP2 GT ISZERO PUSH2 0x20FB JUMPI PUSH1 0x0 DUP1 REVERT JUMPDEST PUSH2 0x2107 DUP9 DUP3 DUP10 ADD PUSH2 0x1F60 JUMP JUMPDEST SWAP2 POP POP SWAP3 SWAP6 POP SWAP3 SWAP6 SWAP1 SWAP4 POP JUMP JUMPDEST PUSH1 0x0 PUSH1 0x20 DUP3 DUP5 SUB SLT ISZERO PUSH2 0x2126 JUMPI PUSH1 0x0 DUP1 REVERT JUMPDEST POP CALLDATALOAD SWAP2 SWAP1 POP JUMP JUMPDEST PUSH4 0x4E487B71 PUSH1 0xE0 SHL PUSH1 0x0 MSTORE PUSH1 0x21 PUSH1 0x4 MSTORE PUSH1 0x24 PUSH1 0x0 REVERT JUMPDEST PUSH1 0x4 DUP2 LT PUSH2 0x2161 JUMPI PUSH4 0x4E487B71 PUSH1 0xE0 SHL PUSH1 0x0 MSTORE PUSH1 0x21 PUSH1 0x4 MSTORE PUSH1 0x24 PUSH1 0x0 REVERT JUMPDEST SWAP1 MSTORE JUMP JUMPDEST PUSH1 0x1 PUSH1 0x1 PUSH1 0xA0 SHL SUB DUP9 AND DUP2 MSTORE PUSH1 0x20 DUP2 ADD DUP8 SWAP1 MSTORE PUSH1 0x40 DUP2 ADD DUP7 SWAP1 MSTORE PUSH1 0x60 DUP2 ADD DUP6 SWAP1 MSTORE PUSH1 0x80 DUP2 ADD DUP5 SWAP1 MSTORE PUSH2 0x1A0 DUP2 ADD PUSH2 0x219F PUSH1 0xA0 DUP4 ADD DUP6 PUSH2 0x2143 JUMP JUMPDEST DUP3 MLOAD PUSH1 0xC0 DUP4 ADD MSTORE PUSH1 0x20 DUP4 ADD MLOAD PUSH1 0xE0 DUP4 ADD MSTORE PUSH1 0x40 DUP4 ADD MLOAD PUSH2 0x100 DUP4 ADD MSTORE PUSH1 0x60 DUP4 ADD MLOAD PUSH2 0x120 DUP4 ADD MSTORE PUSH1 0x80 DUP4 ADD MLOAD PUSH2 0x140 DUP4 ADD MSTORE PUSH1 0xA0 DUP4 ADD MLOAD PUSH2 0x160 DUP4 ADD MSTORE PUSH1 0xC0 DUP4 ADD MLOAD PUSH2 0x180 DUP4 ADD MSTORE SWAP9 SWAP8 POP POP POP POP POP POP POP POP JUMP JUMPDEST DUP1 CALLDATALOAD PUSH1 0x1 PUSH1 0x1 PUSH1 0xA0 SHL SUB DUP2 AND DUP2 EQ PUSH2 0x1BFC JUMPI PUSH1 0x0 DUP1 REVERT JUMPDEST PUSH1 0x0 PUSH1 0x20 DUP3 DUP5 SUB SLT ISZERO PUSH2 0x221C JUMPI PUSH1 0x0 DUP1 REVERT JUMPDEST PUSH2 0x46D DUP3 PUSH2 0x21F3 JUMP JUMPDEST PUSH1 0x0 DUP1 PUSH1 0x0 DUP1 PUSH1 0x80 DUP6 DUP8 SUB SLT ISZERO PUSH2 0x223B JUMPI PUSH1 0x0 DUP1 REVERT JUMPDEST DUP5 CALLDATALOAD SWAP4 POP PUSH2 0x224B PUSH1 0x20 DUP7 ADD PUSH2 0x1E88 JUMP JUMPDEST SWAP3 POP PUSH2 0x2259 PUSH1 0x40 DUP7 ADD PUSH2 0x1E88 JUMP JUMPDEST SWAP2 POP PUSH2 0x2267 PUSH1 0x60 DUP7 ADD PUSH2 0x1E99 JUMP JUMPDEST SWAP1 POP SWAP3 SWAP6 SWAP2 SWAP5 POP SWAP3 POP JUMP JUMPDEST PUSH1 0x0 DUP1 PUSH1 0x40 DUP4 DUP6 SUB SLT ISZERO PUSH2 0x2285 JUMPI PUSH1 0x0 DUP1 REVERT JUMPDEST DUP3 CALLDATALOAD SWAP2 POP PUSH1 0x20 DUP4 ADD CALLDATALOAD PUSH8 0xFFFFFFFFFFFFFFFF DUP2 GT ISZERO PUSH2 0x22A3 JUMPI PUSH1 0x0 DUP1 REVERT JUMPDEST PUSH2 0x22AF DUP6 DUP3 DUP7 ADD PUSH2 0x1F60 JUMP JUMPDEST SWAP2 POP POP SWAP3 POP SWAP3 SWAP1 POP JUMP JUMPDEST PUSH1 0x0 DUP1 PUSH1 0x0 DUP4 DUP6 SUB PUSH2 0x120 DUP2 SLT ISZERO PUSH2 0x22D0 JUMPI PUSH1 0x0 DUP1 REVERT JUMPDEST PUSH1 0xE0 DUP2 SLT ISZERO PUSH2 0x22DE JUMPI PUSH1 0x0 DUP1 REVERT JUMPDEST POP PUSH2 0x22E7 PUSH2 0x1EE8 JUMP JUMPDEST DUP5 CALLDATALOAD DUP2 MSTORE PUSH1 0x20 DUP6 ADD CALLDATALOAD PUSH1 0x20 DUP3 ADD MSTORE PUSH1 0x40 DUP6 ADD CALLDATALOAD PUSH1 0x40 DUP3 ADD MSTORE PUSH1 0x60 DUP6 ADD CALLDATALOAD PUSH1 0x60 DUP3 ADD MSTORE PUSH1 0x80 DUP6 ADD CALLDATALOAD PUSH1 0x80 DUP3 ADD MSTORE PUSH1 0xA0 DUP6 ADD CALLDATALOAD PUSH1 0xA0 DUP3 ADD MSTORE PUSH1 0xC0 DUP6 ADD CALLDATALOAD PUSH1 0xC0 DUP3 ADD MSTORE DUP1 SWAP4 POP POP PUSH1 0xE0 DUP5 ADD CALLDATALOAD SWAP2 POP PUSH2 0x100 DUP5 ADD CALLDATALOAD SWAP1 POP SWAP3 POP SWAP3 POP SWAP3 JUMP JUMPDEST PUSH1 0x0 DUP1 PUSH1 0x0 PUSH1 0x60 DUP5 DUP7 SUB SLT ISZERO PUSH2 0x2356 JUMPI PUSH1 0x0 DUP1 REVERT JUMPDEST PUSH2 0x235F DUP5 PUSH2 0x21F3 JUMP JUMPDEST SWAP3 POP PUSH2 0x236D PUSH1 0x20 DUP6 ADD PUSH2 0x21F3 JUMP JUMPDEST SWAP2 POP PUSH2 0x237B PUSH1 0x40 DUP6 ADD PUSH2 0x21F3 JUMP JUMPDEST SWAP1 POP SWAP3 POP SWAP3 POP SWAP3 JUMP JUMPDEST PUSH4 0x4E487B71 PUSH1 0xE0 SHL PUSH1 0x0 MSTORE PUSH1 0x32 PUSH1 0x4 MSTORE PUSH1 0x24 PUSH1 0x0 REVERT JUMPDEST PUSH4 0x4E487B71 PUSH1 0xE0 SHL PUSH1 0x0 MSTORE PUSH1 0x11 PUSH1 0x4 MSTORE PUSH1 0x24 PUSH1 0x0 REVERT JUMPDEST PUSH1 0x0 PUSH1 0x0 NOT DUP3 EQ ISZERO PUSH2 0x23C4 JUMPI PUSH2 0x23C4 PUSH2 0x239A JUMP JUMPDEST POP PUSH1 0x1 ADD SWAP1 JUMP JUMPDEST PUSH1 0x0 DUP2 PUSH1 0x0 NOT DIV DUP4 GT DUP3 ISZERO ISZERO AND ISZERO PUSH2 0x23E5 JUMPI PUSH2 0x23E5 PUSH2 0x239A JUMP JUMPDEST POP MUL SWAP1 JUMP JUMPDEST PUSH1 0x0 DUP3 DUP3 LT ISZERO PUSH2 0x23FC JUMPI PUSH2 0x23FC PUSH2 0x239A JUMP JUMPDEST POP SUB SWAP1 JUMP JUMPDEST DUP3 DUP2 MSTORE PUSH1 0x40 DUP2 ADD PUSH2 0x46D PUSH1 0x20 DUP4 ADD DUP5 PUSH2 0x2143 JUMP JUMPDEST PUSH1 0x0 PUSH1 0x20 DUP1 DUP4 MSTORE DUP4 MLOAD DUP1 DUP3 DUP6 ADD MSTORE PUSH1 0x0 JUMPDEST DUP2 DUP2 LT ISZERO PUSH2 0x2442 JUMPI DUP6 DUP2 ADD DUP4 ADD MLOAD DUP6 DUP3 ADD PUSH1 0x40 ADD MSTORE DUP3 ADD PUSH2 0x2426 JUMP JUMPDEST DUP2 DUP2 GT ISZERO PUSH2 0x2454 JUMPI PUSH1 0x0 PUSH1 0x40 DUP4 DUP8 ADD ADD MSTORE JUMPDEST POP PUSH1 0x1F ADD PUSH1 0x1F NOT AND SWAP3 SWAP1 SWAP3 ADD PUSH1 0x40 ADD SWAP4 SWAP3 POP POP POP JUMP JUMPDEST PUSH1 0x0 DUP3 PUSH2 0x2487 JUMPI PUSH4 0x4E487B71 PUSH1 0xE0 SHL PUSH1 0x0 MSTORE PUSH1 0x12 PUSH1 0x4 MSTORE PUSH1 0x24 PUSH1 0x0 REVERT JUMPDEST POP DIV SWAP1 JUMP JUMPDEST PUSH1 0x0 DUP3 NOT DUP3 GT ISZERO PUSH2 0x249F JUMPI PUSH2 0x249F PUSH2 0x239A JUMP JUMPDEST POP ADD SWAP1 JUMP JUMPDEST PUSH1 0x20 DUP1 DUP3 MSTORE PUSH1 0x2B SWAP1 DUP3 ADD MSTORE PUSH32 0x496E697469616C697A61626C653A20636F6E7472616374206973206E6F742069 PUSH1 0x40 DUP3 ADD MSTORE PUSH11 0x6E697469616C697A696E67 PUSH1 0xA8 SHL PUSH1 0x60 DUP3 ADD MSTORE PUSH1 0x80 ADD SWAP1 JUMP INVALID LOG2 PUSH5 0x6970667358 0x22 SLT KECCAK256 PUSH27 0xCE6B44536DEBEEF676533392118C2AE75B9D9AAD31185C9736419F GT 0xC7 BASEFEE EQ PUSH5 0x736F6C6343 STOP ADDMOD 0xC STOP CALLER "},"methodIdentifiers":{"CheckFinish(uint256,(bool,uint8,bool,bool)[][])":"a953e1f3","Flag(uint256,uint8,uint8,bool)":"a1c18b43","InitGame(uint256)":"7b321348","Move(uint256,uint8,uint8,bool,(bool,uint8,bool,bool)[][])":"3b45c8c1","_admin()":"01bc45c9","_currentGameId()":"7702e006","_erc20Token()":"efb54029","_games(uint256)":"41eb8b8b","_leaderboard(uint256)":"ced5447b","_paramsAddress()":"adfc7dae","calculateScore((uint256,uint256,uint256,uint256,uint256,uint256,uint256),uint256,uint256)":"adb61f43","changeAdmin(address)":"8f283970","changeERC20Token(address)":"695b3e6c","changeParam(address)":"741149b1","getGameState(uint256,uint256,uint256)":"1426150c","initialize(address,address,address)":"c0c53b8b","owner()":"8da5cb5b","renounceOwnership()":"715018a6","transferOwnership(address)":"f2fde38b"}},"storageLayout":{"storage":[{"astId":138,"contract":"contracts/Minesweeper.sol:Minesweeper","label":"_initialized","offset":0,"slot":"0","type":"t_uint8"},{"astId":141,"contract":"contracts/Minesweeper.sol:Minesweeper","label":"_initializing","offset":1,"slot":"0","type":"t_bool"},{"astId":314,"contract":"contracts/Minesweeper.sol:Minesweeper","label":"_status","offset":0,"slot":"1","type":"t_uint256"},{"astId":383,"contract":"contracts/Minesweeper.sol:Minesweeper","label":"__gap","offset":0,"slot":"2","type":"t_array(t_uint256)49_storage"},{"astId":833,"contract":"contracts/Minesweeper.sol:Minesweeper","label":"__gap","offset":0,"slot":"51","type":"t_array(t_uint256)50_storage"},{"astId":10,"contract":"contracts/Minesweeper.sol:Minesweeper","label":"_owner","offset":0,"slot":"101","type":"t_address"},{"astId":130,"contract":"contracts/Minesweeper.sol:Minesweeper","label":"__gap","offset":0,"slot":"102","type":"t_array(t_uint256)49_storage"},{"astId":850,"contract":"contracts/Minesweeper.sol:Minesweeper","label":"_admin","offset":0,"slot":"151","type":"t_address"},{"astId":852,"contract":"contracts/Minesweeper.sol:Minesweeper","label":"_paramsAddress","offset":0,"slot":"152","type":"t_address"},{"astId":854,"contract":"contracts/Minesweeper.sol:Minesweeper","label":"_erc20Token","offset":0,"slot":"153","type":"t_address"},{"astId":859,"contract":"contracts/Minesweeper.sol:Minesweeper","label":"_games","offset":0,"slot":"154","type":"t_mapping(t_uint256,t_struct(Game)2268_storage)"},{"astId":861,"contract":"contracts/Minesweeper.sol:Minesweeper","label":"_currentGameId","offset":0,"slot":"155","type":"t_uint256"},{"astId":863,"contract":"contracts/Minesweeper.sol:Minesweeper","label":"_leaderboardLength","offset":0,"slot":"156","type":"t_uint256"},{"astId":868,"contract":"contracts/Minesweeper.sol:Minesweeper","label":"_leaderboard","offset":0,"slot":"157","type":"t_mapping(t_uint256,t_struct(Player)2300_storage)"}],"types":{"t_address":{"encoding":"inplace","label":"address","numberOfBytes":"20"},"t_array(t_array(t_struct(BoardStateCell)2277_storage)16_storage)16_storage":{"base":"t_array(t_struct(BoardStateCell)2277_storage)16_storage","encoding":"inplace","label":"struct GameData.BoardStateCell[16][16]","numberOfBytes":"8192"},"t_array(t_struct(BoardStateCell)2277_storage)16_storage":{"base":"t_struct(BoardStateCell)2277_storage","encoding":"inplace","label":"struct GameData.BoardStateCell[16]","numberOfBytes":"512"},"t_array(t_uint256)49_storage":{"base":"t_uint256","encoding":"inplace","label":"uint256[49]","numberOfBytes":"1568"},"t_array(t_uint256)50_storage":{"base":"t_uint256","encoding":"inplace","label":"uint256[50]","numberOfBytes":"1600"},"t_bool":{"encoding":"inplace","label":"bool","numberOfBytes":"1"},"t_enum(GameResult)2244":{"encoding":"inplace","label":"enum GameData.GameResult","numberOfBytes":"1"},"t_mapping(t_uint256,t_struct(Game)2268_storage)":{"encoding":"mapping","key":"t_uint256","label":"mapping(uint256 => struct GameData.Game)","numberOfBytes":"32","value":"t_struct(Game)2268_storage"},"t_mapping(t_uint256,t_struct(Player)2300_storage)":{"encoding":"mapping","key":"t_uint256","label":"mapping(uint256 => struct LeaderBoardData.Player)","numberOfBytes":"32","value":"t_struct(Player)2300_storage"},"t_struct(BoardStateCell)2277_storage":{"encoding":"inplace","label":"struct GameData.BoardStateCell","members":[{"astId":2270,"contract":"contracts/Minesweeper.sol:Minesweeper","label":"_isMine","offset":0,"slot":"0","type":"t_bool"},{"astId":2272,"contract":"contracts/Minesweeper.sol:Minesweeper","label":"_adjacentMines","offset":1,"slot":"0","type":"t_uint8"},{"astId":2274,"contract":"contracts/Minesweeper.sol:Minesweeper","label":"_isRevealed","offset":2,"slot":"0","type":"t_bool"},{"astId":2276,"contract":"contracts/Minesweeper.sol:Minesweeper","label":"_isFlagged","offset":3,"slot":"0","type":"t_bool"}],"numberOfBytes":"32"},"t_struct(Game)2268_storage":{"encoding":"inplace","label":"struct GameData.Game","members":[{"astId":2246,"contract":"contracts/Minesweeper.sol:Minesweeper","label":"_player","offset":0,"slot":"0","type":"t_address"},{"astId":2248,"contract":"contracts/Minesweeper.sol:Minesweeper","label":"_numberMines","offset":0,"slot":"1","type":"t_uint256"},{"astId":2250,"contract":"contracts/Minesweeper.sol:Minesweeper","label":"_start","offset":0,"slot":"2","type":"t_uint256"},{"astId":2252,"contract":"contracts/Minesweeper.sol:Minesweeper","label":"_lastMove","offset":0,"slot":"3","type":"t_uint256"},{"astId":2254,"contract":"contracts/Minesweeper.sol:Minesweeper","label":"_countMove","offset":0,"slot":"4","type":"t_uint256"},{"astId":2261,"contract":"contracts/Minesweeper.sol:Minesweeper","label":"_boardState","offset":0,"slot":"5","type":"t_array(t_array(t_struct(BoardStateCell)2277_storage)16_storage)16_storage"},{"astId":2264,"contract":"contracts/Minesweeper.sol:Minesweeper","label":"_result","offset":0,"slot":"261","type":"t_enum(GameResult)2244"},{"astId":2267,"contract":"contracts/Minesweeper.sol:Minesweeper","label":"_level","offset":0,"slot":"262","type":"t_struct(GameLevel)2292_storage"}],"numberOfBytes":"8608"},"t_struct(GameLevel)2292_storage":{"encoding":"inplace","label":"struct GameData.GameLevel","members":[{"astId":2279,"contract":"contracts/Minesweeper.sol:Minesweeper","label":"rows","offset":0,"slot":"0","type":"t_uint256"},{"astId":2281,"contract":"contracts/Minesweeper.sol:Minesweeper","label":"cols","offset":0,"slot":"1","type":"t_uint256"},{"astId":2283,"contract":"contracts/Minesweeper.sol:Minesweeper","label":"numMine","offset":0,"slot":"2","type":"t_uint256"},{"astId":2285,"contract":"contracts/Minesweeper.sol:Minesweeper","label":"baseScore","offset":0,"slot":"3","type":"t_uint256"},{"astId":2287,"contract":"contracts/Minesweeper.sol:Minesweeper","label":"totalMove","offset":0,"slot":"4","type":"t_uint256"},{"astId":2289,"contract":"contracts/Minesweeper.sol:Minesweeper","label":"maxTime","offset":0,"slot":"5","type":"t_uint256"},{"astId":2291,"contract":"contracts/Minesweeper.sol:Minesweeper","label":"minMoves","offset":0,"slot":"6","type":"t_uint256"}],"numberOfBytes":"224"},"t_struct(Player)2300_storage":{"encoding":"inplace","label":"struct LeaderBoardData.Player","members":[{"astId":2297,"contract":"contracts/Minesweeper.sol:Minesweeper","label":"player","offset":0,"slot":"0","type":"t_address"},{"astId":2299,"contract":"contracts/Minesweeper.sol:Minesweeper","label":"score","offset":0,"slot":"1","type":"t_uint256"}],"numberOfBytes":"64"},"t_uint256":{"encoding":"inplace","label":"uint256","numberOfBytes":"32"},"t_uint8":{"encoding":"inplace","label":"uint8","numberOfBytes":"1"}}}}}}