{
  "_format": "hh-sol-artifact-1",
  "contractName": "Errors",
  "sourceName": "contracts/libs/helpers/Errors.sol",
  "abi": [
    {
      "inputs": [],
      "name": "INV_ADD",
      "outputs": [
        {
          "internalType": "string",
          "name": "",
          "type": "string"
        }
      ],
      "stateMutability": "view",
      "type": "function"
    },
    {
      "inputs": [],
      "name": "INV_ADD_GAME_CONTRACT",
      "outputs": [
        {
          "internalType": "string",
          "name": "",
          "type": "string"
        }
      ],
      "stateMutability": "view",
      "type": "function"
    },
    {
      "inputs": [],
      "name": "INV_GAME_ID",
      "outputs": [
        {
          "internalType": "string",
          "name": "",
          "type": "string"
        }
      ],
      "stateMutability": "view",
      "type": "function"
    },
    {
      "inputs": [],
      "name": "MISSING_NAME",
      "outputs": [
        {
          "internalType": "string",
          "name": "",
          "type": "string"
        }
      ],
      "stateMutability": "view",
      "type": "function"
    },
    {
      "inputs": [],
      "name": "ONLY_ADMIN_ALLOWED",
      "outputs": [
        {
          "internalType": "string",
          "name": "",
          "type": "string"
        }
      ],
      "stateMutability": "view",
      "type": "function"
    },
    {
      "inputs": [],
      "name": "ONLY_CREATOR",
      "outputs": [
        {
          "internalType": "string",
          "name": "",
          "type": "string"
        }
      ],
      "stateMutability": "view",
      "type": "function"
    },
    {
      "inputs": [],
      "name": "SUCCESS",
      "outputs": [
        {
          "internalType": "string",
          "name": "",
          "type": "string"
        }
      ],
      "stateMutability": "view",
      "type": "function"
    },
    {
      "inputs": [],
      "name": "ZERO_ADDR",
      "outputs": [
        {
          "internalType": "address",
          "name": "",
          "type": "address"
        }
      ],
      "stateMutability": "view",
      "type": "function"
    }
  ],
  "bytecode": "0x61024461003a600b82828239805160001a60731461002d57634e487b7160e01b600052600060045260246000fd5b30600052607381538281f3fe73000000000000000000000000000000000000000030146080604052600436106100925760003560e01c80637267050811610065578063726705081461013357806386f8148f14610155578063b746287b14610177578063d0a6d1a61461019957600080fd5b8063100155b9146100975780632ce231d9146100cf578063552e387c146100f15780636373108014610113575b600080fd5b6100b96040518060400160405280600381526020016232303160e81b81525081565b6040516100c691906101b9565b60405180910390f35b6100b96040518060400160405280600381526020016219181960e91b81525081565b6100b96040518060400160405280600381526020016231303160e81b81525081565b61011b600081565b6040516001600160a01b0390911681526020016100c6565b6100b96040518060400160405280600381526020016203130360ec1b81525081565b6100b96040518060400160405280600381526020016203230360ec1b81525081565b6100b96040518060400160405280600381526020016218981960e91b81525081565b6100b9604051806040016040528060018152602001600360fc1b81525081565b600060208083528351808285015260005b818110156101e6578581018301518582016040015282016101ca565b818111156101f8576000604083870101525b50601f01601f191692909201604001939250505056fea2646970667358221220d5b6bed20d2a84628425e8f58c88af474647e31c6fb42c32455440013256b69764736f6c634300080c0033",
  "linkReferences": {},
  "deployedLinkReferences": {}
}